:020000040000FA
:10000000A0040020F5020000FD020000FF02000035
:1000100001030000030300000503000000000000CE
:1000200000000000000000000000000007030000C6
:1000300009030000000000000B030000F120000095
:100040000F0300001103000013030000150300005C
:1000500017030000BD2200001B0300001D03000069
:100060001F030000210300002303000025030000FC
:1000700027030000290300002B0300002D030000CC
:100080002F0300003103000033030000E1210000D2
:1000900037030000390300003B0300003D0300006C
:1000A0003F0300004103000043030000450300003C
:1000B00047030000490300004B0300004D0300000C
:1000C0004F030000510300005303000055030000DC
:1000D00057030000590300005B0300005D030000AC
:1000E0005F0300006103000063030000650300007C
:1000F00067030000690300006B0300006D0300004C
:100100006F0300007103000073030000750300001B
:1001100077030000790300007B0300007D030000EB
:100120007F030000810300008303000085030000BB
:1001300087030000890300008B0300008D0300008B
:100140008F0300009103000093030000AD03000043
:100150000000000000000000AF030000B103000039
:10016000B3030000B503000000000000B703000067
:10017000B9030000BB030000BD030000BF03000083
:10018000C1030000C3030000C5030000C703000053
:10019000C9030000CB030000CD030000CF03000023
:1001A000D1030000D3030000D5030000D7030000F3
:1001B000D9030000DB030000DD030000DF030000C3
:1001C000E1030000E3030000E5030000E703000093
:1001D000E9030000EB030000ED030000EF03000063
:1001E000F1030000F3030000F5030000F703000033
:1001F000F9030000FB030000FD030000FF03000003
:1002000000F002F800F053F80AA090E8000C8244D5
:100210008344AAF10107DA4501D100F048F8AFF2B2
:10022000090EBAE80F0013F0010F18BFFB1A43F0D4
:10023000010318476C5B00008C5B0000103A24BF80
:1002400078C878C1FAD8520724BF30C830C144BF3B
:1002500004680C607047000000230024002500267D
:10026000103A28BF78C1FBD8520728BF30C148BF19
:100270000B607047642900F06D81752900F06A8178
:10028000782900F0A381732900F07F850020704752
:100290001FB505F023FA00F0DFFC04000020002168
:1002A00005F006FA401C60601FBD10B510BD01F0DE
:1002B0002CF81146FFF7ECFF04F038FA01F04AF889
:1002C00003B4FFF7F2FF03BC01F04EF8EFF3108028
:1002D00072B67047EFF310807047EFF3108062B68C
:1002E000704730BF704780F311887047EFF311807B
:1002F000704700004548804745480047FEE7FEE755
:10030000FEE7FEE7FEE7FEE7FEE7FEE7FEE7FEE7C5
:10031000FEE7FEE7FEE7FEE7FEE7FEE7FEE7FEE7B5
:10032000FEE7FEE7FEE7FEE7FEE7FEE7FEE7FEE7A5
:10033000FEE7FEE7FEE7FEE7FEE7FEE7FEE7FEE795
:10034000FEE7FEE7FEE7FEE7FEE7FEE7FEE7FEE785
:10035000FEE7FEE7FEE7FEE7FEE7FEE7FEE7FEE775
:10036000FEE7FEE7FEE7FEE7FEE7FEE7FEE7FEE765
:10037000FEE7FEE7FEE7FEE7FEE7FEE7FEE7FEE755
:10038000FEE7FEE7FEE7FEE7FEE7FEE7FEE7FEE745
:10039000FEE7FEE7FEE7FEE7FEE7FEE7FEE7FEE735
:1003A000FEE7FEE7FEE7FEE7FEE7FEE7FEE7FEE725
:1003B000FEE7FEE7FEE7FEE7FEE7FEE7FEE7FEE715
:1003C000FEE7FEE7FEE7FEE7FEE7FEE7FEE7FEE705
:1003D000FEE7FEE7FEE7FEE7FEE7FEE7FEE7FEE7F5
:1003E000FEE7FEE7FEE7FEE7FEE7FEE7FEE7FEE7E5
:1003F000FEE7FEE7FEE7FEE7FEE7FEE7FEE7FEE7D5
:1004000004480549034A054B70470000C12100001C
:1004100001020000A0020020A0040020A002002091
:1004200010B500F019FC001D10BD00BF8552000082
:1004300010B50446FFF7F4FF0068005D000704D51F
:10044000DF2C02D0A4F1200010BD204610BD00001A
:100450000FB41CB5084B06AA7B446946009005986A
:1004600000F061FC04460020694600F06FFC204665
:100470001CBC5DF814FB0000F10800000FB47CB553
:100480000C0009AA009001D02044401E084B7B4478
:1004900069460190089800F046FC05461CB1002012
:1004A000694600F053FC28467CBC5DF814FB000054
:1004B000C508000070B5044685690068C10601D50D
:1004C000302600E02026C00707D070BDD4E9012106
:1004D00030469047206A401C20626D1EF6D570BDE4
:1004E00070B5044685690078C00707D170BDD4E9AE
:1004F000012120209047206A401C20626D1EF6D505
:1005000070BD70B50C460546012A05D028788006D6
:1005100000D5EA69002302E0012305E05B1C934259
:1005200002D2E05C0028F9D1A869E618C01AA861D7
:10053000286A184428622846FFF7BCFF04E0D5E982
:10054000012114F8010B9047B442F8D32846FFF775
:10055000C7FF70BD2DE9F0410646002410687529DB
:10056000314616A510D0AFF30080002802DA4042D1
:1005700013A507E031688A0701D512A502E04907F3
:1005800004D511A5012401E0AFF3008000210A2267
:1005900006F1240709E0B0FBF2FCB0FBF2F302FB2A
:1005A0001C00303078541846491C0028F3D12346EB
:1005B0002A463046BDE8F04100F056BB000000007E
:1005C0002D0000002B0000002000000070B5044644
:1005D0000D4621461068AFF300802188090502D539
:1005E0000F4A7A4402E00E4A7A440E32002104F1A6
:1005F000240305E000F00F060009965D5E54491CD7
:100600000028F7D120780023000704D5702D02D0F0
:1006100009B1022311322046BDE8704000F024BB2E
:10062000C25600002DE9F05F894604464FF0000AEB
:10063000DFF874B1FB44C0F820A02046E168884789
:10064000002874D0252806D0D4E901219047206ADB
:10065000401C2062F1E700265F462046E16888479B
:100660002028054607DB312D05D2781910F8200C1B
:1006700008B10643F1E7B00701D526F00406C4F837
:100680001CA00027C4F818A02A2D09D0284601F084
:1006900013FF38B304EB8708303DC8F8185019E051
:1006A00059F8041B204604EB87029161E1688847F2
:1006B000012F054618D1E069002820DA26F020062F
:1006C0001DE0D8F8180000EB800005EB4000303842
:1006D000C8F818002046E1688847054601F0ECFE9E
:1006E0000028EED1012F0AD02E2D08D12046E16836
:1006F00088477F1C0546022F46F02006C4DBA06910
:10070000002803DA404246F00106A061F00701D05C
:1007100026F010066C2D0BD0682D09D04C2D39D049
:100720006A2D35D0742D35D07A2D33D016E038E0CF
:10073000E1682F4620468847B842054609D16C2F0C
:1007400026D04FF48060E16806432046884705467E
:1007500004E06C2F1AD04FF4807006430DB3A5F15E
:100760004100192802D8203546F400664A46294639
:10077000204626604E46FFF77DFD80B101280BD054
:10078000F61D26F0070000F1080956E74020E4E7CF
:100790008020D8E70020D6E706F104094DE7284677
:1007A00052E7206ABDE8F09F985600000FB400B5EC
:1007B0008DB010A9099000910B904FF0FF300A9076
:1007C00000200C90064878440690064878446A4613
:1007D00007900F9909A800F0F1FA0DB05DF814FB2D
:1007E000130600002B0600002DE9FF5F1D464FF0A9
:1007F000FF3B91464FF000085F46D5E90146A969E5
:1008000001987F1C8847296A824688470028F6D1CC
:10081000BAF1FF3F0CD0002E24F4C06419DD60064D
:1008200014D5BAF12B0F09D0BAF12D0F0ED103E078
:10083000584604B0BDE8F09F44F48064A96901986B
:100840007F1C8847761E8246002E02DDBAF1300FEB
:1008500003D0B9F1000F26D032E0A969761E0198C5
:100860007F1C44F400748847002E824605DDBAF1EF
:10087000780F06D0BAF1580F03D0B9F1000F10D09D
:100880001EE0B9F1000F02D0B9F1100F18D1A9691B
:10089000761E01987F1C24F400748847824610203D
:1008A00002E0082000E00A20814609E0A96908FB6F
:1008B0000908761E01987F1C44F40074884782461C
:1008C000002E05DD4946504600F063FA0028EDDAB7
:1008D000E96901988847A00502D46FF00100A8E7F4
:1008E000E00725D1600613D5600502D5C8F10000E8
:1008F00000E0404629680A1D2A600968220501D5E2
:10090000087015E0220701D5088011E008600FE0AB
:100910002868011D29600068210502D580F8008043
:1009200006E0210702D5A0F8008001E0C0F80080B1
:1009300038467EE770B5064600F092F90468054631
:1009400030460A22002100F069FA2C6070BD401E7A
:10095000CAB210F8011F8A4202D00029F9D1002042
:10096000704710B5431C02E010F8011B71B18107FC
:10097000FAD14FF0013202C88C1A8C4314EAC2112A
:10098000F9D0C01A0A0603D0C01E10BDC01A10BD8F
:100990000A0401D0801E10BD0902FCD0401E10BD0B
:1009A00040EA010370B59B072ED14FF00136042AAF
:1009B0002AD308C810C99D1B9D43121F15EAC615EE
:1009C00017D0D8B2E1B2401A50EA056110D198B2FE
:1009D000A1B2401A50EA05410AD123F07F4024F029
:1009E0007F41401A50EA052102D1180EA0EB146095
:1009F00070BDA342DBD018BA21BA884201D90120C8
:100A000070BD4FF0FF3070BD0AB9002070BD10F806
:100A1000013B11F8014B63B1A3420AD1521E08D029
:100A200010F8013B11F8014B1BB1A34201D1521E3A
:100A3000EDD1181B70BD032A40F2308010F0030C7A
:100A400000F0158011F8013BBCF1020F624498BF21
:100A500011F801CB00F8013B38BF11F8013BA2F1BE
:100A6000040298BF00F801CB38BF00F8013B11F039
:100A7000030300F02580083AC0F0088051F8043BD9
:100A8000083A51F804CBA0E80810F5E7121D5CBF46
:100A900051F8043B40F8043BAFF30080D20724BF79
:100AA00011F8013B11F801CB48BF11F8012B24BF0D
:100AB00000F8013B00F801CB48BF00F8012B70475C
:100AC00010B5203AC0F00B80B1E81850203AA0E8E9
:100AD0001850B1E81850A0E81850BFF4F5AF5FEA1D
:100AE000027C24BFB1E81850A0E8185044BF18C9D0
:100AF00018C0BDE810405FEA827C24BF51F8043B77
:100B000040F8043B08BF7047D20728BF31F8023BCA
:100B100048BF11F8012B28BF20F8023B48BF00F85E
:100B2000012B704702F0FF0343EA032242EA02422C
:100B300000F002B84FF000020429C0F0128010F05B
:100B4000030C00F0A581CCF1040CBCF1020F18BF1E
:100B500000F8012BA8BF20F8022BA1EB0C0100F03C
:100B600097B95FEAC17C24BF00F8012B00F8012B84
:100B700048BF00F8012B704710B5044610F0030F72
:100B800008BF11F0030F40F015804FF0013E121F17
:100B9000C0F20E8051F8043BA3EB0E0C2CEA030CC0
:100BA0001CEACE1C08BF40F8043BF0D0A1F10401C0
:100BB00002F10402521E08DB11F8013B002B00F881
:100BC000013BF7D11146FFF7B5FF204610BD0000ED
:100BD0004FF0013C50F8042B51F8043B9A4221D1CC
:100BE000A2EB0C03934313EACC1317D150F8042B58
:100BF00051F8043B9A4215D1A2EB0C03934313EA3C
:100C0000CC130BD150F8042B51F8043B9A4209D174
:100C1000A2EB0C03934313EACC13DBD04FF000009C
:100C2000704700BFD01A01BAB1FA81F101F0180182
:100C300022FA01F0CB40C1F12001DBB2C0B2C01AF0
:100C40002CFA01F3D11A914311EAC311E6D170478E
:100C500070477047704700000048704760020020EE
:100C600000487047400200202DE9F0470D469946A4
:100C70009246044600F124080168880604D5E0691C
:100C800021F01001216000E00120A84201DD471B96
:100C900000E00027A1697A1902EB0900081AA06197
:100CA0002078C00602D42046FFF704FC002608E0A6
:100CB000D4E901211AF806009047206A401C761CEE
:100CC00020624E45F4DB2078C0060AD52046FFF7A7
:100CD000F1FB06E0D4E9012130209047206A401C56
:100CE0002062381EA7F10107F4DC07E0D4E90121F6
:100CF00018F805009047206A401C2062281EA5F1C4
:100D00000105F3DC2046FFF7EBFB2078000602D557
:100D10000220BDE8F0870120FBE7000001694A1CC2
:100D200002610878704700B58FB0CDE9013100212C
:100D3000059105497944CDE9031011466846FFF74E
:100D400071FC0FB000BD0000E5FFFFFF0A6802F86C
:100D5000010B0A607047D1E900239A4202D2531C6A
:100D60000B601070704710B5436913B1AFF300808A
:100D700001E0FFF7C6FB012010BD127800F124014D
:100D80000A7000224A700122EDE711684FF0FF322D
:100D9000E9E73A2800D2303820F02002412A01D376
:100DA000A2F13700884201D34FF0FF3070470000B6
:100DB000026811441378016018467047D1600549F4
:100DC000794451610449794411620021116111464D
:100DD00000F092B8EDFFFFFF1B010000426842B136
:100DE000016811F8013B23B1521EC0E900121846F8
:100DF00070470121C160881E704742685AB1C368BC
:100E0000016843B983688B4205D0491E521CC0E972
:100E10000012002070474FF0FF3070472DE9F04777
:100E200091460F4680460446002614F8015B2DB11A
:100E3000FFF7F6FA0068405DC007F6D12B2D02D00F
:100E40002D2D18D0641E4A463946204600F00EFA71
:100E500027B13968A14201D1C7F800804FF00204E0
:100E600071050BD54042002803DDFFF7F9FE046051
:100E7000A007BDE8F08746F48066E4E70028F8DACA
:100E8000FFF7EEFE04606FF00040F2E74FF0000263
:100E900000B5134694469646203922BFA0E80C5070
:100EA000A0E80C50B1F12001BFF4F7AF090728BF4B
:100EB000A0E80C5048BF0CC05DF804EB890028BFC7
:100EC00040F8042B08BF704748BF20F8022B11F0F0
:100ED000804F18BF00F8012B704700000048704792
:100EE0004002002010B50446FFF79AFA0068005D42
:100EF00000F0010010BD00002DE9F34F4FF0000A93
:100F00000C4656468DB001200C9001F10C000B9060
:100F100062690B9801219047051E2DD0252D2CD0FC
:100F2000216A8847C0B162690B9801219047216A04
:100F300088470028F7D16269411E0B98904700E06E
:100F4000761CA1690D988847216A88470028F7D147
:100F5000E1690D988847DBE7A1690D988847A842A9
:100F6000074601D1761CD3E7E1690D9888477F1CBD
:100F700002D1BAF1000F6FD06BE162690B980027C4
:100F80003D46394690472A2804D162690B980121D1
:100F900090470125DFF8D08262690B9801219047C4
:100FA000A0F130010A290AD24745E5DC07EB8701A9
:100FB00000EB4107303FDFD445F01005ECE7E906D0
:100FC00001D46FF000476C280AD04C2814D0682850
:100FD00015D06A280DD074281CD07A281AD01DE0AC
:100FE00062690B98012190476C2802D045F00405F6
:100FF00014E045F002050DE045F020050AE06269C5
:101000000B9801219047682802D045F0080505E0BB
:1010100045F4006562690B9801219047C4E90157C6
:1010200065283DD019DC58287AD00CDC452837D00B
:1010300004DC252826D041289ED131E046282FD037
:10104000472899D12CE05B2877D0612828D06328E5
:101050007CD0642823D15AE0F6E06F2848D008DC21
:1010600066281DD067281BD0692821D06E2816D18C
:1010700027E0702845D0732868D0752847D0782895
:101080000DD14DE0A1690D988847252805463FF40C
:1010900069AFE1690D9888476D1C3FF46AAFD8E0ED
:1010A0000D9923466A466FF00100AFF30080C5E05A
:1010B00045F0400023464FF000026060A80736D498
:1010C0003EE0E8077FF447AF2068011D216000681B
:1010D000290501D506701BE7290701D5068017E70A
:1010E000A90703D5F117C0E9006111E706600FE712
:1010F00045F0400023464FF008026060A80716D470
:101100001EE040F60E0125EA0100606016E045F0A1
:10111000400023464FF00A026060A80707D40FE0A2
:1011200045F040006060A80708D5234610220D99BD
:101130006FF00100AFF3008080E007E0102223464B
:101140000D996FF00100FFF74FFB77E04FF00009BA
:1011500063284F46C8464B46CB4602D05B2806D094
:1011600038E0E80601D40120A060012732E062697E
:10117000D4F80CB00B98012190475E2807D14FF0AE
:10118000010949466269D4F80CB00B98904721696F
:1011900039B900210A4603AB43F82120491C08292C
:1011A000FADBD8B3216949B308F1010862690B98E9
:1011B000012190475D28F4D1B9F1000F09D000203A
:1011C00003A951F82020D24341F82020401C0828D0
:1011D000F7DB03AB2069002820794FEA40701ED06E
:1011E0005B462246CDF80080CDE901970D99002895
:1011F0006FF0010020DAAFF300801FE0C11703AAEF
:1012000000EBD1614B1121F01F0102EB8302411A67
:1012100013680120884003431360C7E719E00D9964
:10122000224600286FF00100009702DAAFF3008039
:1012300004E0AFF3008001E0AFF3008000280ADA99
:10124000401C06D10C9820B14FF0FF300FB0BDE824
:10125000F08F5046FAE7E90701D10AF1010A064486
:1012600000200C9054E60000CCCCCC0C2DE9F05FB3
:10127000824615468B4600270AF10104B9460078DC
:10128000302801D09DB113E014F8010B0127782814
:1012900003D0582801D045B10AE00DB1102D07D177
:1012A000002714F8010B102502E0082500E00A25AC
:1012B0000026B0460EE005FB080005FB06F10127FD
:1012C0001FFA80F801EB1046B6F5803F00D3B9460F
:1012D00014F8010B2946FFF75CFD0028EBDABBF19F
:1012E000000F05D00FB1641E00E05446CBF800405B
:1012F000B9F1000F06D0FFF7B3FC02210160C81E50
:10130000BDE8F09F48EA0640FAE77546FFF7E6FDBC
:10131000AE4605006946534620F00700854618B0E2
:1013200020B5FFF76DF8BDE820404FF000064FF004
:1013300000074FF000084FF0000B21F00701AC460A
:10134000ACE8C009ACE8C009ACE8C009ACE8C00929
:101350008D46704710B50446AFF300802046BDE8C7
:101360001040FEF7ADBF000001491820ABBEFEE7FC
:10137000260002007047000010B5144800F074FE0B
:1013800000BF124800F084FE0028FAD02221104845
:1013900000F04EFF0F4800684FF47A61B0FBF1F4A3
:1013A0002246FF210A4800F080FF0121084800F092
:1013B00078FFC021232000F0A9FB232000F05CFB74
:1013C000FF21034800F064FF10BD0000000400F09E
:1013D000000003404800002010B500F076FEFF2218
:1013E000642124A000F074FC0022642124A000F0F9
:1013F0006FFCFF22962125A000F06AFC002232211A
:101400001FA000F065FCFF22962120A000F060FCE8
:10141000002264211AA000F05BFCFF2296211EA08E
:1014200000F056FC0022322115A000F051FCFF22F2
:10143000962119A000F04CFC0022642110A000F0BD
:1014400047FC0022C82117A000F042FC00223221F4
:101450000BA000F03DFC16480021016041601548DA
:1014600001604160202208211348FFF75BFB00F078
:1014700033FE10BD383838383838383800000000AE
:101480002020202020202020000000003230323692
:10149000303030310000000048555A48454E59451B
:1014A0000000000056312E302020202000000000D7
:1014B000B7000020BF000020C700002010B5044680
:1014C000302C06DB392C04DCA4F130004349085CE5
:1014D00010BD412C4ADB5A2C48DCA4F141001A28EB
:1014E00042D2DFE800F00D0F11131517191B1D1F55
:1014F00021232527292B2D2F31333537393B3D3FEC
:101500007720E5E77C20E3E73920E1E75E20DFE7AD
:101510007920DDE77120DBE73D20D9E77620D7E7AA
:101520003020D5E71E20D3E77A20D1E73C20CFE753
:101530005520CDE73720CBE73F20C9E77320C7E729
:101540006720C5E77020C3E76D20C1E77820BFE7BB
:101550003E20BDE77E20BBE76A20B9E73620B7E72B
:101560006E20B5E74920B3E70020B1E7612C2BDB03
:101570007A2C29DCA4F1630013281FD2DFE800F0E5
:101580000A1E0C1E1E0E10121E141E16181E1E1AE7
:101590001E1E1C0058209BE77B2099E7742097E7CC
:1015A000102095E70E2093E7382091E754208FE72D
:1015B0005C208DE750208BE71C2089E7A4F12001F7
:1015C000C8B2FFF77BFF83E72E2C01D180207FE795
:1015D0002D2C01D140207BE7002079E72800002056
:1015E000084A1268084BB2FBF3F242430323B2FBF2
:1015F000F3F102E000BF00BF00BF0A1EA1F101012C
:10160000F8D170474800002040420F00D0F8003465
:1016100012F0010F14BF0B438B43C0F8003412F0DB
:10162000020FD0F8202414BF114322EA0101C0F8B0
:10163000201470472DE9F00301264FF0000C03251C
:10164000C2F3411706FA0CF40C4211D0D0F8C48F43
:101650004FEA4C0405FA04F928EA0908C0F8C48FD7
:10166000D0F8C48F07FA04F448EA0404C0F8C44F61
:101670000CF1010C0CF0FF0CBCF1080FE2D3D0F818
:1016800000C512F0010F14BF4CEA010C2CEA010C4A
:10169000C0F800C5D0F804C512F0020F14BF4CEA20
:1016A000010C2CEA010CC0F804C5D0F808C512F0F2
:1016B000040F14BF4CEA010C2CEA010CC0F808C559
:1016C000D0F818C512F0080F14BF4CEA010C2CEA30
:1016D000010CC0F818C512F0100FD0F83C2514BF4B
:1016E0000A438A43C0F83C25D0F80C2513F0010FBB
:1016F00014BF0A438A43C0F80C25D0F8102513F014
:10170000020F14BF0A438A43C0F81025D0F81425ED
:1017100013F0040F14BF0A438A43C0F81425D0F80D
:101720001C2513F0080F14BF0A438A43C0F81C2578
:10173000D0F8442513F4007F14BF0A438A43C0F84D
:101740004425D0F8402513F4407F14BF0A438A4350
:10175000C0F84025D0F82825002B0CBF114322EA01
:101760000101C0F82815BDE8F00370470E4AC0F328
:101770000741D26E01238B401A420C4A1ABF02EB7A
:10178000C101496852F83110020AD1F82C354FF0E6
:101790000F0C0CFA02FC00F00F0023EA0C0390403F
:1017A0001843C1F82C05704700E00F40B8580000FE
:1017B00050F82100704730B50C4605460022FFF76F
:1017C00025FF21462846BDE8304008230122FFF7C7
:1017D00031BF30B50C46054608230122FFF72AFF2A
:1017E00021462846BDE830400122FFF70FBF30B543
:1017F0000C4605460222FFF709FF21462846BDE8B0
:10180000304009230122FFF715BF30B50C460546CD
:101810000222FFF7FBFE21462846BDE830400823A0
:101820000122FFF707BF30B50C4605460222FFF73D
:10183000EDFE21462846BDE8304008230122FFF78F
:10184000F9BE40F821207047F8B504460E46002046
:10185000009000BF2D4800F0C3F828B10098401C4C
:101860002B4900908842F5D329490098884201D33A
:10187000FF20F8BD00222146244800F0F9F8314647
:10188000224800F0B7F80721204800F0AFF8002008
:10189000009000BF1D4800F09DF828B10098401C42
:1018A0001B4900908842F5D319490098884201D31A
:1018B000FF20DEE7154800F0A4F80A20FFF790FEAD
:1018C00001222146114800F0D3F807210F4800F00B
:1018D0008DF80020009000BF0C4800F07BF828B184
:1018E0000098401C0A4900908842F5D308490098A6
:1018F000884201D3FF20BCE7044800F079F8C5B264
:101900000A20FFF76DFE2846B3E700000000024002
:10191000A0860100F8B504460F4615460020009049
:1019200000BF2A4800F05CF828B10098401C284904
:1019300000908842F5D326490098884201D3FF20C1
:10194000F8BD00222146214800F092F839461F4890
:1019500000F050F803211D4800F048F800200090E6
:1019600000BF1A4800F03CF828B10098401C184904
:1019700000908842F5D316490098884201D3FF2091
:10198000DEE7124800F03DF8C6B229460F4800F0E5
:1019900031F805210D4800F029F80020009000BF23
:1019A0000A4800F01DF828B10098401C0849009032
:1019B0008842F5D306490098884201D3FF20BFE74B
:1019C000024800F01EF8C6B23046B9E700000240F7
:1019D000A0860100406810F0400018BF0120704749
:1019E000406810F0010018BF012070474160704747
:1019F0008068704781607047016A41F010010162A0
:101A00007047406810F0010F05D110F0120F1CBF95
:101A100000F01C007047002070470000036A43F08C
:101A200010030362002A14BF0E4A0F4A02EB82031E
:101A300001EB830302EB820292005B1EB3FBF2F226
:101A4000521EC260D0F8C02F12F0010F08BF7047BD
:101A5000064A1144521CB1FBF2F1491E41F08001CB
:101A6000C1607047801A0600A08601007F473701D9
:101A700042EA4101016070471649042804BF086822
:101A800040F4803018D0052804BF086840F40030C6
:101A900012D0062812D00F2815D0102838BF704752
:101AA000103800F01F01012202FA01F142090A4830
:101AB00050F822000160704708607047086840F4E1
:101AC0008020086070474FF0E020016941F002017A
:101AD0000161704724ED00E0045A000010B5FEF7E4
:101AE000FCFB002818BF012010BD0000044951F87C
:101AF0002000044940F0FD7040F0806008607047AD
:101B0000485900000CED00E0FEF7F0BB084A20F059
:101B10000303D25813688007C00E4FF0FF0C0CFA75
:101B200000FC23EA0C0301FA00F018431060704730
:101B30006859000010B5204800F096FA00BF1E4812
:101B400000F0A6FA0028FAD01B48C01C00F08CFA5E
:101B500000BF1948C01C00F09BFA0028F9D01648B5
:101B6000C01D00F081FA00BF1348C01D00F090FABC
:101B70000028F9D001211148FFF72BFE0121104860
:101B8000FFF727FE02210E48FFF723FE08236622F7
:101B900003210B48FFF74EFD002202210848FFF702
:101BA00050FE03210748FFF706FE0A230122032106
:101BB0000448FFF73FFD10BD050800F0005002404B
:101BC0000040064000D0034010B51B4800F04CFA1E
:101BD0001A4800F049FA1A48FFF7C8FD1948FFF7FC
:101BE000C5FD04211848FFF710FE08211648FFF72D
:101BF000FEFD0122154801681548FFF70FFF144844
:101C0000FFF7FAFEFF220C212220FFF783FE0022BD
:101C10000D212220FFF77EFE00220E212220FFF759
:101C200079FE002203211820FFF774FEFF22012114
:101C30001820FFF76FFE10BD002000F0010800F033
:101C400002080100020C0100005000404800002082
:101C50000000024010B5144800F006FA134800F0E6
:101C600003FA00BF114800F013FA0028FAD001204F
:101C7000FFF77CFD40F20140FFF778FD03214FF0B4
:101C80004020FFF7D0FD60234FF4E132084801689F
:101C9000084800F0B8FB18220321064800F0EAFBD0
:101CA00005A000F0FBFB10BD001800F0000800F0DC
:101CB0004800002000C000400D0A436C6F636B2099
:101CC00053797374656D2052656164790D0A000063
:101CD0002DE9FC4705460F469046002408E0285DA4
:101CE00000B907E0285DFFF7E9FB0DF80400641C6C
:101CF000082CF4DB00BF03E000200DF80400641C96
:101D0000082CF9DB002632E000242DE00022062119
:101D10002220FFF7FFFD184908700A20FFF760FC3A
:101D20001DF8042005212220FFF7F4FD1249087058
:101D30000A20FFF755FC04F0FF09012000FA09F022
:101D4000C2B206212220FFF7E5FD0B4908706FEAB9
:101D50000800C2B201211820FFF7DCFD0649087017
:101D60006420FFF73DFC641C082CCFDB761CBE42D0
:101D7000CAD3BDE8FC870000420000202DE9F00333
:101D8000AF4D02462868AF4B1840A0F18053B3F521
:101D9000A02359D002F03809DFF8AC82C2F38414D2
:101DA000B9F1100F25D0B9F1300F04BF47F2305010
:101DB0004FF400130DD04FF03800904304BF4FF4A0
:101DC0000040C30105D012F0380F1CBF00200346AD
:101DD00013D09E4F12F4605F4FF0000618BF002230
:101DE0002CD057F8324044457DD307EBC2025268ED
:101DF000E1E0002340461524EBE7A4F10900122896
:101E000022D29348D5F87CC04FF04C7350F8240090
:101E10002CF01C0C072CA8BF4CF0100CC5F87CC093
:101E20002E6D4FF4002C16F4807FD2D1BCF1010C42
:101E30000AD02E6D16F4807FF8D0CAE712F0380F62
:101E400018BFB9F1100F04D0BDE8F0034FF0000047
:101E50007047C2F30268DFF8FCC14FF0000257F888
:101E60003290E14503D307EBC202526803E0521CF3
:101E7000062AF4D33246C5F8C020D5F8B020DFF8E2
:101E8000D8C102EA0C0242F00042C5F8B020DFF8E7
:101E9000CCC1A4F109024C1E5CF828C0A444BCFBD0
:101EA000F1FCD5F8B0101943C5F8B01008EBC80123
:101EB00001EB41046A4902EB420201EBC40101EB70
:101EC00082046468C5F86441D5F864416FF0FF0886
:101ED00008EB0C2C44EA0C0CC5F864C151F8221034
:101EE000D5F8602100E061E002F400021143C5F87A
:101EF0006011D5F86011D5F86021C1F38921C2F3D2
:101F00000904D5F86421C2F3042202F1010CD5F8CA
:101F1000642102F01F02521CB0FBF2F04A09C2F128
:101F200000084443424301EB481104EB521248437A
:101F300002EB9020B0FBFCF041080846002257F865
:101F400032C0844503D307EBC200466802E0521C4E
:101F5000062AF4D3C5F8C060D5F8600110F4000F6C
:101F60001DBFD5F8B00040F08040C5F8B000D5F8EE
:101F7000600104BF40F40000C5F860014FF4004068
:101F8000D5F8682112F0010F02D1401E0028F7DCBD
:101F9000002808BF002148D0D5F8B000184340F011
:101FA000010040F01040C5F8B0003EE0521C062A87
:101FB000FFF417AF3246C5F8C020D5F8602122F4EF
:101FC0000002C5F86021D5F8B020DFF898C002EA19
:101FD0000C0242F00042C5F8B020002908BF4FF0C3
:101FE000000C0AD0B0FBF1FCBCF1000F18BFACF143
:101FF000010C0CF10101B0FBF1F10846002257F889
:102000003240844203D307EBC200466802E0521C10
:10201000062AF4D3C5F8C060D5F8B00043EA8C2294
:10202000104340F00040C5F8B000D5F8B00020F4EF
:102030007000C5F8B000BDE8F00308467047000026
:1020400000E00F400000FF700024F400785C000006
:102050005C5A000040787D0100FC0FE0545A0000FB
:10206000C85A0000FF0300EFC0F307230749C0B2BE
:10207000194401F07043C1F3130143EA411141EAED
:10208000800040F0007001220260704700E60F40BF
:10209000C0F307220849C0B2114401F07042C1F3F5
:1020A000130142EA411141EA800040F000700068EB
:1020B000002818BF0120704700EA0F404FF0E020D1
:1020C000016941F00501016170474FF0E0200169AD
:1020D00021F00201016170474FF0E020016941F0F9
:1020E0000201016170474FF0E021401E48617047D6
:1020F00010B5002206212220FFF70CFC0520FFF777
:102100006FFA274827490978425C05212220FFF70A
:1021100001FC0520FFF764FA224804780120A04062
:10212000C2B206212220FFF7F5FB1E480078401CB2
:102130001C49087008460078082801DB0020087058
:102140001948008828B118480088401E16490880A0
:1021500005E06420144908800120144908701448DF
:10216000008828B112480088401E1149088005E007
:102170000A200F49088001200E49087001210E48ED
:10218000FFF716FB28B9012211460C48FFF759FB4F
:1021900004E0002201210948FFF753FB10BD0000B5
:1021A000B7000020D00000203E00002041000020A9
:1021B0003C0000204000002000D0034000400640CA
:1021C0000448006840F4700002490860024803496E
:1021D0000860704788ED00E00024F400080100204A
:1021E00010B501210E4800F05AF80E480078A8B149
:1021F0000D48007808B9012000E000200A49087065
:102200000846007828B1022211460848FFF719FB5A
:1022100004E0002202210548FFF713FB10BD000077
:1022200000000340F70000200601002000400640A7
:1022300010B4C26822F0010222F48072C2600A0E59
:102240000260114A1268114B02EA030CACF180548F
:10225000CBB2C1F30722B4F5202407D043F40071B8
:10226000416042F40071816010BC70474FF4704CC3
:102270000CEA1114234343F4007343600CEA112168
:10228000114341F40071EEE700E00F400000FF70E1
:10229000C26840F2011319401143C16070474162A6
:1022A0007047826911438161704711F0FF0F18BFB9
:1022B000826211F47F4F18BFC262704770B501216E
:1022C0003A4800F0E5F805462946384800F0D5F8C8
:1022D0000320374908703748007848B102E0334896
:1022E00000F07EF8314800F089F80028F7D170BD81
:1022F00033E02E4800F074F8C4B20D2C00D12CE06D
:102300000A2C1AD12C48007860B100202A490870A4
:102310002A49086041212A48FEF70CFC012029497E
:102320000870E4E700202649244A126888542349AB
:10233000086001201F490870D9E72048006840283C
:1023400007DA1E490868411C1C4A11601C490C54DC
:1023500002E001201849087000BF144800F04EF850
:102360000028C6D105F04000E8B11348007860B1FC
:102370000020114908701149086041211048FEF7FA
:10238000D9FB11A000F08AF8B1E70C4800680028DA
:1023900009DD00200A49094A126888540749086083
:1023A00001200449087000BFA1E7000000C0004000
:1023B000DE000020580000205900002054000020BA
:1023C0000C0100205A0000204552524F52204C4927
:1023D0004E4520544F4F204C4F4E470D0A000000F1
:1023E000816911F0100F0CBF00684FF0FF3070478B
:1023F000826912F0200FFBD10160704780690121D2
:1024000021EA10107047D0F818C01CF0080FFAD15C
:10241000D0F82CC02CF0100CC0F82CC0D0F830C074
:102420002CF0010C2CF4407CC0F830C0D0F830C047
:10243000B1EB021F34BF4CF0200C2CF0200CC0F884
:1024400030C038BF5208C900B1FBF2F1491C49083D
:102450008A09426201F03F018162C3620021816109
:10246000C16A41F01001C162016B40F201321143B7
:102470000163704711434163704741647047826B49
:1024800022EA010181637047826B114381637047C7
:10249000002914BF006CC06B7047000010B50446E3
:1024A00004E014F8011B0348FFF7A2FF207800287E
:1024B000F7D110BD00C0004030380A2801D20120F9
:1024C000704700207047000010B54448007800B104
:1024D00010BD43480078401EC4B2072C00DBF7E76C
:1024E0000120A0403F490978084000B9F0E73E4884
:1024F0000078F0B93D48005D3D490978884218D11F
:102500003C48005D3C490978884212D13B48005D57
:102510003B49097888420CD10120334908700020DA
:10252000384908703849087038490870012002F0AD
:10253000C9FD2D48007800284ED033480078401C53
:102540003149087031480078401C3049087008460D
:102550000078642802DB00F05BF8B9E729480078CE
:1025600030B1012811D002281CD0032833D126E035
:1025700000F066F824480078022805DB0120214994
:10258000087000202049087025E000F067F81E4818
:102590000078022805DB02201A49087000201A4939
:1025A000087018E000F04CF817480078022805DBA6
:1025B0000320144908700020134908700BE000F054
:1025C0004DF811480078022804DB00200D490870FE
:1025D0000D49087000BF00BF00BF79E7B2000020BE
:1025E00074000020AD000020AE0000209800002004
:1025F0006C0000209F0000206D000020A60000203D
:102600006E000020AF000020B0000020B1000020CC
:1026100010B5002006490870064908700649087080
:102620000649087000F00CF8002002F04BFD10BDC8
:10263000AE000020AF000020B0000020B10000205C
:1026400010B5002003490870002202210248FFF75C
:10265000F8F810BDF70000200040064010B506480D
:10266000007800B110BD012004490870FF21044822
:10267000FFF70EFE00BFF5E7EE000020F700002098
:10268000000003402DE9F041ACB007462022394656
:1026900024A8FEF771FA00208DF8AF0024AC00E00A
:1026A000641C20782028FBD020780928F8D004E08A
:1026B0002078FDF7BDFE2070641C20780028F7D13B
:1026C00024AC00E0641C20782028FBD02078092866
:1026D000F8D0207828B1A2A1204602F023FA0028E1
:1026E0004ED0A1480078012839D1A04800780A21AD
:1026F00090FBF1F09D4909780A2291FBF2F302FB6D
:10270000131101EB810100EB4100C5B2984800783C
:102710000A2190FBF1F09649097891FBF2F302FB54
:10272000131101EB810100EB4100C6B29148007822
:102730000A2190FBF1F08F49097891FBF2F302FB3B
:10274000131101EB810100EB410000F0FF0833465B
:10275000424689A118A80095FDF77AFE0AE085484F
:1027600000780090824803788048027882A118A8F7
:10277000FDF76EFE18A802F063FD2CB0BDE8F081F5
:1027800082A1204602F0CEF900286CD0764800786D
:10279000012859D17F4800780A2190FBF1F07D494A
:1027A00009780A2291FBF2F302FB131101EB81017C
:1027B00000EB4100C5B2784800780A2190FBF1F0A7
:1027C0007549097891FBF2F302FB131101EB8101CA
:1027D00000EB4100C6B2714800880A2190FBF1F27B
:1027E00001FB12004FF47A7148436C4909880A22B0
:1027F00091FBF2F191FBF2F302FB131101EBC10229
:1028000002EB011100EB810064490988642291FB0D
:10281000F2F10A2291FBF2F302FB131101EB8101A9
:1028200000EB41005D4909884FF47A7291FBF2F1A7
:1028300008441FFA80F833462A4659A118A8CDF853
:102840000080FDF705FE0AE05248007800905248EB
:1028500003785248028857A118A8FDF7F9FD18A877
:1028600002F0EEFC89E758A1204602F05BF970B156
:102870003D48007808B156A000E057A0024658A194
:1028800018A8FDF7E5FD18A802F0DAFC75E756A1D7
:10289000204602F047F9002835D055A104A8FDF7DD
:1028A000D7FD0646002523E00120A84051490978BC
:1028B000084008B1012300E000234F48405D4F4924
:1028C000495D4F4A525DDFF83CC1CDE90203CDE9D5
:1028D0000021691C5CF821300DB14BA100E021A161
:1028E0000A4604A9881949A1FDF7B2FD06446D1CEA
:1028F000072DD9DB04A9881949A1FDF7A9FD04A872
:1029000002F09EFC39E747A1204602F00BF970B1B6
:102910004648007808B146A000E046A0024630A133
:1029200018A8FDF795FD18A802F08AFC25E742A13A
:10293000204602F0F7F870B14148007808B141A094
:1029400000E042A0024626A118A8FDF781FD18A8C4
:1029500002F076FC11E73EA002F072FC00BF0CE72B
:1029600054494D4500000000D10000206C000020BB
:102970006D0000206E0000204F4B20253032642E69
:10298000253032642E253032640D0A00444154450E
:102990000000000073000020720000207000002082
:1029A0004F4B20253032642E253032642E253034B2
:1029B000640D0A004F4B20253034642E25303264DC
:1029C0002E253032640D0A00464F524D415400000E
:1029D00052494748540000004C454654000000004E
:1029E0004F4B2025730D0A00414C41524D00000011
:1029F0004F4B2000AD000020A60000209F000020CB
:102A00009800002078000020200000002573257326
:102A10002C25642C25642C25642C256400000000E2
:102A20000D0A00004449535000000000B50000208A
:102A30004F4E00004F4646004D4F444500000000F9
:102A4000EE0000204E494748540000004441590020
:102A50004552524F522053594E5441580D0A0000CE
:102A600000B589B00548026805A101A8FDF7F0FC92
:102A700001A802F0E5FB09B000BD0000F000002055
:102A80002A504F4E4720256C750D0A002DE9F0475E
:102A900098B005464022294608A8FEF76DF80020A8
:102AA0008DF85F0008AC04E02078FDF7C1FC2070D1
:102AB000641C20780028F7D1012601274FF0010877
:102AC0009DF82000002858D0002080460746064682
:102AD00008AC4EE000E0641C20782028FBD0207871
:102AE0000928F8D0207800B946E0A14600E0641C2F
:102AF000207828B12078202802D020780928F6D123
:102B000094F800A0002020703CA1484602F00AF88A
:102B100008B1012727E03BA1484602F003F808B1BD
:102B2000012720E039A1484601F0FCFF08B1012748
:102B300019E038A1484601F0F5FF08B1012612E07E
:102B400036A1484601F0EEFF10B14FF0010809E050
:102B500034A16846FDF77CFC684602F071FB18B0B2
:102B6000BDE8F08700BFBAF1000F00D104E0641C9B
:102B700000BF20780028ADD100BF4FB140F2EA700D
:102B80002C49088006202C49087008202B49087021
:102B900036B100202A4908702A4908702A4908706D
:102BA000B8F1000F10D0002008E00621274A115488
:102BB0000021274A1154274A1154401C0728F4DBEE
:102BC0001F21254A117000BF0020244908700120F0
:102BD00023490870002023490870234908702349BD
:102BE0000870234908702349087001F0B5F802F015
:102BF00033FB21A002F024FB00BFB0E74441544561
:102C00000000000059454152000000004D4F4E5455
:102C10004800000054494D4500000000414C41521D
:102C20004D0000004552524F5220504152414D0D2F
:102C30000A000000700000207200002073000020D5
:102C40006C0000206D0000206E0000209800002025
:102C50009F000020A6000020AD000020D100002031
:102C6000B5000020D3000020D7000020D8000020AD
:102C7000DA000020B40000204F4B0D0A00000000D5
:102C80002DE9F14F9EB040220EA81E99FDF774FF6A
:102C900000208DF8770000260EAD1DE000E06D1CD1
:102CA00028782028FBD028780928F8D0287800B97F
:102CB00016E004A840F8265000E06D1C287828B1E2
:102CC0002878202802D028780928F6D1287810B151
:102CD000002028706D1C761C287808B10A2EDDDBD8
:102CE00000BF2EB9B0A002F0ABFA1FB0BDE8F08F64
:102CF000002410E004A850F824B007E09BF800007E
:102D0000FDF796FB8BF800000BF1010B9BF8000020
:102D10000028F3D1641CB442ECDBA7480078401EC5
:102D2000039000200290A5A1049801F0FBFE20B1C1
:102D3000002003900120029044E0A2A1049801F039
:102D4000F1FE18B10120039002903BE09FA104988E
:102D500001F0E8FE20B1022003900120029031E052
:102D60009DA1049801F0DEFE20B103200390012014
:102D7000029027E09BA1049801F0D4FE20B104202A
:102D80000390012002901DE098A1049801F0CAFE72
:102D900020B1052003900120029013E096A1049831
:102DA00001F0C0FE20B1062003900120029009E04E
:102DB00093A1049801F0B6FE20B14FF0FF300390CC
:102DC000012002900398401C08B9002000E00398FD
:102DD00007460398401C08B9072001E00398401CEF
:102DE0008046029C37E004A951F8240085A101F037
:102DF00099FEB0B1BB4609E0012000FA0BF0824910
:102E000009788143804801700BF1010BC345F3DB66
:102E100000207E490870FFF713FC7DA002F010FA35
:102E200063E704A951F824007BA101F07BFE88B17F
:102E3000BB4609E0012000FA0BF07349097808430A
:102E4000714908700BF1010BC345F3DB70A002F070
:102E5000F7F94AE7641CB442C5DB4FF0FF39CA46B4
:102E600048460190029C3FE004A951F824006BA160
:102E700001F058FE00B136E004A951F8240069A120
:102E800001F050FE00B12EE004A951F8240067A122
:102E900001F048FE00B126E0FDF7C2FA006804A97F
:102EA00051F824100978405C202809D004A850F873
:102EB000240000782D2803D03BA002F0C1F914E7CC
:102EC00004A951F82400FDF735FD8346B9F1000F40
:102ED00001DAD94606E0BAF1000F01DADA4601E07C
:102EE000CDF804B000BF641CB442BDDB00200090EC
:102EF000B9F1000F12DBB9F1170F03DD4DA002F09D
:102F00009FF9F2E6BB4604E04E4901F80B900BF145
:102F1000010BC345F8DB0120009000BFBAF1000FA0
:102F200012DBBAF13B0F03DD42A002F089F9DCE6C7
:102F3000BB4604E0444901F80BA00BF1010BC3456B
:102F4000F8DB0120009000BF0198002813DB0198F6
:102F50003B2803DD37A002F073F9C6E6BB4605E067
:102F60003A49019801F80B000BF1010BC345F7DB5F
:102F70000120009000BF009888B1BB4609E0012005
:102F800000FA0BF02049097808431F4908700BF13B
:102F9000010BC345F3DB1EA002F052F902E002A0D0
:102FA00002F04EF900BFA0E64552524F522053594D
:102FB0004E5441580D0A0000740000204D4F4E64DD
:102FC0006179000054554573646179005745446E3A
:102FD00065736461790000005448557273646179C7
:102FE0000000000046524964617900005341547565
:102FF000726461790000000053554E6461790000ED
:10300000414C4C004F464600AD000020AE00002071
:103010004F4B0D0A000000004F4E0000484F555224
:10302000000000004D494E75746500005345436F24
:103030006E6400004552524F522052414E47450D9A
:103040000A000000980000209F000020A600002039
:1030500070B50646344600E0641C20782028FBD07A
:1030600020780928F8D0207818B913A002F0E8F8E1
:1030700070BD2046FDF75EFC05460A2D03DB41F2DC
:103080008830854203DD10A002F0DAF8F0E7FFF7A0
:10309000E5FA05F13200642190FBF1F00E49087069
:1030A00008460078012801DA012008700BA002F020
:1030B000C7F800BFDCE700004552524F5220504194
:1030C00052414D0D0A0000004552524F52205241CC
:1030D0004E47450D0A000000F60000204F4B0D0A38
:1030E000000000002DE9F14FA2B0402212A8229961
:1030F000FDF742FD00208DF88700002712AD1DE08E
:1031000000E06D1C28782028FBD028780928F8D00A
:10311000287800B916E00AA840F8275000E06D1C96
:10312000287828B12878202802D028780928F6D1D4
:10313000287810B1002028706D1C7F1C287808B1F9
:10314000082FDDDB00BF002413E00AA850F824009C
:10315000019009E001990878FDF76AF9C1B2019878
:1031600001700198401C0190019800780028F1D16D
:10317000641CBC42E9DB002009900890079080465F
:10318000002425E00AA951F8240075A101F0CAFC29
:1031900020B10120099008F1010818E00AA951F8AE
:1031A000240071A101F0BEFC20B10120089008F1BB
:1031B00001080CE00AA951F824006DA101F0B2FC4D
:1031C00020B10120079008F1010800E000BF641C55
:1031D000BC42D7DBB8F1000F05D167A002F030F890
:1031E00023B0BDE8F08F4FF0FF39CA46CB4600262A
:1031F000654B0FCBCDE90523CDE90301002439E070
:103200000AA951F8240056A101F08CFC00B130E06D
:103210000AA951F8240054A101F084FC00B128E06F
:103220000AA951F8240052A101F07CFC00B120E071
:10323000FDF7F6F800680AA951F824100978405CF7
:10324000202809D00AA850F8240000782D2803D09F
:1032500049A001F0F5FFC3E7042E09DA0AA951F8E5
:103260002400FDF767FB3146761C03AA42F82100D3
:1032700000BF641CBC42C3DB0026099830B1042E99
:1032800004DA3046761C03A951F82090089830B132
:10329000042E04DA3046761C03A951F820A00798C2
:1032A00030B1042E04DA3046761C03A951F820B060
:1032B00000200290B9F1000F0FDBB9F5FD6F03DDBF
:1032C00040F63300814503DD30A001F0B9FF87E708
:1032D0003249A1F8009001200290BAF1000F0EDBF4
:1032E000BAF1010F02DBBAF10C0F03DD27A001F0E8
:1032F000A7FF75E72A4981F800A001200290BBF1E1
:10330000000F0EDBBBF1010F02DBBBF11F0F03DD72
:103310001EA001F095FF63E7224981F800B001206B
:1033200002901F4801781D48008800F021FE1D49C9
:103330000978884207DA1A4801781848008800F0AE
:1033400017FE18490870029828B101F085FF16A0F1
:1033500001F076FF02E008A001F072FF00BF3FE736
:1033600059454152000000004D4F4E5448000000A6
:1033700044415445000000004552524F52205359D9
:103380004E5441580D0A0000105700004552524F4C
:10339000522052414E47450D0A00000070000020A7
:1033A00072000020730000204F4B0D0A0000000047
:1033B0007FB50546102229466846FDF7DDFB002053
:1033C0008DF80F006C4600E0641C20782028FBD0AC
:1033D00020780928F8D004E02078FDF729F820703B
:1033E000641C20780028F7D16C4600E0641C20782B
:1033F0002028FBD020780928F8D011A12046FDF71D
:10340000E7FB58B901200F49087000200E490870E9
:1034100001F022FF0DA001F013FF10E00DA12046E6
:10342000FDF7D6FB40B900200649087001F014FFF3
:1034300006A001F005FF02E007A001F001FF7FBD3B
:103440004F4E0000B5000020D30000204F4B0D0A66
:10345000000000004F4646004552524F5220504156
:1034600052414D0D0A0000007FB505461022294645
:103470006846FDF781FB00208DF80F006C4600E0E8
:10348000641C20782028FBD020780928F8D004E09C
:103490002078FCF7CDFF2070641C20780028F7D13D
:1034A0006C4600E0641C20782028FBD02078092896
:1034B000F8D012A12046FDF78BFB50B9002011492E
:1034C00008701149087001F0C7FE10A001F0B8FEA5
:1034D00013E010A12046FDF77BFB58B901200949F4
:1034E000087000200849087001F0B6FE07A001F03E
:1034F000A7FE02E009A001F0A3FE7FBD4C454654A3
:1035000000000000D1000020D40000204F4B0D0A25
:103510000000000052494748540000004552524FF5
:103520005220504152414D0D0A0000007FB5064621
:10353000102231466846FDF71FFB00208DF80F0072
:103540006C4600E0641C20782028FBD020780928F5
:10355000F8D004E02078FCF76BFF2070641C207822
:103560000028F7D16C4600E0641C20782028FBD0AE
:1035700020780928F8D04FF0FF352DA12046FDF71F
:1035800027FB08B901253DE02BA12046FDF720FBD4
:1035900008B9022536E02AA12046FDF719FB08B933
:1035A00000252FE027A12046FDF712FB08B90425CE
:1035B00028E026A12046FDF70BFB08B9062521E0EF
:1035C00024A12046FDF704FB08B903251AE023A136
:1035D0002046FDF7FDFA08B9052513E021A1204694
:1035E000FDF7F6FA08B907250CE01FA12046FDF704
:1035F000EFFA08B9082505E01DA12046FDF7E8FA15
:1036000000B90925002D03DA1BA001F019FE7FBDCA
:1036100001201D490870E8B2002100F0D5FC00200F
:103620001949087019A001F00BFE00BFEFE7000078
:1036300046554E43000000005348494654000000E0
:103640004144440053415645000000004449535052
:10365000000000005350454544000000464F524DC5
:103660004154000045585400555345523100000064
:1036700055534552320000004552524F522050419E
:1036800052414D0D0A000000F50000204F4B0D0A7D
:1036900000000000FEB50646344600E0641C2078B9
:1036A0002028FBD020780928F8D0207818B929A044
:1036B00001F0C6FDFEBD00200290207808B1207800
:1036C00000E030208DF80800607808B1607800E0F4
:1036D00030208DF8090001AA22A102A8FDF766F8A2
:1036E00001280AD001AA20A12046FDF75FF8012891
:1036F00003D018A001F0A4FDDCE70198C5B235B9EC
:1037000000201A49087001201949087004E00120BE
:103710001649087016480570FEF7D7FC0020009087
:1037200000BF1448FEF75CF928B10098401C12490C
:1037300000908842F5D30E480078C043C2B2012100
:103740001820FEF7E7F8FEF7C7FC0CA001F078FDA3
:1037500000BFAFE74552524F5220504152414D0DEC
:103760000A0000002532780025780000DA000020E9
:10377000D900002000000240A08601004F4B0D0A36
:10378000000000007FB50546102229466846FDF777
:10379000F3F900208DF80F006C4600E0641C2078DF
:1037A0002028FBD020780928F8D004E02078FCF706
:1037B0003FFE2070641C20780028F7D16C4600E0A2
:1037C000641C20782028FBD020780928F8D017A185
:1037D0002046FDF7FDF968B9002015490870154924
:1037E000087001F039FD11A001F014FD12A001F0E4
:1037F00027FD1AE012A12046FDF7EAF920B112A137
:103800002046FDF7E5F968B9012009490870094922
:10381000087001F021FD0AA001F0FCFC06A001F0F7
:103820000FFD02E009A001F00BFD7FBD44415900EE
:10383000EE000020B20000204F4B0D0A00000000F7
:103840004E494748540000004E4947004552524FE8
:103850005220504152414D0D0A00000070B50646FD
:10386000344600E0641C20782028FBD0207809280A
:10387000F8D02046FDF775F8C5B2202D00DD2025D3
:103880001DB911A001F0DCFC70BD21211248FDF72B
:1038900051F92A4621461048FDF7CDF80F4805702A
:1038A00000200F49087001200E49087000200E49C1
:1038B00008700E4908700E49087001F0CDFC0DA08B
:1038C00001F0BEFC00BFDFE74552524F5220535972
:1038D0004E5441580D0A00004D010020D500002033
:1038E000D4000020D3000020D6000020D700002004
:1038F000D80000204F4B0D0A000000002DE9F14FC9
:1039000098B0402208A81899FDF736F900208DF8E4
:103910005F00002608AD1CE000E06D1C2878202820
:10392000FBD028780928F8D0287800B915E04DF8A0
:10393000265000E06D1C287828B12878202802D075
:1039400028780928F6D1287810B1002028706D1C3D
:10395000761C287808B1082EDEDB00BF00240FE0BB
:103960005DF8249007E099F80000FCF761FD89F804
:10397000000009F1010999F800000028F3D1641C46
:10398000B442EDDB002411E05DF8240047A101F012
:10399000C9F850B100204649087001F05DFC45A00F
:1039A00001F04EFC19B0BDE8F08F641CB442EBDBB3
:1039B0004FF0FF37B846BA46002437E05DF82400E0
:1039C0003EA101F0AFF800B12FE05DF824003DA169
:1039D00001F0A8F800B128E05DF824003BA101F057
:1039E000A1F800B121E0FCF71BFD00685DF8241090
:1039F0000978405C202808D05DF8240000782D2844
:103A000003D034A001F01CFCCCE75DF82400FCF7E7
:103A100091FF8146002F01DA4F4605E0B8F1000F13
:103A200001DAC84600E0CA4600BF641CB442C5DBE8
:103A30004FF0000B002F09DB172F03DD29A001F049
:103A4000FFFBAFE72B490F704FF0010BB8F1000FF0
:103A50000EDBB8F13B0F03DD22A001F0F1FBA1E783
:103A6000254981F800800020244908704FF0010B9F
:103A7000BAF1000F0BDBBAF13B0F03DD19A001F027
:103A8000DFFB8FE71D4981F800A04FF0010BBBF170
:103A9000000F05D001F0E0FB06A001F0D1FB02E031
:103AA0000CA001F0CDFB00BF7CE700004F464600B4
:103AB000B50000204F4B0D0A00000000484F555242
:103AC000000000004D494E75746500005345436F7A
:103AD0006E6400004552524F522053594E54415883
:103AE0000D0A00004552524F522052414E47450D9B
:103AF0000A0000006C0000206D0000206E00002015
:103B00002DE9FC4107463C4600E0641C2078202853
:103B1000FBD020780928F8D0207820B93BA001F00C
:103B20008FFBBDE8FC812046FCF704FF054615F13C
:103B3000280F01DB322D03DD38A001F081FBF0E717
:103B400068B23A49087000E0641C207810B120780F
:103B50002028F9D100E0641C20782028FBD02078B0
:103B60000928F8D0042221466846FDF705F8002010
:103B70008DF804006E4604E03078FCF759FC307094
:103B8000761C30780028F7D129A1684600F0CAFFDA
:103B900018B101202749087030E027A1684600F0DD
:103BA000C1FF18B102202349087027E023A168460D
:103BB00000F0B8FF18B103201E4908701EE020A1D4
:103BC000684600F0AFFF18B104201A49087015E0EC
:103BD0001CA1684600F0A6FF18B105201549087021
:103BE0000CE019A1684600F09DFF18B106201149AC
:103BF000087003E005A001F023FB92E700201349C1
:103C0000087013A001F01CFB00BF8AE74552524F19
:103C10005220504152414D0D0A0000004552524F72
:103C2000522052414E47450D0A000000DF0000209F
:103C300053554E00E0000020434C44004F564300D3
:103C400052414900534E4F00464F4700E1000020CB
:103C50004F4B0D0A0000000010B5044624480078C0
:103C600024490870244800782449087024480078C2
:103C70002449087024480088244908802448007892
:103C800024490870244800782449087024480078A2
:103C9000401E2449085C2449087021480078401ED1
:103CA0002249085C224908701D480078401E2149BD
:103CB000085C214908701A480078401E012101FA69
:103CC00000F01E490978084008B1012000E00020FA
:103CD0001B4908701B48047000201B4908701B49D1
:103CE00008801B4908701B49087001F0B5FA10BD27
:103CF0006C000020F80000206D000020F90000207A
:103D00006E000020FA00002070000020FC0000205F
:103D100072000020FE00002073000020FF00002041
:103D20007400002098000020000100209F00002067
:103D300001010020A600002002010020AD000020AB
:103D400003010020E8000020E9000020EA00002034
:103D5000EC000020ED00002010B586B00446002CD9
:103D600048D050480078002844D04E4800780128B8
:103D70000FD14D48007800904C4803784C48028899
:103D80004CA102A8FCF764FB02A94EA001F0F4F9D3
:103D90002FE04448007802280FD14C48007800906A
:103DA0004B4803784B4802784BA102A8FCF750FB24
:103DB00002A94DA001F0E0F91BE03A480078032881
:103DC00017D14B480078401E4A49085C009048488B
:103DD0000078401E48490B5C45480078401E474922
:103DE0000A5C3DA102A8FCF733FB02A944A001F044
:103DF000C3F949E02B480078002845D042480078B4
:103E000034490870414800783149087040480078CA
:103E10002E4908703F480088254908803E480078B0
:103E2000224908703D4800781F4908703C480178D5
:103E30002F480078401E314A11543A4801782C48E6
:103E40000078401E2C4A11543748017828480078E1
:103E5000401E284A11543548007858B1244800784B
:103E6000401E012101FA00F0314909780843304928
:103E7000087009E01E480078401E012181402C484E
:103E8000007888432A4908700020064908702949AB
:103E90000870294908802949087001F0DDF906B049
:103EA00010BD0000E8000020730000207200002018
:103EB00070000020253034642E253032642E2530E9
:103EC0003264000044415445000000006E000020B0
:103ED0006D0000206C000020253032642E25303229
:103EE000642E25303264000054494D450000000026
:103EF00074000020A60000209F00002098000020F1
:103F0000414C41524D000000F8000020F900002013
:103F1000FA000020FC000020FE000020FF0000202E
:103F20000001002001010020020100200301002007
:103F3000AD000020E9000020EA000020EC00002095
:103F400010B50948007800B910BD08480088401C29
:103F50000649088008460088B0F5FA7F02DB002099
:103F6000FFF7FAFE00BFEFE7E8000020EA000020BC
:103F700030B505460C46022C05D1284600F00AF85B
:103F800008B11D2030BD601E0149085CFAE7000041
:103F9000E856000001460A46C81701EB90708010F1
:103FA000A1EB800028B9642091FBF0F300FB131013
:103FB00030B94FF4C87091FBF0F300FB131008B94F
:103FC000012070470020FCE770B590B004460D4614
:103FD000E148007810B9204601F0E8F80A2C6ED2CA
:103FE000DFE804F005CFF3F2F1F0EFEEEDECDB48A3
:103FF0000078002874D00020D9490880D74800787C
:10400000012839D1D748007878B9D7480088401CB2
:10401000D54908800846008840F63301884203DD10
:1040200040F2E970D0490880A8E0CE480078012825
:104030000BD1CE480078401CCC4908700846007867
:104040000C28F1DD0120087098E0C64800780228AD
:10405000EAD1C7480078401CC5490870C3480178B8
:10406000C1480088FFF784FFC14909788842DBDA3C
:104070000120BF49087081E0B8480078022830D19B
:10408000B848007858B9BB480078401CB949087056
:1040900008460078172871DD002008706EE0B148EE
:1040A000007801280CD1B4480078401CB24908704F
:1040B000084600783B2861DD002008705EE048E19A
:1040C000A8480078022859D1AC480078401CAB4978
:1040D0000870084600783B2850DD002008704DE04D
:1040E0004EE09E480078032848D19E480078A0B949
:1040F000A3490978491EA34A88180178491C017010
:104100009F480078401E1146085C172836DD0021C4
:104110009B480078401E115430E0924800780128F6
:1041200014D197490978491E974A88180178491C83
:10413000017093480078401E1146085C3B281DDD45
:1041400000218F480078401E115417E08548007800
:10415000022813D18A490978491E8C4A88180178A7
:10416000491C017086480078401E1146085C3B28B7
:1041700004DD002182480078401E115401F06CF8E3
:10418000E7E08348007810B1FEF742FAE1E035B18C
:104190007248007808B30120FFF7DEFD21E06F4888
:1041A000007818B90120FFF757FD1AE06B48007836
:1041B00001280BD10220FFF74FFD12E090E088E0CC
:1041C0004DE03BE02CE027E01DE00BE06348007889
:1041D000022803D10320FFF73FFD02E00120FFF793
:1041E0003BFDB6E05D48007860B100205C49088086
:1041F0005C480078401C032190FBF1F201FB1200A7
:1042000058490870A5E06348007808B9012000E02B
:104210000020604908709CE00120FFF79DFD98E0B8
:104220005D48007808B9012000E000205A49087074
:1042300000205A49087001F00FF88AE058480078C9
:10424000401C5749087008460078022801DD00200C
:10425000087000205349087000F0FEFF79E04848DC
:104260000078401E012101FA00F04F49097808400A
:1042700050B143480078401E012181404A480078EF
:104280008843494908700AE03D480078401E0121F2
:1042900001FA00F044490978084343490870384856
:1042A0000078401E012101FA00F03F4909780840DA
:1042B00018B13EA000F0C4FF07E0002034490870A8
:1042C000FEF7BEF93EA000F0BBFF03204249087094
:1042D0003FE02148007810B9082000F067FF38E07F
:1042E0003E4890F90000633048B31C223C496846C0
:1042F000FCF7E6FB3B480078062804DC39490978DE
:104300005DF8210000E038A00646344890F900002E
:10431000002808DB3346314890F9002033A107A874
:10432000FCF796F807E033462C4890F9002032A1BC
:1043300007A8FCF78DF807A8FFF790FA02E030A075
:10434000FFF78CFA0448007810B9092000F02EFF1E
:1043500000BF00BF10B070BDF5000020E8000020D5
:10436000EA000020E9000020700000207200002018
:10437000730000206C0000206D0000206E00002003
:1043800074000020980000209F000020A60000205C
:10439000AE000020D2000020D1000020D400002078
:1043A000B4000020D3000020AD0000202A45565460
:1043B0003A414C41524D3A534554204F4E0D0A005C
:1043C0002A4556543A414C41524D3A534554204F98
:1043D00046460D0A00000000DB000020DF00002040
:1043E000F4560000E00000202D2D2D002532642021
:1043F000432025730000000025336443202573000B
:104400002D2D2043202D2D2D000000002DE9F843F7
:10441000FDF75BFE0020009000BF4848FDF7E0FA82
:1044200028B10098401C464900908842F5D30021ED
:104430002220FDF709FA0646FDF74EFE032141480A
:10444000FDF7B6F9C7B2F043C5B207F0010008B9ED
:1044500045F4807507F0020008B945F400753A4844
:10446000007898B1012020EA5608B8F1000F09D071
:104470003648007830B9FEF7CBF801203349087090
:10448000BDE8F883314880F80080F9E7002450E067
:1044900045FA04F000F00108B8F1000F1FD02C48D5
:1044A00030F81400032806DA294830F81400401CBC
:1044B000274921F81400264830F81400022824D196
:1044C0002448005D08BB01202249085500202249EC
:1044D00021F81400E0B20021FFF776FD15E01C483A
:1044E00030F81400002806DD194830F81400401E8A
:1044F000174921F81400164830F8140028B9154857
:10450000005D10B10020134908551248005D78B1D4
:10451000114830F81400401C0F4921F814000846D7
:1045200030F81400642803D1E0B20121FFF74CFDFC
:10453000641C0A2CACDB00BFA2E7000000000240B4
:10454000A086010000D00340AE000020040100203E
:104550006E010020960100208201002038B56248DB
:104560000078C8B1FDF7B1FD0020009000BF5F48A2
:10457000FDF736FA28B10098401C5D49009088424A
:10458000F5D35C480078C043C2B201211820FDF782
:10459000C1F9FDF7A1FD38BD5648047856480078AA
:1045A00005280ADB00205449087004F0010010B10E
:1045B00024F0010401E044F0010450480078002890
:1045C00007DD4E480078401E4C49087044F008044E
:1045D00001E024F008044A480078002807DD484834
:1045E0000078401E4649087044F0100401E024F0B1
:1045F00010044448007810B104F0010451E042482E
:10460000007840B14148007810B144F0020411E054
:1046100024F002040EE03E480078401E012101FA19
:1046200000F03C490978084010B144F0020401E070
:1046300024F002043848007810B144F0040401E08A
:1046400024F0040435480078002806DD44F0040412
:1046500032480078401E31490870314800780128FE
:1046600007D1304890F90000633010B144F02004C5
:104670000DE02B480078042807DB2A4890F9000059
:10468000633010B144F0400401E024F06004254898
:1046900090F900001E2802DB44F0800401E024F0C1
:1046A000800421480078012801D144F01004114809
:1046B0000470FDF70AFD0020009000BF0B48FDF7D5
:1046C0008FF928B10098401C094900908842F5D321
:1046D00008480078C043C2B201211820FDF71AF93A
:1046E000FDF7FAFC00BF56E7DA00002000000240A8
:1046F000A0860100D9000020DC000020DD000020A1
:10470000DE000020EE000020AE000020B3000020FC
:1047100074000020AD000020E8000020DB00002035
:10472000E0000020DF000020E200002008B5CC49B6
:10473000CC48FDF723FBCC490860084600684FF4DD
:104740007A71B0FBF1F42046FDF7CDFCFDF7B6FC25
:10475000FDF7C2FCFDF7EEF9FDF736FAFDF77AFA40
:10476000FCF70AFE1520FDF787F95021BF48FDF739
:104770008BFEFDF7B3F9FDF7C7F9BD4908600720C7
:10478000FDF7B4F900211520FDF7C0F9E0210F2055
:10479000FDF7BCF9FCF720FE00F05EFD0120B549F5
:1047A0000870FDF792FCB3480078C043C2B2012103
:1047B0001820FDF7AFF8FDF78FFC002008E0062178
:1047C000AD4A11540021AD4A1154AD4A1154401C58
:1047D0000728F4DB1F21AB4A117000200090AA4982
:1047E00008703CE1A948007870B30020A749087020
:1047F000BDF80000401C80B200901E2817DB00208E
:104800000090A348007828B101221146A148FDF785
:1048100018F804E0002201219E48FDF712F89C4898
:10482000007808B9012000E0002099490870FFF7DE
:10483000EDFDFFF785FB9848007828B103209749E4
:1048400008700020944908709548007800287DD0B1
:1048500000209349087093480078401C91490870E3
:104860009148007890B191480078401C8F490870B9
:1048700008460078022809DB002008708C48007880
:1048800008B9012000E0002089490870FFF766FEA2
:1048900088480078A0B188480078401C8649087094
:1048A0000846007803280BDB002008708348007856
:1048B00008B9012000E000208049087000F0CCFC1D
:1048C0007F480078002872D07E480078082818DCDD
:1048D0007D480078401C7C490870084600781928FB
:1048E00065DB0020764908707649087076490870C3
:1048F0007649087021217648FCF71CF900F0ACFCE1
:1049000055E061480078401C5F49087071480078A4
:1049100008B1022000E0052004465B480078A04270
:1049200044DB0020584908706B480078B0B96748EC
:104930000078401C65490870084601786148007895
:10494000083081421DDB0020604900E079E00870FA
:1049500062480078401C6149087012E05B480078AA
:1049600050B958480078C01D584908705B48007815
:10497000401C5A49087004E054480078401E5349CE
:1049800008705648007801280EDB00204C4908705A
:104990004C490870514908704C4908703A490870F0
:1049A00021214B48FCF7C6F800F056FC00BF4C48EC
:1049B0000078401CC0B24A4908700A282BDB00204E
:1049C000087000F017FE00F047FC46480068401CE5
:1049D0004449086000F094FB00F004FC424890F960
:1049E0000000633040B141480078FF2804DA3F48B6
:1049F0000078401C3D4908703D48007801280AD1E4
:104A0000384800683B490968401A3B49884202D946
:104A1000022037490870FDF757FD3848007880B10B
:104A200037480078002804DD35480078401E3449B6
:104A300008703348007820B9FDF702FE00202F49A6
:104A400008703048007808B100F0A4F82E480078CB
:104A500028B100202C4908702CA0FDF71FFDC1E6ED
:104A6000002D3101800600F14800002000C0004008
:104A70004C000020D9000020980000209F0000205A
:104A8000A6000020AD000020D6000020400000203D
:104A90004500002000500240F4000020DD0000200E
:104AA00041000020DC000020AE00002005010020B5
:104AB000B3000020E8000020ED000020EC00002002
:104AC000D3000020D5000020D8000020D400002012
:104AD0004D010020D2000020D1000020D70000208E
:104AE000B6000020F0000020DF000020E1000020E0
:104AF000E2000020E400002080510100F7000020C7
:104B0000F6000020580000205A0000204552524F65
:104B100052204C494E4520544F4F204C4F4E470D8C
:104B20000A0000002DE9F04707460D463846FBF71E
:104B300018FF064600240CE0385DFBF779FC81463F
:104B4000285DFBF775FC814502D00020BDE8F087A9
:104B5000641CB44202DA285D0028EDD1B44201DAC7
:104B60000020F3E74FF0000800240AE0FBF758FCB0
:104B70000068295D405C00F0100008B104F10108F4
:104B8000641C285D0028F1D1464501DB0120DDE7EA
:104B90000020DBE72DE9F04F8DB05021F648FDF7FE
:104BA0006EFC4022F549F648FBF7E6FF0020F44989
:104BB00081F83F004121F148FBF7BCFF0020F1499B
:104BC0000860F14908705021EB48FDF75DFCEC4CA2
:104BD00000E0641C20782028FBD020780928F8D039
:104BE00020780D28F5D020780A28F2D02046FBF74F
:104BF000B8FE804604E00021A8F10100804621545F
:104C0000B8F1000F13DDA8F10100205C2028F2D0DC
:104C1000A8F10100205C0928EDD0A8F10100205C7A
:104C20000D28E8D0A8F10100205C0A28E3D0207804
:104C300010B90DB0BDE8F08F0322D4A12046FBF7D8
:104C4000AFFE18BB002704E0E05DFBF7F1FBE05589
:104C50007F1CE05D0028F7D1CDA12046FBF7B8FF0F
:104C600038B9CE48006800F0EBFACDA000F0E8FAC1
:104C70000BE0CCA12046FBF7ABFF30B9CD48006874
:104C800000F0DEFAC6A000F0DBFAD2E7A14600E0B1
:104C9000641C207828B12078202802D020780928A8
:104CA000F6D120780C90002020700C9808B920468E
:104CB00000E0601C054600E06D1C28782028FBD031
:104CC00028780928F8D099F800002A2838D13A2104
:104CD0004846FBF73CFE90BB28783A2830D105F1D6
:104CE000010A01E00AF1010A9AF800002028F9D02F
:104CF0009AF800000928F5D0574600E07F1C387864
:104D000028B13878202802D038780928F6D197F8C9
:104D100000B0002038704B46A7A22021A848CDF84B
:104D200000A0FBF7ABFB87F800B03D4600E06D1C30
:104D300028782028FBD028780928F8D008E0FFE759
:104D4000202249469E48FBF717FF00209C49C87760
:104D5000002706E09A49C85DFBF76AFB9849C855E9
:104D60007F1C9748C05D0028F4D140222946954811
:104D7000FBF702FF0020934981F83F00904E304638
:104D8000FBF7EFFD04280DDB3046FBF7EAFD074695
:104D90003A468DA13046FBF703FE18B92846FDF7C9
:104DA00075FE80E13046FBF7DCFD08280DDB304660
:104DB000FBF7D7FD07463A4685A13046FBF7F0FDE5
:104DC00018B92846FEF78EF96DE13046FBF7C9FDAC
:104DD00008280DDB3046FBF7C4FD07463A467FA1A5
:104DE0003046FBF7DDFD18B92846FEF787FD5AE18E
:104DF0003046FBF7B6FD09280DDB3046FBF7B1FD69
:104E000007463A4678A13046FBF7CAFD18B928464E
:104E1000FEF7CEFA47E13046FBF7A3FD09280DDB8C
:104E20003046FBF79EFD07463A4673A13046FBF736
:104E3000B7FD18B92846FEF717FB34E13046FBF7FB
:104E400090FD07280DDB3046FBF78BFD07463A4601
:104E50006CA13046FBF7A4FD18B95A48FEF7FEFCDA
:104E600021E13046FBF77DFD08280DDB3046FBF7DE
:104E700078FD07463A4666A13046FBF791FD18B922
:104E80002846FEF7E5F80EE13046FBF76AFD0728F5
:104E90000DDB3046FBF765FD07463A465FA130461D
:104EA000FBF77EFD18B92846FEF7F4FBFBE0304621
:104EB000FBF757FD07280DDB3046FBF752FD074691
:104EC0003A4659A13046FBF76BFD18B92846FEF764
:104ED0002DFBE8E03046FBF744FD08280DDB3046AB
:104EE000FBF73FFD07463A4652A13046FBF758FD17
:104EF00018B92846FEF746FCD5E03046FBF731FDF1
:104F000009280DDB3046FBF72CFD07463A464CA13D
:104F10003046FBF745FD18B92846FDF7B1FEC2E063
:104F20003046FBF71EFD07280DDB3046FBF719FD69
:104F300007463A4645A13046FBF732FD18B92846E8
:104F4000FEF7DEFDAFE0042243A13046FBF728FD6B
:104F500088B93046FBF705FD0C280CDC2F4630796C
:104F60003A2803D1707908B1771D7DE030793A286D
:104F700077D12F4678E07BE000C000400C01002094
:104F8000A0010020540000205800002041542B00B4
:104F900041542B434C415353230000006400002034
:104FA0000D0A000041542B53545544454E54434F71
:104FB000444523006800002025733A257300000053
:104FC000E0010020000200202A525354000000009B
:104FD0002A5345543A444154450000002A5345544D
:104FE0003A54494D450000002A5345543A44495328
:104FF000504C4159000000002A5345543A464F5244
:105000004D4154002A5345543A4D53470000000087
:105010002A5345543A424545500000002A5345540E
:105020003A4C4544000000002A5345543A4B455938
:10503000000000002A5345543A4D4F4445000000FB
:105040002A5345543A414C41524D00002A5345548D
:105050003A574541000000002A474554000000002F
:10506000FFE7307900B1371D3846FDF70BFB1AE03A
:105070003046FBF776FC05280CDB3046FBF771FC6D
:1050800007463A4609A13046FBF78AFC10B9FDF7FE
:10509000E7FC08E0324607A16846FBF7D9F9684605
:1050A00000F0CEF800BF00BFC3E500002A50494E13
:1050B000470000004552524F5220272573270D0A02
:1050C0000000000010B504461CB104A000F0B8F8C0
:1050D00002E006A000F0B4F810BD00002A455654C6
:1050E0003A414C41524D0D0A000000002A455654E9
:1050F0003A414C41524D5F4F46460D0A00000000B8
:1051000030B593B00025002409E01448005D28B1B3
:10511000C4F10701012088402843C5B2641C082C53
:10512000F3DB00240AE00E48005D202801D15F2057
:1051300001E00B48005D0DF80400641C082CF2DB54
:1051400000208DF808002B466A4606A103A8FBF74D
:105150007FF903A800F074F813B030BDBF00002041
:10516000C70000202A4556543A444953502025731D
:1051700020253032580D0A0030B591B004460D4656
:105180002B46224604A101A8FBF762F901A800F012
:1051900057F811B030BD00002A4556543A454449ED
:1051A000542025732025730D0A00000010B588B027
:1051B00004460A2C09DA064850F8242005A168465E
:1051C000FBF746F9684600F03BF808B010BD000058
:1051D000000000202A4556543A4B45592025730DAE
:1051E0000A00000000B589B00548027805A101A8B1
:1051F000FBF72EF901A800F023F809B000BD00006C
:10520000D90000202A4556543A4C454420253032D6
:10521000580D0A0010B588B00446224604A168461D
:10522000FBF716F9684600F00BF808B010BD000057
:105230002A4556543A4D4F44452025730D0A000027
:1052400010B504462046FDF729F9012001490870F0
:1052500010BD0000F400002030B589B0BEA207CA1E
:1052600006AB07C3BF48007870B9002408E00020EF
:10527000BD490855BD4908552020BD490855641C45
:10528000082CF4DB09B030BDBA48007878B1BA48D0
:105290000378BA480278BAA106A8FBF7D9F8B34850
:1052A0000021016041600120B0494870C9E0B84860
:1052B0000078A8B3B7480078002832DDB6490878EE
:1052C000002426E00119B34A1278914205DA011947
:1052D000B24A515C06AA11551AE00219AD49097883
:1052E00008318A4203DA202106AA115510E002197A
:1052F000A84B1B78D21A083AA64B1B7892FBF3F501
:1053000003FB1522D1B2A54A525C06AB1A5500BF69
:10531000641C082CD6DB954900220A604A6090E0A4
:10532000FFE79F480078002848D09048002101609E
:1053300041609B48007801280FD19A48007800907E
:10534000994803789948028899A106A8FBF780F844
:1053500001208649C870487173E09148007802289E
:105360000FD19748007800908348037883480278EB
:1053700094A106A8FBF76CF801207C494870C8701E
:105380005FE08748007803285BD192480078401E90
:105390009149085C00908F480078401E8F490B5C53
:1053A0008C480078401E8E490A5C86A106A8FBF74F
:1053B0004FF801206D494870C87042E06B480021E9
:1053C000016041608748007820B1012812D002288E
:1053D00036D125E07A48007800906748037867481E
:1053E000027878A106A8FBF733F801205F494870DE
:1053F000C87025E06D480088642190FBF1F201FB44
:105400001205684800780090674803782A466DA125
:1054100006A8FBF71DF8012054494870C8700FE03A
:10542000604800780090604803786048028860A176
:1054300006A8FBF70DF801204C49C870487100BF61
:1054400000BF69480078012822D100200190029015
:10545000002406E0C4F1070006A9085C03A908556A
:10546000641C082CF6DB002406E0C4F106003F496A
:10547000085C01A90855641C072CF6DBDDE9030173
:10548000CDE906013948019901600299416000BFE8
:105490003748069901600799416041480078002823
:1054A00044D05248007888B33D48007801281AD18A
:1054B0004F4A127812B90020042108E04C4A1278B1
:1054C000012A02D10420022101E006200221044623
:1054D00003E0202206AB1A55641C4218A24201DDEB
:1054E000082CF6DB22E02E480078022803D02C4856
:1054F000007803281AD13E4A12780AB9002207E040
:105500003B4A1278012A02D1022201E00EE0042275
:1055100010460221044603E0202206AB1A55641C03
:105520004218A24201DD082CF6DB00BF00240FE088
:1055300006A9085DFBF7C2FF0B4908550B48005D43
:1055400028B100BF0846005D40F080000855641C8B
:10555000082CEDDB00BF95E6202020202020202015
:1055600000000000B5000020B7000020BF000020B0
:10557000C7000020EE0000206D0000206C0000201D
:1055800025303264253032642020202000000000C5
:10559000D3000020D5000020D40000204D010020C1
:1055A000E80000207300002072000020700000203E
:1055B0002530346425303264253032640000000028
:1055C0006E0000202530326425303264253032648C
:1055D0002020000074000020A60000209F00002072
:1055E00098000020B4000020D1000020EC00002032
:1055F000E900002000B527480078401C25490870C4
:10560000084600783C2844DB0020087022480078D7
:10561000401C21490870084600783C2839DB0020EE
:1056200008701E480078401C1C4908700846007825
:1056300018282EDB0020087019480078401C1849F3
:1056400008701848017818480088FEF791FC144942
:105650000978884212DA012011490870114800784F
:10566000401C10490870084600780C2806DD01200F
:1056700008700D480088401C0B4908800B480078D2
:10568000401C0A49087008460078072801DD0120FF
:10569000087000BD6E0000206D0000206C0000202E
:1056A00073000020720000207000002074000020B1
:1056B00010B500290AD00878002807D0054878449A
:1056C000FBF786FA002801D0002010BD024878447C
:1056D00010BD000002070000FA0600004FF0407005
:1056E000E1EE100A704700001F1C1F1E1F1E1F1F27
:1056F0001E1F1E1F005D0000505D0000305D000099
:105700001C5D0000445D0000545D0000405D000031
:10571000FFFFFFFFFFFFFFFFFFFFFFFFFFFFFFFF99
:105720000040004010000000008005401000000014
:1057300000500040110000000090054011000000E2
:10574000006000401200000000A0054012000000B0
:10575000007000401300000000B00540130000007E
:10576000004002401400000000C00540140000008A
:10577000005002402E00000000D005402E00000026
:10578000006002402F00000000E005402F000000F4
:10579000007002403000000000F0054030000000C2
:1057A00000D0034046000000000006404600000014
:1057B000001006404700000000200640480000009E
:1057C000003006407F0000000040064080000000DE
:1057D0000050064084000000006006408C0000007D
:1057E0000040004010000000008005401000000054
:1057F0000050004011000000009005401100000022
:10580000006000401200000000A0054012000000EF
:10581000007000401300000000B0054013000000BD
:10582000004002401400000000C0054014000000C9
:10583000005002402E00000000D005402E00000065
:10584000006002402F00000000E005402F00000033
:10585000007002403000000000F005403000000001
:1058600000D0034043000000000006404300000059
:1058700000100640440000000020064045000000E3
:10588000003006405800000000400640590000006B
:10589000005006405C00000000600640640000000C
:1058A000007006406C000000008006406D000000A3
:1058B000009006407F00000000400040008005404E
:1058C00000500040009005400060004000A00540EE
:1058D0000070004000B005400040024000C005409C
:1058E0000050024000D005400060024000E005404A
:1058F0000070024000F0054000D003400000064068
:10590000001006400010064000200640002006401F
:10591000003006400030064000400640004006408F
:1059200000500640005006400060064000600640FF
:10593000007006400070064000800640008006406F
:10594000009006400090064000070000000600009E
:105950000005000000040000000300000002000039
:1059600000010000000000000000000018ED00E051
:105970001CED00E020ED00E000E400E004E400E0C5
:1059800008E400E00CE400E010E400E014E400E0CF
:1059900018E400E01CE400E020E400E024E400E07F
:1059A00028E400E02CE400E030E400E034E400E02F
:1059B00038E400E03CE400E040E400E044E400E0DF
:1059C00048E400E04CE400E050E400E054E400E08F
:1059D00058E400E05CE400E060E400E064E400E03F
:1059E00068E400E06CE400E070E400E074E400E0EF
:1059F00078E400E07CE400E080E400E084E400E09F
:105A000088E400E000E100E004E100E008E100E0FB
:105A10000CE100E010E100E080E100E084E100E062
:105A200088E100E08CE100E090E100E000E200E0CD
:105A300004E200E008E200E00CE200E010E200E036
:105A400080E200E084E200E088E200E08CE200E036
:105A500090E200E000688909001C4E0E40420F00F1
:105A600000201C0080841E0000802500999E3600C6
:105A70000040380000093D0000803E0000004B005F
:105A8000404B4C0000204E00808D5B0000C05D004C
:105A90000080700000127A0000007D00809698005F
:105AA000001BB7000080BB00C0E8CE00647ADA00BB
:105AB0000024F4000000FA0080A81201002D31013A
:105AC00000366E0140787D014000000000000000BB
:105AD000000100003E00080000000000000100007E
