:020000040000FA
:10000000A0040020F5020000FD020000FF02000035
:1000100001030000030300000503000000000000CE
:1000200000000000000000000000000007030000C6
:1000300009030000000000000B0300002D21000058
:100040000F0300001103000013030000150300005C
:10005000170300001D2200001B0300001D03000009
:100060001F030000210300002303000025030000FC
:1000700027030000290300002B0300002D030000CC
:100080002F0300003103000033030000350300009C
:1000900037030000390300003B0300003D0300006C
:1000A0003F0300004103000043030000450300003C
:1000B00047030000490300004B0300004D0300000C
:1000C0004F030000510300005303000055030000DC
:1000D00057030000590300005B0300005D030000AC
:1000E0005F0300006103000063030000650300007C
:1000F00067030000690300006B0300006D0300004C
:100100006F0300007103000073030000750300001B
:1001100077030000790300007B0300007D030000EB
:100120007F030000810300008303000085030000BB
:1001300087030000890300008B0300008D0300008B
:100140008F0300009103000093030000AD03000043
:100150000000000000000000AF030000B103000039
:10016000B3030000B503000000000000B703000067
:10017000B9030000BB030000BD030000BF03000083
:10018000C1030000C3030000C5030000C703000053
:10019000C9030000CB030000CD030000CF03000023
:1001A000D1030000D3030000D5030000D7030000F3
:1001B000D9030000DB030000DD030000DF030000C3
:1001C000E1030000E3030000E5030000E703000093
:1001D000E9030000EB030000ED030000EF03000063
:1001E000F1030000F3030000F5030000F703000033
:1001F000F9030000FB030000FD030000FF03000003
:1002000000F002F800F053F80AA090E8000C8244D5
:100210008344AAF10107DA4501D100F048F8AFF2B2
:10022000090EBAE80F0013F0010F18BFFB1A43F0D4
:10023000010318476057000080570000103A24BFA0
:1002400078C878C1FAD8520724BF30C830C144BF3B
:1002500004680C607047000000230024002500267D
:10026000103A28BF78C1FBD8520728BF30C148BF19
:100270000B607047642900F06D81752900F06A8178
:10028000782900F0A381732900F07F850020704752
:100290001FB505F025F800F0DFFC04000020002168
:1002A00005F008F8401C60601FBD10B510BD01F0DE
:1002B0002CF81146FFF7ECFF04F070F801F04AF853
:1002C00003B4FFF7F2FF03BC01F04EF8EFF3108028
:1002D00072B67047EFF310807047EFF3108062B68C
:1002E000704730BF704780F311887047EFF311807B
:1002F000704700004548804745480047FEE7FEE755
:10030000FEE7FEE7FEE7FEE7FEE7FEE7FEE7FEE7C5
:10031000FEE7FEE7FEE7FEE7FEE7FEE7FEE7FEE7B5
:10032000FEE7FEE7FEE7FEE7FEE7FEE7FEE7FEE7A5
:10033000FEE7FEE7FEE7FEE7FEE7FEE7FEE7FEE795
:10034000FEE7FEE7FEE7FEE7FEE7FEE7FEE7FEE785
:10035000FEE7FEE7FEE7FEE7FEE7FEE7FEE7FEE775
:10036000FEE7FEE7FEE7FEE7FEE7FEE7FEE7FEE765
:10037000FEE7FEE7FEE7FEE7FEE7FEE7FEE7FEE755
:10038000FEE7FEE7FEE7FEE7FEE7FEE7FEE7FEE745
:10039000FEE7FEE7FEE7FEE7FEE7FEE7FEE7FEE735
:1003A000FEE7FEE7FEE7FEE7FEE7FEE7FEE7FEE725
:1003B000FEE7FEE7FEE7FEE7FEE7FEE7FEE7FEE715
:1003C000FEE7FEE7FEE7FEE7FEE7FEE7FEE7FEE705
:1003D000FEE7FEE7FEE7FEE7FEE7FEE7FEE7FEE7F5
:1003E000FEE7FEE7FEE7FEE7FEE7FEE7FEE7FEE7E5
:1003F000FEE7FEE7FEE7FEE7FEE7FEE7FEE7FEE7D5
:1004000004480549034A054B70470000FD210000E0
:1004100001020000A0020020A0040020A002002091
:1004200010B500F019FC001D10BD00BF894E000082
:1004300010B50446FFF7F4FF0068005D000704D51F
:10044000DF2C02D0A4F1200010BD204610BD00001A
:100450000FB41CB5084B06AA7B446946009005986A
:1004600000F061FC04460020694600F06FFC204665
:100470001CBC5DF814FB0000F10800000FB47CB553
:100480000C0009AA009001D02044401E084B7B4478
:1004900069460190089800F046FC05461CB1002012
:1004A000694600F053FC28467CBC5DF814FB000054
:1004B000C508000070B5044685690068C10601D50D
:1004C000302600E02026C00707D070BDD4E9012106
:1004D00030469047206A401C20626D1EF6D570BDE4
:1004E00070B5044685690078C00707D170BDD4E9AE
:1004F000012120209047206A401C20626D1EF6D505
:1005000070BD70B50C460546012A05D028788006D6
:1005100000D5EA69002302E0012305E05B1C934259
:1005200002D2E05C0028F9D1A869E618C01AA861D7
:10053000286A184428622846FFF7BCFF04E0D5E982
:10054000012114F8010B9047B442F8D32846FFF775
:10055000C7FF70BD2DE9F0410646002410687529DB
:10056000314616A510D0AFF30080002802DA4042D1
:1005700013A507E031688A0701D512A502E04907F3
:1005800004D511A5012401E0AFF3008000210A2267
:1005900006F1240709E0B0FBF2FCB0FBF2F302FB2A
:1005A0001C00303078541846491C0028F3D12346EB
:1005B0002A463046BDE8F04100F056BB000000007E
:1005C0002D0000002B0000002000000070B5044644
:1005D0000D4621461068AFF300802188090502D539
:1005E0000F4A7A4402E00E4A7A440E32002104F1A6
:1005F000240305E000F00F060009965D5E54491CD7
:100600000028F7D120780023000704D5702D02D0F0
:1006100009B1022311322046BDE8704000F024BB2E
:10062000B65200002DE9F05F894604464FF0000AFB
:10063000DFF874B1FB44C0F820A02046E168884789
:10064000002874D0252806D0D4E901219047206ADB
:10065000401C2062F1E700265F462046E16888479B
:100660002028054607DB312D05D2781910F8200C1B
:1006700008B10643F1E7B00701D526F00406C4F837
:100680001CA00027C4F818A02A2D09D0284601F084
:10069000ADFE38B304EB8708303DC8F8185019E0B8
:1006A00059F8041B204604EB87029161E1688847F2
:1006B000012F054618D1E069002820DA26F020062F
:1006C0001DE0D8F8180000EB800005EB4000303842
:1006D000C8F818002046E1688847054601F086FE04
:1006E0000028EED1012F0AD02E2D08D12046E16836
:1006F00088477F1C0546022F46F02006C4DBA06910
:10070000002803DA404246F00106A061F00701D05C
:1007100026F010066C2D0BD0682D09D04C2D39D049
:100720006A2D35D0742D35D07A2D33D016E038E0CF
:10073000E1682F4620468847B842054609D16C2F0C
:1007400026D04FF48060E16806432046884705467E
:1007500004E06C2F1AD04FF4807006430DB3A5F15E
:100760004100192802D8203546F400664A46294639
:10077000204626604E46FFF77DFD80B101280BD054
:10078000F61D26F0070000F1080956E74020E4E7CF
:100790008020D8E70020D6E706F104094DE7284677
:1007A00052E7206ABDE8F09F8C5200000FB400B5FC
:1007B0008DB010A9099000910B904FF0FF300A9076
:1007C00000200C90064878440690064878446A4613
:1007D00007900F9909A800F0F1FA0DB05DF814FB2D
:1007E000130600002B0600002DE9FF5F1D464FF0A9
:1007F000FF3B91464FF000085F46D5E90146A969E5
:1008000001987F1C8847296A824688470028F6D1CC
:10081000BAF1FF3F0CD0002E24F4C06419DD60064D
:1008200014D5BAF12B0F09D0BAF12D0F0ED103E078
:10083000584604B0BDE8F09F44F48064A96901986B
:100840007F1C8847761E8246002E02DDBAF1300FEB
:1008500003D0B9F1000F26D032E0A969761E0198C5
:100860007F1C44F400748847002E824605DDBAF1EF
:10087000780F06D0BAF1580F03D0B9F1000F10D09D
:100880001EE0B9F1000F02D0B9F1100F18D1A9691B
:10089000761E01987F1C24F400748847824610203D
:1008A00002E0082000E00A20814609E0A96908FB6F
:1008B0000908761E01987F1C44F40074884782461C
:1008C000002E05DD4946504600F063FA0028EDDAB7
:1008D000E96901988847A00502D46FF00100A8E7F4
:1008E000E00725D1600613D5600502D5C8F10000E8
:1008F00000E0404629680A1D2A600968220501D5E2
:10090000087015E0220701D5088011E008600FE0AB
:100910002868011D29600068210502D580F8008043
:1009200006E0210702D5A0F8008001E0C0F80080B1
:1009300038467EE770B5064600F092F90468054631
:1009400030460A22002100F069FA2C6070BD401E7A
:10095000CAB210F8011F8A4202D00029F9D1002042
:10096000704710B5431C02E010F8011B71B18107FC
:10097000FAD14FF0013202C88C1A8C4314EAC2112A
:10098000F9D0C01A0A0603D0C01E10BDC01A10BD8F
:100990000A0401D0801E10BD0902FCD0401E10BD0B
:1009A00040EA010370B59B072ED14FF00136042AAF
:1009B0002AD308C810C99D1B9D43121F15EAC615EE
:1009C00017D0D8B2E1B2401A50EA056110D198B2FE
:1009D000A1B2401A50EA05410AD123F07F4024F029
:1009E0007F41401A50EA052102D1180EA0EB146095
:1009F00070BDA342DBD018BA21BA884201D90120C8
:100A000070BD4FF0FF3070BD0AB9002070BD10F806
:100A1000013B11F8014B63B1A3420AD1521E08D029
:100A200010F8013B11F8014B1BB1A34201D1521E3A
:100A3000EDD1181B70BD032A40F2308010F0030C7A
:100A400000F0158011F8013BBCF1020F624498BF21
:100A500011F801CB00F8013B38BF11F8013BA2F1BE
:100A6000040298BF00F801CB38BF00F8013B11F039
:100A7000030300F02580083AC0F0088051F8043BD9
:100A8000083A51F804CBA0E80810F5E7121D5CBF46
:100A900051F8043B40F8043BAFF30080D20724BF79
:100AA00011F8013B11F801CB48BF11F8012B24BF0D
:100AB00000F8013B00F801CB48BF00F8012B70475C
:100AC00010B5203AC0F00B80B1E81850203AA0E8E9
:100AD0001850B1E81850A0E81850BFF4F5AF5FEA1D
:100AE000027C24BFB1E81850A0E8185044BF18C9D0
:100AF00018C0BDE810405FEA827C24BF51F8043B77
:100B000040F8043B08BF7047D20728BF31F8023BCA
:100B100048BF11F8012B28BF20F8023B48BF00F85E
:100B2000012B704702F0FF0343EA032242EA02422C
:100B300000F002B84FF000020429C0F0128010F05B
:100B4000030C00F0A581CCF1040CBCF1020F18BF1E
:100B500000F8012BA8BF20F8022BA1EB0C0100F03C
:100B600097B95FEAC17C24BF00F8012B00F8012B84
:100B700048BF00F8012B704710B5044610F0030F72
:100B800008BF11F0030F40F015804FF0013E121F17
:100B9000C0F20E8051F8043BA3EB0E0C2CEA030CC0
:100BA0001CEACE1C08BF40F8043BF0D0A1F10401C0
:100BB00002F10402521E08DB11F8013B002B00F881
:100BC000013BF7D11146FFF7B5FF204610BD0000ED
:100BD0004FF0013C50F8042B51F8043B9A4221D1CC
:100BE000A2EB0C03934313EACC1317D150F8042B58
:100BF00051F8043B9A4215D1A2EB0C03934313EA3C
:100C0000CC130BD150F8042B51F8043B9A4209D174
:100C1000A2EB0C03934313EACC13DBD04FF000009C
:100C2000704700BFD01A01BAB1FA81F101F0180182
:100C300022FA01F0CB40C1F12001DBB2C0B2C01AF0
:100C40002CFA01F3D11A914311EAC311E6D170478E
:100C500070477047704700000048704760020020EE
:100C600000487047400200202DE9F0470D469946A4
:100C70009246044600F124080168880604D5E0691C
:100C800021F01001216000E00120A84201DD471B96
:100C900000E00027A1697A1902EB0900081AA06197
:100CA0002078C00602D42046FFF704FC002608E0A6
:100CB000D4E901211AF806009047206A401C761CEE
:100CC00020624E45F4DB2078C0060AD52046FFF7A7
:100CD000F1FB06E0D4E9012130209047206A401C56
:100CE0002062381EA7F10107F4DC07E0D4E90121F6
:100CF00018F805009047206A401C2062281EA5F1C4
:100D00000105F3DC2046FFF7EBFB2078000602D557
:100D10000220BDE8F0870120FBE7000001694A1CC2
:100D200002610878704700B58FB0CDE9013100212C
:100D3000059105497944CDE9031011466846FFF74E
:100D400071FC0FB000BD0000E5FFFFFF0A6802F86C
:100D5000010B0A607047D1E900239A4202D2531C6A
:100D60000B601070704710B5436913B1AFF300808A
:100D700001E0FFF7C6FB012010BD127800F124014D
:100D80000A7000224A700122EDE711684FF0FF322D
:100D9000E9E73A2800D2303820F02002412A01D376
:100DA000A2F13700884201D34FF0FF3070470000B6
:100DB000026811441378016018467047D1600549F4
:100DC000794451610449794411620021116111464D
:100DD00000F092B8EDFFFFFF1B010000426842B136
:100DE000016811F8013B23B1521EC0E900121846F8
:100DF00070470121C160881E704742685AB1C368BC
:100E0000016843B983688B4205D0491E521CC0E972
:100E10000012002070474FF0FF3070472DE9F04777
:100E200091460F4680460446002614F8015B2DB11A
:100E3000FFF7F6FA0068405DC007F6D12B2D02D00F
:100E40002D2D18D0641E4A463946204600F00EFA71
:100E500027B13968A14201D1C7F800804FF00204E0
:100E600071050BD54042002803DDFFF7F9FE046051
:100E7000A007BDE8F08746F48066E4E70028F8DACA
:100E8000FFF7EEFE04606FF00040F2E74FF0000263
:100E900000B5134694469646203922BFA0E80C5070
:100EA000A0E80C50B1F12001BFF4F7AF090728BF4B
:100EB000A0E80C5048BF0CC05DF804EB890028BFC7
:100EC00040F8042B08BF704748BF20F8022B11F0F0
:100ED000804F18BF00F8012B704700000048704792
:100EE0004002002010B50446FFF79AFA0068005D42
:100EF00000F0010010BD00002DE9F34F4FF0000A93
:100F00000C4656468DB001200C9001F10C000B9060
:100F100062690B9801219047051E2DD0252D2CD0FC
:100F2000216A8847C0B162690B9801219047216A04
:100F300088470028F7D16269411E0B98904700E06E
:100F4000761CA1690D988847216A88470028F7D147
:100F5000E1690D988847DBE7A1690D988847A842A9
:100F6000074601D1761CD3E7E1690D9888477F1CBD
:100F700002D1BAF1000F6FD06BE162690B980027C4
:100F80003D46394690472A2804D162690B980121D1
:100F900090470125DFF8D08262690B9801219047C4
:100FA000A0F130010A290AD24745E5DC07EB8701A9
:100FB00000EB4107303FDFD445F01005ECE7E906D0
:100FC00001D46FF000476C280AD04C2814D0682850
:100FD00015D06A280DD074281CD07A281AD01DE0AC
:100FE00062690B98012190476C2802D045F00405F6
:100FF00014E045F002050DE045F020050AE06269C5
:101000000B9801219047682802D045F0080505E0BB
:1010100045F4006562690B9801219047C4E90157C6
:1010200065283DD019DC58287AD00CDC452837D00B
:1010300004DC252826D041289ED131E046282FD037
:10104000472899D12CE05B2877D0612828D06328E5
:101050007CD0642823D15AE0F6E06F2848D008DC21
:1010600066281DD067281BD0692821D06E2816D18C
:1010700027E0702845D0732868D0752847D0782895
:101080000DD14DE0A1690D988847252805463FF40C
:1010900069AFE1690D9888476D1C3FF46AAFD8E0ED
:1010A0000D9923466A466FF00100AFF30080C5E05A
:1010B00045F0400023464FF000026060A80736D498
:1010C0003EE0E8077FF447AF2068011D216000681B
:1010D000290501D506701BE7290701D5068017E70A
:1010E000A90703D5F117C0E9006111E706600FE712
:1010F00045F0400023464FF008026060A80716D470
:101100001EE040F60E0125EA0100606016E045F0A1
:10111000400023464FF00A026060A80707D40FE0A2
:1011200045F040006060A80708D5234610220D99BD
:101130006FF00100AFF3008080E007E0102223464B
:101140000D996FF00100FFF74FFB77E04FF00009BA
:1011500063284F46C8464B46CB4602D05B2806D094
:1011600038E0E80601D40120A060012732E062697E
:10117000D4F80CB00B98012190475E2807D14FF0AE
:10118000010949466269D4F80CB00B98904721696F
:1011900039B900210A4603AB43F82120491C08292C
:1011A000FADBD8B3216949B308F1010862690B98E9
:1011B000012190475D28F4D1B9F1000F09D000203A
:1011C00003A951F82020D24341F82020401C0828D0
:1011D000F7DB03AB2069002820794FEA40701ED06E
:1011E0005B462246CDF80080CDE901970D99002895
:1011F0006FF0010020DAAFF300801FE0C11703AAEF
:1012000000EBD1614B1121F01F0102EB8302411A67
:1012100013680120884003431360C7E719E00D9964
:10122000224600286FF00100009702DAAFF3008039
:1012300004E0AFF3008001E0AFF3008000280ADA99
:10124000401C06D10C9820B14FF0FF300FB0BDE824
:10125000F08F5046FAE7E90701D10AF1010A064486
:1012600000200C9054E60000CCCCCC0C2DE9F05FB3
:10127000824615468B4600270AF10104B9460078DC
:10128000302801D09DB113E014F8010B0127782814
:1012900003D0582801D045B10AE00DB1102D07D177
:1012A000002714F8010B102502E0082500E00A25AC
:1012B0000026B0460EE005FB080005FB06F10127FD
:1012C0001FFA80F801EB1046B6F5803F00D3B9460F
:1012D00014F8010B2946FFF75CFD0028EBDABBF19F
:1012E000000F05D00FB1641E00E05446CBF800405B
:1012F000B9F1000F06D0FFF7B3FC02210160C81E50
:10130000BDE8F09F48EA0640FAE77546FFF7E6FDBC
:10131000AE4605006946534620F00700854618B0E2
:1013200020B5FFF76DF8BDE820404FF000064FF004
:1013300000074FF000084FF0000B21F00701AC460A
:10134000ACE8C009ACE8C009ACE8C009ACE8C00929
:101350008D46704710B50446AFF300802046BDE8C7
:101360001040FEF7ADBF000001491820ABBEFEE7FC
:10137000260002007047000010B51E4800F092FEE3
:1013800000BF1C4800F0A2FE0028FAD01A4800F066
:1013900089FE00BF184800F099FE0028FAD01748CF
:1013A00000F004FA2021164800F05DFA00224FF404
:1013B0008071144800F09CFB134800684FF4FA61F8
:1013C000B0FBF1F422464FF480710E4800F0B6FBFA
:1013D0004FF480710B4800F0A8FB4408224640F20D
:1013E0000711084800F0BBFB01228021054800F0EE
:1013F000AEFB10BD004000F0090800F00614090023
:1014000000100640008002404800002010B500F0A7
:101410007AFEFF22642124A000F078FC00226421DF
:1014200024A000F073FCFF22962125A000F06EFCA2
:10143000002232211FA000F069FCFF22962120A08B
:1014400000F064FC002264211AA000F05FFCFF227F
:1014500096211EA000F05AFC0022322115A000F0B7
:1014600055FCFF22962119A000F050FC00226421B7
:1014700010A000F04BFC0022C82117A000F046FC91
:10148000002232210BA000F041FC1648002101602F
:101490004160154801604160202208211348FFF790
:1014A00041FB00F037FE10BD38383838383838384E
:1014B000000000002020202020202020000000002C
:1014C00032303236303030310000000048555A4852
:1014D000454E59450000000056312E302020202076
:1014E00000000000B7000020BF000020C70000205F
:1014F00010B50446302C06DB392C04DCA4F1300096
:101500004349085C10BD412C4ADB5A2C48DCA4F14D
:1015100041001A2842D2DFE800F00D0F1113151711
:10152000191B1D1F21232527292B2D2F313335373B
:10153000393B3D3F7720E5E77C20E3E73920E1E7D1
:101540005E20DFE77920DDE77120DBE73D20D9E78A
:101550007620D7E73020D5E71E20D3E77A20D1E7E1
:101560003C20CFE75520CDE73720CBE73F20C9E728
:101570007320C7E76720C5E77020C3E76D20C1E788
:101580007820BFE73E20BDE77E20BBE76A20B9E7B1
:101590003620B7E76E20B5E74920B3E70020B1E772
:1015A000612C2BDB7A2C29DCA4F1630013281FD2D9
:1015B000DFE800F00A1E0C1E1E0E10121E141E166E
:1015C000181E1E1A1E1E1C0058209BE77B2099E740
:1015D000742097E7102095E70E2093E7382091E7D5
:1015E00054208FE75C208DE750208BE71C2089E793
:1015F000A4F12001C8B2FFF77BFF83E72E2C01D1B5
:1016000080207FE72D2C01D140207BE7002079E767
:1016100028000020002100E0491C8142FCD37047D3
:10162000084A1268084BB2FBF3F242430323B2FBB1
:10163000F3F102E000BF00BF00BF0A1EA1F10101EB
:10164000F8D170474800002040420F00D0F8003425
:1016500012F0010F14BF0B438B43C0F8003412F09B
:10166000020FD0F8202414BF114322EA0101C0F870
:10167000201470472DE9F00301264FF0000C0325DC
:10168000C2F3411706FA0CF40C4211D0D0F8C48F03
:101690004FEA4C0405FA04F928EA0908C0F8C48F97
:1016A000D0F8C48F07FA04F448EA0404C0F8C44F21
:1016B0000CF1010C0CF0FF0CBCF1080FE2D3D0F8D8
:1016C00000C512F0010F14BF4CEA010C2CEA010C0A
:1016D000C0F800C5D0F804C512F0020F14BF4CEAE0
:1016E000010C2CEA010CC0F804C5D0F808C512F0B2
:1016F000040F14BF4CEA010C2CEA010CC0F808C519
:10170000D0F818C512F0080F14BF4CEA010C2CEAEF
:10171000010CC0F818C512F0100FD0F83C2514BF0A
:101720000A438A43C0F83C25D0F80C2513F0010F7A
:1017300014BF0A438A43C0F80C25D0F8102513F0D3
:10174000020F14BF0A438A43C0F81025D0F81425AD
:1017500013F0040F14BF0A438A43C0F81425D0F8CD
:101760001C2513F0080F14BF0A438A43C0F81C2538
:10177000D0F8442513F4007F14BF0A438A43C0F80D
:101780004425D0F8402513F4407F14BF0A438A4310
:10179000C0F84025D0F82825002B0CBF114322EAC1
:1017A0000101C0F82815BDE8F00370470E4AC0F3E8
:1017B0000741D26E01238B401A420C4A1ABF02EB3A
:1017C000C101496852F83110020AD1F82C354FF0A6
:1017D0000F0C0CFA02FC00F00F0023EA0C039040FF
:1017E0001843C1F82C05704700E00F40AC540000CE
:1017F00050F82100704730B50C4605460022FFF72F
:1018000025FF21462846BDE8304008230122FFF786
:1018100031BF30B50C46054608230122FFF72AFFE9
:1018200021462846BDE830400122FFF70FBF30B502
:101830000C4605460222FFF709FF21462846BDE86F
:10184000304009230122FFF715BF30B50C4605468D
:101850000222FFF7FBFE21462846BDE83040082360
:101860000122FFF707BF30B50C4605460222FFF7FD
:10187000EDFE21462846BDE8304008230122FFF74F
:10188000F9BE30B50C4605460222FFF7DFFE2146C1
:101890002846BDE8304008230122FFF7EBBE40F8A0
:1018A0002120704770B504460E4600BF1A4800F06C
:1018B00075F80028FAD100222146174800F0B6F842
:1018C0003146154800F074F80721134800F06CF811
:1018D00000BF114800F05CF80028FAD10E4800F073
:1018E0006EF80A20FFF79CFE012221460A4800F00C
:1018F0009DF80721084800F057F800BF064800F09F
:1019000047F80028FAD1044800F050F8C5B20A2080
:10191000FFF786FE284670BD000002402DE9F04129
:1019200004460F46154600BF184800F037F8002857
:10193000FAD100222146154800F078F839461348BC
:1019400000F036F80321114800F02EF800BF0F48D0
:1019500000F024F80028FAD10C4800F030F8C6B2A4
:1019600029460A4800F024F80521084800F01CF830
:1019700000BF064800F012F80028FAD1034800F032
:101980001EF8C6B23046BDE8F081000000000240FB
:10199000406810F0400018BF01207047406810F008
:1019A000010018BF01207047416070478068704790
:1019B00081607047016A41F0100101627047406820
:1019C00010F0010F05D110F0120F1CBF00F01C0029
:1019D0007047002070470000036A43F01003036261
:1019E000002A14BF0E4A0F4A02EB820301EB830365
:1019F00002EB820292005B1EB3FBF2F2521EC26047
:101A0000D0F8C02F12F0010F08BF7047064A1144EA
:101A1000521CB1FBF2F1491E41F08001C1607047D8
:101A2000801A0600A08601007F47370142EA410183
:101A3000016070471649042804BF086840F48030EC
:101A400018D0052804BF086840F4003012D00628DA
:101A500012D00F2815D0102838BF7047103800F06A
:101A60001F01012202FA01F142090A4850F822003E
:101A70000160704708607047086840F48020086083
:101A800070474FF0E020016941F0020101617047A9
:101A900024ED00E0F855000010B5FEF71EFC00280C
:101AA00018BF012010BD0000044951F8200004496E
:101AB00040F0FD7040F08060086070473C550000C9
:101AC0000CED00E0FEF712BC084A20F00303D258E8
:101AD00013688007C00E4FF0FF0C0CFA00FC23EADD
:101AE0000C0301FA00F01843106070475C550000C9
:101AF000084401686FF352011143016012F0020FB4
:101B000014BFB0218C21016214BF4FF4306140F644
:101B10000C0141627047425822F001024250704766
:101B2000425842F00102425070470844016800697F
:101B300011F0020F14BF4000401C704708440168B8
:101B400011F0020F14BF5108511E01617047002AA5
:101B5000826814BF114322EA01018160704721F0BD
:101B60003F031844036813F0020F18BF52080369BB
:101B70009A1A11F0010F14BFC26182617047000010
:101B800010B51C4800F08EFA00BF1A4800F09EFA0B
:101B90000028FAD01748C01C00F084FA00BF15488E
:101BA000C01C00F093FA0028F9D01248C01D00F0C4
:101BB00079FA00BF0F48C01D00F088FA0028F9D05C
:101BC00001210D48FFF725FE01210C48FFF721FEFA
:101BD0000823662201210948FFF74CFD032108482C
:101BE000FFF709FE0A23012203210548FFF742FD02
:101BF00010BD0000050800F0005002400040064003
:101C000000D0034010B51B4800F04CFA1A4800F011
:101C100049FA1A48FFF7CAFD1948FFF7C7FD042122
:101C20001848FFF712FE08211648FFF700FE0122B0
:101C3000154801681548FFF7CFFE1448FFF7BAFEB4
:101C4000FF220C212220FFF769FE00220D21222015
:101C5000FFF764FE00220E212220FFF75FFE002224
:101C600003211820FFF75AFEFF2201211820FFF759
:101C700055FE10BD002000F0010800F00208010030
:101C8000020C01000050004048000020000002400B
:101C900010B5144800F006FA134800F003FA00BF2C
:101CA000114800F013FA0028FAD00120FFF77EFD5A
:101CB00040F20140FFF77AFD03214FF04020FFF78B
:101CC000E0FD60234FF4E13208480168084800F065
:101CD0003AFB18220321064800F06CFB05A000F037
:101CE00077FB10BD001800F0000800F0480000204D
:101CF00000C000400D0A436C6F636B20537973740E
:101D0000656D2052656164790D0A00002DE9FC477C
:101D100005460F469046002408E0285D00B907E01C
:101D2000285DFFF7E5FB0DF80400641C082CF4DBCC
:101D300000BF03E000200DF80400641C082CF9DB50
:101D4000002632E000242DE0002206212220FFF7A9
:101D5000E5FD184908700A20FFF762FC1DF8042011
:101D600005212220FFF7DAFD124908700A20FFF74B
:101D700057FC04F0FF09012000FA09F0C2B2062165
:101D80002220FFF7CBFD0B4908706FEA0800C2B2B2
:101D900001211820FFF7C2FD064908706420FFF7F3
:101DA0003FFC641C082CCFDB761CBE42CAD3BDE8C6
:101DB000FC870000420000202DE9F003AF4D0246F1
:101DC0002868AF4B1840A0F18053B3F5A02359D039
:101DD00002F03809DFF8AC82C2F38414B9F1100FB5
:101DE00025D0B9F1300F04BF47F230504FF4001343
:101DF0000DD04FF03800904304BF4FF40040C301B2
:101E000005D012F0380F1CBF0020034613D09E4FA0
:101E100012F4605F4FF0000618BF00222CD057F874
:101E2000324044457DD307EBC2025268E1E0002313
:101E300040461524EBE7A4F10900122822D293486A
:101E4000D5F87CC04FF04C7350F824002CF01C0CDB
:101E5000072CA8BF4CF0100CC5F87CC02E6D4FF4B9
:101E6000002C16F4807FD2D1BCF1010C0AD02E6D6B
:101E700016F4807FF8D0CAE712F0380F18BFB9F116
:101E8000100F04D0BDE8F0034FF000007047C2F31C
:101E90000268DFF8FCC14FF0000257F83290E145CC
:101EA00003D307EBC202526803E0521C062AF4D3A4
:101EB0003246C5F8C020D5F8B020DFF8D8C102EA14
:101EC0000C0242F00042C5F8B020DFF8CCC1A4F10A
:101ED00009024C1E5CF828C0A444BCFBF1FCD5F8F8
:101EE000B0101943C5F8B01008EBC80101EB41046C
:101EF0006A4902EB420201EBC40101EB820464680F
:101F0000C5F86441D5F864416FF0FF0808EB0C2C6C
:101F100044EA0C0CC5F864C151F82210D5F86021D0
:101F200000E061E002F400021143C5F86011D5F849
:101F30006011D5F86021C1F38921C2F30904D5F8F5
:101F40006421C2F3042202F1010CD5F8642102F0ED
:101F50001F02521CB0FBF2F04A09C2F100084443D0
:101F6000424301EB481104EB5212484302EB90202C
:101F7000B0FBFCF041080846002257F832C0844507
:101F800003D307EBC200466802E0521C062AF4D3D2
:101F9000C5F8C060D5F8600110F4000F1DBFD5F87A
:101FA000B00040F08040C5F8B000D5F8600104BF33
:101FB00040F40000C5F860014FF40040D5F86821F6
:101FC00012F0010F02D1401E0028F7DC002808BFE4
:101FD000002148D0D5F8B000184340F0010040F08F
:101FE0001040C5F8B0003EE0521C062AFFF417AFBF
:101FF0003246C5F8C020D5F8602122F40002C5F8A9
:102000006021D5F8B020DFF898C002EA0C0242F057
:102010000042C5F8B020002908BF4FF0000C0AD0DC
:10202000B0FBF1FCBCF1000F18BFACF1010C0CF1DE
:102030000101B0FBF1F10846002257F8324084421A
:1020400003D307EBC200466802E0521C062AF4D311
:10205000C5F8C060D5F8B00043EA8C22104340F0C8
:102060000040C5F8B000D5F8B00020F47000C5F805
:10207000B000BDE8F00308467047000000E00F40E4
:102080000000FF700024F4006C580000505600005F
:1020900040787D0100FC0FE048560000BC5600006F
:1020A000FF0300EFC0F307230749C0B2194401F052
:1020B0007043C1F3130143EA411141EA800040F04B
:1020C000007001220260704700E60F40C0F3072253
:1020D0000849C0B2114401F07042C1F3130142EA51
:1020E000411141EA800040F000700068002818BFEC
:1020F0000120704700EA0F404FF0E020016941F0F5
:102100000501016170474FF0E020016921F00201F3
:10211000016170474FF0E020016941F00201016167
:1021200070474FF0E021401E4861704710B5002213
:1021300006212220FFF7F2FB0520FFF771FA27485E
:1021400027490978425C05212220FFF7E7FB05209B
:10215000FFF766FA224804780120A040C2B20621A7
:102160002220FFF7DBFB1E480078401C1C4908704A
:1021700008460078082801DB00200870194800880C
:1021800028B118480088401E1649088005E06420E0
:10219000144908800120144908701448008828B1A7
:1021A00012480088401E1149088005E00A200F49A6
:1021B000088001200E49087001210E48FFF718FB26
:1021C00028B9012211460C48FFF769FB04E0002200
:1021D00001210948FFF763FB10BD0000B700002094
:1021E000D00000203E000020410000203C000020E4
:1021F0004000002000D00340004006400448006832
:1022000040F47000024908600248034908607047C2
:1022100088ED00E00024F4000801002070B50121E1
:10222000334800F0D0F805462946314800F0C5F89B
:1022300003203049087034E02D4800F071F8C4B232
:102240000D2C00D12DE00A2C1AD12B48007860B15A
:102250000020294908702949086041212848FEF7D3
:1022600069FC28A000F0B4F870BD00202449234A7E
:102270001268885421490860012028490870F3E752
:102280001E480068402808DA1C4801680068401CA5
:102290001A4A10601A48445402E001201649087096
:1022A00000BF134800F04AF80028C5D1402D1DD1C9
:1022B0001148007860B100200F4908700F4908608C
:1022C00041210F48FEF736FC0EA000F081F8CBE765
:1022D0000A480068002809DD00200949074A1268F9
:1022E00088540649086001200C49087000BFBBE70C
:1022F00000C00040DD0000205900002054000020F4
:102300000C0100204552524F52204C494E4520545A
:102310004F4F204C4F4E470D0A0000005800002040
:10232000816911F0100F0CBF00684FF0FF3070474B
:10233000826912F0200FFBD1016070478069012192
:1023400021EA10107047D0F818C01CF0080FFAD11D
:10235000D0F82CC02CF0100CC0F82CC0D0F830C035
:102360002CF0010C2CF4407CC0F830C0D0F830C008
:10237000B1EB021F34BF4CF0200C2CF0200CC0F845
:1023800030C038BF5208C900B1FBF2F1491C4908FE
:102390008A09426201F03F018162C36200218161CA
:1023A000C16A41F01001C162016B40F20132114378
:1023B0000163704711434163704741647047826B0A
:1023C000114381637047002914BF006CC06B7047D4
:1023D00010B5044604E014F8011B0348FFF7A8FFFA
:1023E00020780028F7D110BD00C0004030380A28FE
:1023F00001D20120704700207047000010B5474807
:10240000007800B110BD46480078401E012101FA55
:1024100000F044490978084000B9F3E742480078E1
:1024200038BB3F480078401E4049085C4049097865
:1024300088421ED13A480078401E3E49085C3E4919
:102440000978884215D136480078401E3B49085C1F
:102450003B49097888420CD101203349087000209B
:10246000384908703849087038490870012002F06E
:102470002BFC2D48007800284ED033480078401CB3
:102480003149087031480078401C304908700846CE
:102490000078642802DB00F05BF8B3E72948007895
:1024A00030B1012811D002281CD0032833D126E0F6
:1024B00000F066F824480078022805DB0120214955
:1024C000087000202049087025E000F063F81E48DD
:1024D0000078022805DB02201A49087000201A49FA
:1024E000087018E000F04CF817480078022805DB67
:1024F0000320144908700020134908700BE000F015
:1025000049F811480078022804DB00200D490870C2
:102510000D49087000BF00BF00BF73E7B200002084
:1025200074000020AD000020AE00002098000020C4
:102530006C0000209F0000206D000020A6000020FD
:102540006E000020AF000020B0000020B10000208D
:1025500010B5002006490870064908700649087041
:102560000649087000F00CF8002002F0ADFB10BD29
:10257000AE000020AF000020B0000020B10000201D
:1025800010B54FF480710248FFF7C5FA10BD000086
:102590000080024010B50548007800B110BD4FF42E
:1025A00080710348FFF7BCFA00BFF7E7EE00002098
:1025B00000800240F0B5BDB007462022394635A85C
:1025C000FEF7DAFA00208DF8F30035AC00E0641C69
:1025D00020782028FBD020780928F8D004E0207843
:1025E000FDF726FF2070641C20780028F7D135AC59
:1025F00000E0641C20782028FBD020780928F8D03F
:10260000207820B14FA1204602F0AEF878B14F48B3
:10261000007800904E4803784E4802784EA129A8D1
:10262000FDF716FF29A802F00DFC3DB0F0BD4FA14B
:10263000204602F099F870B14E48007800904E485C
:1026400003784E4802884EA129A8FDF701FF29A86A
:1026500002F0F8FBE9E74FA1204602F085F870B1DF
:102660004E48007808B14EA000E04FA0024650A1AD
:1026700029A8FDF7EDFE29A802F0E4FBD5E74EA15D
:10268000204602F071F800282FD04DA104A8FDF7D4
:10269000DFFE064600251DE00120A84049490978D3
:1026A000084008B148A200E048A24948405D4949B5
:1026B000495DCDE90102009147494B5DDFF81CC13E
:1026C000691C5CF8212004A9881945A1FDF7C0FE0A
:1026D00006446D1C072DDFDB04A9881946A1FDF710
:1026E000B7FE04A802F0AEFB9FE744A1204602F02B
:1026F0003BF870B14348007808B133A000E033A044
:1027000002462BA129A8FDF7A3FE29A802F09AFBF7
:102710008BE73DA1204602F027F870B13C480078D5
:1027200008B13CA000E03DA0024621A129A8FDF788
:102730008FFE29A802F086FB77E739A002F082FB22
:1027400000BF72E754494D45000000006E000020B4
:102750006D0000206C0000204F4B2025303264209B
:102760002530326420253032640D0A00444154453E
:1027700000000000730000207200002070000020A4
:102780004F4B2025303464202530326420253032F0
:10279000640D0A00464F524D41540000D100002004
:1027A00052494748540000004C4546540000000080
:1027B0004F4B2025730D0A00414C41524D00000043
:1027C0004F4B0000AD0000204F4E00004F4646002A
:1027D000A60000209F000020980000207800002024
:1027E00020257320253032642025303264202530A6
:1027F00032642025730000000D0A00004449535044
:1028000000000000B50000204D4F444500000000CE
:10281000EE0000204E494748540000004441590052
:102820004552524F522053594E5441580D0A000000
:1028300000B589B00548026805A101A8FDF708FEAA
:1028400001A802F0FFFA09B000BD0000F00000206E
:102850002A504F4E4720256C750D0A002DE9F04790
:1028600098B005464022294608A8FEF785F90020C1
:102870008DF85F0008AC04E02078FDF7D9FD2070EA
:10288000641C20780028F7D1012601274FF00108A9
:102890009DF82000002858D00020804607460646B4
:1028A00008AC4EE000E0641C20782028FBD02078A3
:1028B0000928F8D0207800B946E0A14600E0641C61
:1028C000207828B12078202802D020780928F6D155
:1028D00094F800A0002020703CA1484601F044FF7D
:1028E00008B1012727E03BA1484601F03DFF08B1B0
:1028F000012720E039A1484601F036FF08B1012741
:1029000019E038A1484601F02FFF08B1012612E076
:1029100036A1484601F028FF10B14FF0010809E048
:1029200034A16846FDF794FD684602F08BFA18B0B2
:10293000BDE8F08700BFBAF1000F00D104E0641CCD
:1029400000BF20780028ADD100BF4FB140F2EA703F
:102950002C49088006202C49087008202B49087053
:1029600036B100202A4908702A4908702A4908709F
:10297000B8F1000F10D0002008E00621274A1154BA
:102980000021274A1154274A1154401C0728F4DB20
:102990001F21254A117000BF002024490870012022
:1029A00023490870002023490870234908702349EF
:1029B0000870234908702349087001F011F802F0EB
:1029C0004DFA21A002F03EFA00BFB0E74441544561
:1029D0000000000059454152000000004D4F4E5488
:1029E0004800000054494D4500000000414C415250
:1029F0004D0000004552524F5220504152414D0D62
:102A00000A00000070000020720000207300002007
:102A10006C0000206D0000206E0000209800002057
:102A20009F000020A6000020AD000020D100002063
:102A3000B5000020D3000020D7000020D8000020DF
:102A4000DA000020B40000204F4B0D0A0000000007
:102A50002DE9F14F96B0402206A81699FEF78CF8A2
:102A600000208DF8570006AC00E0641C2078202878
:102A7000FBD020780928F8D0207828B9B7A002F038
:102A8000E1F917B0BDE8F08FA34600E0641C2078A0
:102A900028B12078202802D020780928F6D126787D
:102AA00000202070D94607E099F80000FDF7C0FC2F
:102AB00089F8000009F1010999F800000028F3D114
:102AC000AA480078401E059001200490A8A158460D
:102AD00001F04AFE10B1002005903CE0A6A1584646
:102AE00001F042FE10B10120059034E0A4A1584647
:102AF00001F03AFE10B1022005902CE0A3A1584647
:102B000001F032FE10B10320059024E0A2A1584646
:102B100001F02AFE10B1042005901CE0A0A1584647
:102B200001F022FE10B10520059014E09FA1584647
:102B300001F01AFE10B1062005900CE09DA1584648
:102B400001F012FE18B14FF0FF30059003E00020B5
:102B50000490267006AC049810B10EB12670641C67
:102B6000002003900598401C08B9002000E005985B
:102B700007460598401C08B9072001E00598401C4D
:102B80008046D2E000E0641C20782028FBD020782A
:102B90000928F8D0207800B9C8E0A34600E0641CFA
:102BA000207828B12078202802D020780928F6D172
:102BB000267800202070DA4607E09AF80000FDF73A
:102BC00037FC8AF800000AF1010A9AF80000002890
:102BD000F3D179A1584601F0C7FDC0B101970AE0D1
:102BE0000121019881407548007888437349087035
:102BF0000198401C019001984045F1DB002070498C
:102C00000870FFF7BDFC6FA002F01CF939E76FA157
:102C1000584601F0A9FDA0B101970BE001210198F0
:102C200001FA00F065490978084364490870019881
:102C3000401C019001984045F0DB62A002F002F9CF
:102C40001FE700200290B6B1641C00E0641C2078ED
:102C50002028FBD020780928F8D0029400E0641CDA
:102C6000207828B12078202802D020780928F6D1B1
:102C7000267800202070029810B10298007818B9C8
:102C800036A002F0DFF8FCE60298FDF753FE054699
:102C90004FA1584601F068FD88B1002D01DB172DCA
:102CA00003DD4DA002F0CEF8EBE6384602E04E4AD6
:102CB0001554401C4045FADB0120039031E04BA144
:102CC000584601F051FD88B1002D01DB3B2D03DD9D
:102CD00041A002F0B7F8D4E6384602E0454A155460
:102CE000401C4045FADB012003901AE042A15846FF
:102CF00001F03AFD88B1002D01DB3B2D03DD36A04C
:102D000002F0A0F8BDE6384602E03D4A1554401CEA
:102D10004045FADB0120039003E010A002F092F896
:102D2000AFE606B902E0267000BF2BE700BF0398AC
:102D300078B13D4607E00120A840204909780843C2
:102D40001E4908706D1C4545F5DB1EA002F07AF89F
:102D500002E002A002F076F800BF92E64552524F20
:102D6000522053594E5441580D0A0000740000205F
:102D70004D4F4E646179000054554573646179008C
:102D80005745446E6573646179000000544855727C
:102D90007364617900000000465249646179000063
:102DA00053415475726461790000000053554E64BC
:102DB00061790000414C4C004F464600AD000020B8
:102DC000AE0000204F4B0D0A000000004F4E0000E7
:102DD000484F5552000000004552524F5220524178
:102DE0004E47450D0A000000980000204D494E75E1
:102DF000746500009F0000205345436F6E6400001F
:102E0000A600002070B50646344600E0641C207819
:102E10002028FBD020780928F8D0207818B914A0F1
:102E200002F010F870BD2046FDF784FD05460A2D1E
:102E300003DB41F28830854203DD11A002F002F885
:102E4000F0E7FFF7A7FB01201149087005F13200F8
:102E5000642190FBF1F00F490870084600780128C2
:102E600001DA012008700CA001F0ECFF00BFD9E7E7
:102E70004552524F5220504152414D0D0A00000020
:102E80004552524F522052414E47450D0A00000014
:102E9000F7000020F60000204F4B0D0A0000000054
:102EA0002DE9F04F91B082464022514601A8FDF72E
:102EB00063FE00208DF8430001AC83468CE000E007
:102EC000641C20782028FBD020780928F8D02078AE
:102ED00000B985E0A14600E0641C207828B1207884
:102EE000202802D020780928F6D1277800202070E9
:102EF0008046B7B1641C00E0641C20782028FBD019
:102F000020780928F8D0A04600E0641C207828B179
:102F10002078202802D020780928F6D127780020B0
:102F20002070B8F1000F02D098F8000028B93DA039
:102F300001F088FF11B0BDE8F08F4046FDF7FAFCC4
:102F400005464E4604E03078FDF772FA3070761C84
:102F500030780028F7D137A1484601F005FC78B158
:102F6000B5F5FD6F03DD40F63300854203DD33A088
:102F700001F068FFDEE735490D804FF0010B27E0D7
:102F800033A1484601F0F0FB60B1012D01DB0C2DAF
:102F900003DD2AA001F056FFCCE72F490D704FF05A
:102FA000010B15E02DA1484601F0DEFB60B1012DBB
:102FB00001DB1F2D03DD21A001F044FFBAE7294901
:102FC0000D704FF0010B03E016A001F03BFFB1E7DD
:102FD00007B905E0277000BF207800287FF46FAFA5
:102FE00000BF1D4801781948008800F0EFFD1D4919
:102FF0000978884207DA184801781448008800F0F8
:10300000E5FD18490870BBF1000F05D001F026FF5F
:1030100015A001F017FF02E002A001F013FF00BFAE
:1030200088E700004552524F522053594E544158A0
:103030000D0A000059454152000000004552524F10
:10304000522052414E47450D0A00000070000020FA
:103050004D4F4E544800000072000020444154453A
:1030600000000000730000204F4B0D0A000000001C
:103070007FB50546102229466846FDF77DFD0020F4
:103080008DF80F006C4600E0641C20782028FBD0EF
:1030900020780928F8D004E02078FDF7C9F92070DD
:1030A000641C20780028F7D16C4600E0641C20786E
:1030B0002028FBD020780928F8D011A12046FDF760
:1030C00087FD58B901200F49087000200E4908708B
:1030D00001F0C4FE0DA001F0B5FE10E00DA12046E8
:1030E000FDF776FD40B900200649087001F0B6FEF4
:1030F00006A001F0A7FE02E007A001F0A3FE7FBD3D
:103100004F4E0000B5000020D30000204F4B0D0AA9
:10311000000000004F4646004552524F5220504199
:1031200052414D0D0A0000007FB505461022294688
:103130006846FDF721FD00208DF80F006C4600E089
:10314000641C20782028FBD020780928F8D004E0DF
:103150002078FDF76DF92070641C20780028F7D1E5
:103160006C4600E0641C20782028FBD020780928D9
:10317000F8D012A12046FDF72BFD50B900201149CF
:1031800008701149087001F069FE10A001F05AFEA4
:1031900013E010A12046FDF71BFD58B90120094995
:1031A000087000200849087001F058FE07A001F0DF
:1031B00049FE02E009A001F045FE7FBD4C454654A2
:1031C00000000000D1000020D40000204F4B0D0A69
:1031D0000000000052494748540000004552524F39
:1031E0005220504152414D0D0A0000007FB5064665
:1031F000102231466846FDF7BFFC00208DF80F0015
:103200006C4600E0641C20782028FBD02078092838
:10321000F8D004E02078FDF70BF92070641C2078CA
:103220000028F7D16C4600E0641C20782028FBD0F1
:1032300020780928F8D04FF0FF352DA12046FDF762
:10324000C7FC08B901253DE02BA12046FDF7C0FCD5
:1032500008B9022536E02AA12046FDF7B9FC08B9D5
:1032600000252FE027A12046FDF7B2FC08B9042570
:1032700028E026A12046FDF7ABFC08B9062521E091
:1032800024A12046FDF7A4FC08B903251AE023A1D8
:103290002046FDF79DFC08B9052513E021A1204635
:1032A000FDF796FC08B907250CE01FA12046FDF7A5
:1032B0008FFC08B9082505E01DA12046FDF788FC14
:1032C00000B90925002D03DA1BA001F0BBFD7FBD6D
:1032D00001201D490870E8B2002100F0A3FC002085
:1032E0001949087019A001F0ADFD00BFEFE700001B
:1032F00046554E4300000000534849465400000024
:103300004144440053415645000000004449535095
:10331000000000005350454544000000464F524D08
:1033200041540000455854005553455231000000A7
:1033300055534552320000004552524F52205041E1
:1033400052414D0D0A000000F50000204F4B0D0AC0
:10335000000000007CB50646344600E0641C20787E
:103360002028FBD020780928F8D0207818B926A08A
:1033700001F068FD7CBD00200190207808B1207824
:1033800000E030208DF80400607808B1607800E03B
:1033900030208DF805006A461FA101A8FDF706FA46
:1033A00001280AD06A461DA12046FDF7FFF9012831
:1033B00003D015A001F046FDDCE70098C5B235B991
:1033C00000201749087001201649087004E0012008
:1033D0001349087013480570FEF795FE00BF1248A8
:1033E000FEF7DCFA0028FAD10E480078C043C2B2DA
:1033F00001211820FEF792FAFEF78CFE0BA001F0D7
:1034000021FD00BFB6E700004552524F5220504107
:1034100052414D0D0A000000253278002578000049
:10342000DA000020D9000020000002404F4B0D0AB6
:10343000000000007FB50546102229466846FDF7CA
:103440009BFB00208DF80F006C4600E0641C207888
:103450002028FBD020780928F8D004E02078FCF759
:10346000E7FF2070641C20780028F7D16C4600E04C
:10347000641C20782028FBD020780928F8D017A1D8
:103480002046FDF7A5FB68B90020154908701549CD
:10349000087001F0E3FC11A001F0BEFC12A001F0E5
:1034A000D1FC1AE012A12046FDF792FB20B112A137
:1034B0002046FDF78DFB68B90120094908700949CC
:1034C000087001F0CBFC0AA001F0A6FC06A001F0F8
:1034D000B9FC02E009A001F0B5FC7FBD44415900F0
:1034E000EE000020B20000204F4B0D0A000000004B
:1034F0004E494748540000004E4947004552524F3C
:103500005220504152414D0D0A00000070B5064650
:10351000344600E0641C20782028FBD0207809285D
:10352000F8D02046FDF71DFAC5B2202D00DD20257C
:1035300085B921211748FDF7FDFA002016490870CA
:10354000164908701649087001F088FC15A001F0B2
:1035500079FC70BD21210F48FDF7ECFA2A4621467F
:103560000C48FDF768FA0D48057000200C490870FA
:1035700001200949087000200C4908700C490870A6
:103580000C49087001F06AFC06A001F05BFC00BF6A
:10359000DFE700004D010020D3000020D50000200F
:1035A000D40000204F4B0D0A00000000D600002080
:1035B000D7000020D80000202DE9F04F91B08246BE
:1035C0004022514601A8FDF7D7FA00208DF84300AC
:1035D00001AC83469AE000E0641C20782028FBD0F0
:1035E00020780928F8D0207800B993E0A14600E0BF
:1035F000641C207828B12078202802D0207809285F
:10360000F6D12778002020704E4604E03078FCF791
:103610000FFF3070761C30780028F7D18046B7B1A4
:10362000641C00E0641C20782028FBD02078092846
:10363000F8D0A04600E0641C207828B1207820282B
:1036400002D020780928F6D127780020207039A1EF
:10365000484601F089F850B100203749087001F060
:10366000FDFB36A001F0EEFB11B0BDE8F08FB8F124
:10367000000F02D098F8000018B932A001F0E2FB68
:10368000F2E74046FDF756F9054632A1484601F0FB
:103690006BF860B1002D01DB172D03DD2FA001F0C9
:1036A000D1FBE1E731490D704FF0010B2AE030A169
:1036B000484601F059F878B1002D01DB3B2D03DDC0
:1036C00026A001F0BFFBCFE72B490D7000202B494E
:1036D00008704FF0010B15E029A1484601F044F8AD
:1036E00060B1002D01DB3B2D03DD1CA001F0AAFB26
:1036F000BAE722490D704FF0010B03E011A001F071
:10370000A1FBB1E707B905E0277000BF20780028CA
:103710007FF461AF00BFBBF1000F05D001F09EFB4D
:1037200006A001F08FFB02E006A001F08BFB00BFBA
:103730009AE700004F464600B50000204F4B0D0AA7
:10374000000000004552524F522053594E544158E8
:103750000D0A0000484F5552000000004552524FDC
:10376000522052414E47450D0A0000006C000020D7
:103770004D494E75746500006D0000206E000020FC
:103780005345436F6E6400002DE9FC4107463C46FB
:1037900000E0641C20782028FBD020780928F8D08D
:1037A000207820B93BA001F04DFBBDE8FC8120460C
:1037B000FDF7C0F8054615F1280F01DB322D03DDBA
:1037C00038A001F03FFBF0E768B23A49087000E02A
:1037D000641C207810B120782028F9D100E0641C06
:1037E00020782028FBD020780928F8D00422214610
:1037F0006846FDF7C1F900208DF804006E4604E02C
:103800003078FCF715FE3070761C30780028F7D140
:1038100029A1684600F0A8FF18B1012027490870C7
:1038200030E027A1684600F09FFF18B1022023492D
:10383000087027E023A1684600F096FF18B1032026
:103840001E4908701EE020A1684600F08DFF18B1E7
:1038500004201A49087015E01CA1684600F084FF96
:1038600018B10520154908700CE019A1684600F050
:103870007BFF18B106201149087003E005A001F094
:10388000E1FA92E700201349087013A001F0DAFA78
:1038900000BF8AE74552524F5220504152414D0DD0
:1038A0000A0000004552524F522052414E47450DEA
:1038B0000A000000DE00002053554E00DF0000200B
:1038C000434C44004F56430052414900534E4F0071
:1038D000464F4700E00000204F4B0D0A000000005B
:1038E00010B504462448007824490870244800781C
:1038F0002449087024480078244908702448008826
:103900002449088024480078244908702448007815
:103910002449087024480078401E2449085C244942
:10392000087021480078401E2249085C224908702E
:103930001D480078401E2149085C214908701A483A
:103940000078401E012101FA00F01E490978084064
:1039500008B1012000E000201B4908701B480470DA
:1039600000201B4908701B4908801B4908701B492F
:10397000087001F073FA10BD6C000020F800002000
:103980006D000020F90000206E000020FA000020E9
:1039900070000020FC00002072000020FE000020CB
:1039A00073000020FF000020740000209800002019
:1039B000000100209F00002001010020A60000203F
:1039C00002010020AD00002003010020E8000020DB
:1039D000E9000020EA000020EC000020ED000020BB
:1039E00010B586B00446002C48D050480078002816
:1039F00044D04E48007801280FD14D4800780090FF
:103A00004C4803784C4802884CA102A8FCF720FDE2
:103A100002A94EA001F0B2F92FE044480078022834
:103A20000FD14C48007800904B4803784B480278FF
:103A30004BA102A8FCF70CFD02A94DA001F09EF9D4
:103A40001BE03A480078032817D14B480078401E05
:103A50004A49085C009048480078401E48490B5C81
:103A600045480078401E47490A5C3DA102A8FCF782
:103A7000EFFC02A944A001F081F949E02B4800784D
:103A8000002845D042480078344908704148007801
:103A900031490870404800782E4908703F48008836
:103AA000254908803E480078224908703D48007842
:103AB0001F4908703C4801782F480078401E314A61
:103AC00011543A4801782C480078401E2C4A115471
:103AD0003748017828480078401E284A1154354854
:103AE000007858B124480078401E012101FA00F006
:103AF0003149097808433049087009E01E480078C8
:103B0000401E012181402C48007888432A490870D2
:103B10000020064908702949087029490880294968
:103B2000087001F09BF906B010BD0000E80000200D
:103B300073000020720000207000002025303464E3
:103B40002E253032642E2530326400004441544525
:103B5000000000006E0000206D0000206C000020BE
:103B6000253032642E253032642E25303264000038
:103B700054494D450000000074000020A6000020BC
:103B80009F00002098000020414C41524D00000051
:103B9000F8000020F9000020FA000020FC000020BE
:103BA000FE000020FF000020000100200101002095
:103BB0000201002003010020AD000020E9000020E8
:103BC000EA000020EC0000207047000030B50546F8
:103BD0000C46022C05D1284600F00AF808B11D2039
:103BE00030BD601E0149085CFAE70000EC5200009D
:103BF00001460A46C81701EB90708010A1EB8000C7
:103C000028B9642091FBF0F300FB131030B94FF496
:103C1000C87091FBF0F300FB131008B90120704746
:103C20000020FCE770B590B004460D46F8480078D7
:103C300010B9204601F0BCF80A2C6ED2DFE804F07F
:103C400005CFF3F2F1F0EFEEEDECF248007800284A
:103C500074D00020F0490880EE480078012839D15E
:103C6000EE48007878B9EE480088401CEC4908809E
:103C70000846008840F63301884203DD40F2E970CF
:103C8000E7490880A8E0E548007801280BD1E5481D
:103C90000078401CE3490870084600780C28F1DDE4
:103CA0000120087098E0DD4800780228EAD1DE485B
:103CB0000078401CDC490870DA480178D848008850
:103CC000FFF784FFD84909788842DBDA0120D6491A
:103CD000087081E0CF480078022830D1CF480078C2
:103CE00058B9D2480078401CD0490870084600787E
:103CF000172871DD002008706EE0C84800780128A0
:103D00000CD1CB480078401CC9490870084600789F
:103D10003B2861DD002008705EE075E1BF48007857
:103D2000022859D1C3480078401CC249087008468F
:103D300000783B2850DD002008704DE04EE0B5488B
:103D40000078032848D1B5480078A0B9BA49097865
:103D5000491EBA4A88180178491C0170B648007893
:103D6000401E1146085C172836DD0021B248007855
:103D7000401E115430E0A9480078012814D1AE4902
:103D80000978491EAE4A88180178491C0170AA4872
:103D90000078401E1146085C3B281DDD0021A64826
:103DA0000078401E115417E09C480078022813D177
:103DB000A1490978491EA34A88180178491C017055
:103DC0009D480078401E1146085C3B2804DD002118
:103DD00099480078401E115401F040F814E19A48C7
:103DE000007810B1FEF7B4FB0EE135B189480078D8
:103DF00008B30120FFF7F4FD21E08648007818B9E8
:103E00000120FFF76DFD1AE08248007801280BD1F0
:103E10000220FFF765FD12E0BDE0B5E04DE03BE0BC
:103E20002CE027E01DE00BE07A480078022803D15F
:103E30000320FFF755FD02E00120FFF751FDE3E00D
:103E40007448007860B10020734908807348007896
:103E5000401C032190FBF1F201FB12006F49087036
:103E6000D2E07A48007808B9012000E000207749C4
:103E70000870C9E00120FFF7B3FDC5E07448007881
:103E800008B9012000E00020714908700020714944
:103E9000087000F0E3FFB7E06F480078401C6E49FF
:103EA000087008460078022801DD00200870002014
:103EB0006A49087000F0D2FFA6E05F480078401E13
:103EC000012101FA00F066490978084050B15A48CA
:103ED0000078401E01218140614800788843604994
:103EE00008700AE054480078401E012101FA00F0F1
:103EF0005B49097808435A4908704F480078401ECA
:103F0000012101FA00F056490978084018B155A07E
:103F100000F098FF07E000204B490870FEF730FBE7
:103F200055A000F08FFF5A480678007840F0040052
:103F300057490870FEF7E7F800BF5648FDF72EFD19
:103F40000028FAD152480078C043C2B2012118209B
:103F5000FDF7E4FCFEF7DEF84F48FDF75BFB4C484D
:103F60000670FEF7D0F800BF4A48FDF717FD00289D
:103F7000FAD147480078C043C2B201211820FDF7AA
:103F8000CDFCFEF7C7F83FE02148007810B90820C3
:103F900000F00EFF38E0414890F90000633048B36C
:103FA0001C223F496846FCF78BFD3E4800780628F6
:103FB00004DC3C4909785DF8210000E03AA006469F
:103FC000364890F90000002808DB3346334890F962
:103FD000002036A107A8FCF73BFA07E033462F483C
:103FE00090F9002034A107A8FCF732FA07A8FFF7E0
:103FF0008DFA02E032A0FFF789FA0548007810B97F
:10400000092000F0D5FE00BF00BF10B070BD000059
:10401000F5000020E8000020EA000020E900002070
:104020007000002072000020730000206C0000204F
:104030006D0000206E000020740000209800002019
:104040009F000020A6000020AE000020D20000202B
:10405000D1000020D4000020B4000020D3000020B4
:10406000AD0000202A4556543A414C41524D3A5336
:104070004554204F4E0D0A002A4556543A414C41B2
:10408000524D3A534554204F46460D0A0000000059
:10409000D900002000000240A0860100DE000020C0
:1040A000F8520000DF0000202D2D2D002532642065
:1040B000432025730000000025336443202573004E
:1040C0002D2D2043202D2D2D000000002DE9F04145
:1040D000FEF719F800BF4448FDF760FC0028FAD14C
:1040E00000212220FDF7DEFB0646FEF713F8032130
:1040F0003E48FDF77DFBC7B2F043C5B207F00100B3
:1041000000B9EDB207F0020000B9EDB2384800780E
:1041100098B1012020EA5608B8F1000F09D03548BF
:10412000007830B9FEF714FA012032490870BDE872
:10413000F081304880F80080F9E7002450E045FA2B
:1041400004F000F00108B8F1000F1FD02A4830F841
:104150001400032806DA284830F81400401C2649C9
:1041600021F81400244830F81400022824D12348F0
:10417000005D08BB0120214908550020204921F895
:104180001400E0B20021FFF74DFD15E01A4830F8A9
:104190001400002806DD184830F81400401E1649A7
:1041A00021F81400144830F8140028B91348005DB1
:1041B00010B10020114908551048005D78B1104831
:1041C00030F81400401C0E4921F81400084630F85D
:1041D0001400642803D1E0B20121FFF723FD641C21
:1041E0000A2CACDB00BFA2E70000024000D0034075
:1041F000AE000020040100206E0100209601002086
:104200008201002010B55648007890B1FDF77BFF81
:1042100000BF5448FDF7C2FB0028FAD1524800788D
:10422000C043C2B201211820FDF778FBFDF772FFF1
:1042300010BD4D4804784D48007805280ADB002061
:104240004A49087004F0010010B124F0010401E0B3
:1042500044F0010446480078002807DD444800780F
:10426000401E4349087044F0080401E024F00804AB
:1042700040480078002807DD3E480078401E3D4950
:10428000087044F0100401E024F010043A4800786B
:1042900010B104F0010446E03848007840B13848D5
:1042A000007810B144F0020411E024F002040EE0A2
:1042B00034480078401E012101FA00F032490978A3
:1042C000084010B144F0020401E024F002042F4839
:1042D000007810B144F0040401E024F004042C48F8
:1042E0000078012807D12B4890F90000633010B105
:1042F00044F020040DE026480078042807DB254818
:1043000090F90000633010B144F0400401E024F063
:104310006004204890F900001E2802DB44F080046D
:1043200001E024F080041C480078012801D144F009
:1043300080040D480470FDF7E6FE00BF0948FDF754
:104340002DFB0028FAD108480078C043C2B20121F1
:104350001820FDF7E3FAFDF7DDFE00BF68E7000077
:10436000DA00002000000240D9000020DB0000201D
:10437000DC000020DD000020EE000020AE00002068
:10438000B300002074000020AD000020E8000020F1
:10439000DF000020DE000020E100002008B5C84951
:1043A000C848FDF709FDC8490860084600684FF491
:1043B0007A71B0FBF1F42046FDF7B3FEFDF79CFEE9
:1043C000FDF7A8FEFDF7DCFBFDF71CFCFDF760FC2C
:1043D000FCF7D2FF1520FDF72DFB5021BB48FDF760
:1043E000EEFFFDF759FBFDF76DFBB94908600720AB
:1043F000FDF75AFB00211520FDF766FBE0210F2099
:10440000FDF762FBFDF702F800F028FD0120B1493D
:104410000870FDF778FEAF480078C043C2B20121B2
:104420001820FDF77BFAFDF775FE002008E0062155
:10443000A94A11540021A94A1154A94A1154401CF7
:104440000728F4DB1F21A74A117000200090A6491D
:10445000087033E1A548007870B30020A3490870C4
:10446000BDF80000401C80B200901E2817DB002021
:1044700000909F48007828B1012211469D48FDF721
:104480000EFA04E0002201219A48FDF708FA984844
:10449000007808B9012000E0002095490870FFF776
:1044A00015FEFFF791FB9448007828B1032093494B
:1044B00008700020904908709148007800287DD04D
:1044C00000208F4908708F480078401C8D49087083
:1044D0008D48007890B18D480078401C8B49087059
:1044E00008460078022809DB002008708848007818
:1044F00008B9012000E0002085490870FFF782FE1E
:1045000084480078A0B184480078401C8249087033
:104510000846007803280BDB002008707F480078ED
:1045200008B9012000E000207C49087000F096FCEA
:104530007B480078002872D07A480078082818DC78
:1045400079480078401C7849087008460078192896
:1045500065DB002072490870724908707249087062
:104560007249087021217248FCF7E4FA00F076FCE9
:1045700055E05D480078401C5B4908706D48007844
:1045800008B1022000E00520044657480078A04208
:1045900044DB00205449087067480078B0B963488C
:1045A0000078401C61490870084601785D48007831
:1045B000083081421DDB00205C4900E079E0087092
:1045C0005E480078401C5D49087012E0574800784A
:1045D00050B954480078C01D5449087057480078B5
:1045E000401C5649087004E050480078401E4F496E
:1045F00008705248007801280EDB002048490870F6
:10460000484908704D490870484908703649087093
:1046100021214748FCF78EFA00F020FC00BF4848F3
:104620000078401CC0B2464908700A282BDB0020E5
:10463000087000F0E1FD00F011FC42480068401CE9
:104640004049086000F05EFB00F0CEFB3E4890F968
:104650000000633040B13D480078FF2804DA3B4851
:104660000078401C394908703948007801280AD17F
:104670003448006837490968401A3749884202D9E6
:10468000022033490870FDF7B9FE3448007880B144
:1046900033480078002804DD31480078401E304956
:1046A00008702F48007820B9FDF76AFF00202B49D9
:1046B00008702C48007808B100F08EF8CAE60000B7
:1046C000002D3101500500F14800002000C00040DD
:1046D0004C000020D9000020980000209F000020FE
:1046E000A6000020AD000020D600002040000020E1
:1046F0004500002000500240F4000020DC000020B3
:1047000041000020DB000020AE0000200501002059
:10471000B3000020E8000020ED000020EC000020A5
:10472000D3000020D5000020D8000020D4000020B5
:104730004D010020D2000020D1000020D700002031
:10474000B6000020F0000020DE000020E000002085
:10475000E1000020E400002080510100F70000206B
:10476000F6000020580000202DE9F04707460D46CE
:104770003846FCF7F6F8064600240CE0385DFBF7F7
:1047800057FE8146285DFBF753FE814502D000208D
:10479000BDE8F087641CB44202DA285D0028EDD140
:1047A000B44201DA0020F3E74FF0000800240AE0E9
:1047B000FBF736FE0068295D405C00F0100008B190
:1047C00004F10108641C285D0028F1D1464501DB95
:1047D0000120DDE70020DBE72DE9FC5F0020FB493D
:1047E00008704022FA49FB48FCF7C6F90020F94955
:1047F00081F83F004121F648FCF79CF9F54C00E0B8
:10480000641C20782028FBD020780928F8D0207854
:104810000D28F5D020780A28F2D02046FCF7A1F820
:10482000074603E00021781E07462154002F0FDDC4
:10483000781E205C2028F5D0781E205C0928F1D055
:10484000781E205C0D28EDD0781E205C0A28E9D067
:10485000207808B9BDE8FC9F0322DFA12046FCF7C1
:104860009FF818BB002604E0A05DFBF7E1FDA05512
:10487000761CA05D0028F7D1D8A12046FCF7A8F946
:1048800038B9D948006800F0DDFAD8A000F0DAFAAB
:104890000BE0D7A12046FCF79BF930B9D848006857
:1048A00000F0D0FAD1A000F0CDFAD3E7A04600E0A6
:1048B000641C207828B12078202802D0207809288C
:1048C000F6D12078019000202070019808B9204688
:1048D00000E0601C054600E06D1C28782028FBD015
:1048E00028780928F8D0002606E018F80600FBF71B
:1048F0009FFD08F80600761C18F806000028F4D181
:1049000098F800002A2838D13A214046FCF71FF8D1
:1049100090BB28783A2830D105F1010A01E00AF16C
:10492000010A9AF800002028F9D09AF80000092816
:10493000F5D0564600E0761C307828B13078202833
:1049400002D030780928F6D196F800B000203070F7
:104950004346ACA22021AD48CDF800A0FBF78EFD68
:1049600086F800B0354600E06D1C28782028FBD082
:1049700028780928F8D008E0FFE720224146A3481C
:10498000FCF7FAF80020A149C87740222946A04840
:10499000FCF7F2F800209E4981F83F00DFF86C92A6
:1049A0004846FBF7DEFF04280DDB4846FBF7D9FF3E
:1049B0000646324697A14846FBF7F2FF18B928464B
:1049C000FDF74CFF79E14846FBF7CBFF08280DDBEC
:1049D0004846FBF7C6FF0646324690A14846FBF71D
:1049E000DFFF18B92846FEF75BFA66E14846FBF799
:1049F000B8FF08280DDB4846FBF7B3FF06463246F2
:104A000089A14846FBF7CCFF18B92846FEF7D4FD2C
:104A100053E14846FBF7A5FF09280DDB4846FBF7A5
:104A2000A0FF0646324683A14846FBF7B9FF18B9F6
:104A30002846FEF71DFB40E14846FBF792FF092898
:104A40000DDB4846FBF78DFF064632467DA1484602
:104A5000FBF7A6FF18B92846FEF766FB2DE148468E
:104A6000FBF77FFF07280DDB4846FBF77AFF06467A
:104A7000324677A14846FBF793FF18B96448FEF722
:104A800045FD1AE14846FBF76CFF08280DDB484658
:104A9000FBF767FF0646324670A14846FBF780FFEA
:104AA00018B92846FEF7AEF907E14846FBF759FF6B
:104AB00007280DDB4846FBF754FF064632466AA13D
:104AC0004846FBF76DFF18B92846FEF743FCF4E0B3
:104AD0004846FBF746FF07280DDB4846FBF741FF3A
:104AE0000646324663A14846FBF75AFF18B92846E6
:104AF000FEF77CFBE1E04846FBF733FF08280DDBBF
:104B00004846FBF72EFF064632465DA14846FBF7B6
:104B100047FF18B92846FEF78DFCCEE04846FBF764
:104B200020FF09280DDB4846FBF71BFF06463246EF
:104B300056A14846FBF734FF18B92846FDF788FF11
:104B4000BBE04846FBF70DFF07280DDB4846FBF7A7
:104B500008FF0646324650A14846FBF721FF18B928
:104B60002846FEF711FEA8E004224EA14846FBF7B6
:104B700017FFC0B94846FBF7F4FE0C2813DC2E469D
:104B800099F804003A2805D199F8050010B109F107
:104B9000050604E099F8040008B109F1040630465E
:104BA000FDF708FD89E04846FBF7DBFE05280CDB36
:104BB0004846FBF7D6FE064632463CA14846FBF780
:104BC000EFFE10B9FDF734FE77E073E058000020E7
:104BD0000C010020A001002041542B0041542B4324
:104BE0004C41535323000000640000200D0A0000D4
:104BF00041542B53545544454E54434F4445230090
:104C00006800002025733A2573000000E0010020B1
:104C1000000200202A525354000000002A53455439
:104C20003A444154450000002A5345543A54494DF2
:104C3000450000002A5345543A444953504C4159C9
:104C4000000000002A5345543A464F524D4154004B
:104C50002A5345543A4D5347000000002A53455407
:104C60003A424545500000002A5345543A4C4544C9
:104C7000000000002A5345543A4B455900000000FB
:104C80002A5345543A4D4F44450000002A53455499
:104C90003A414C41524D00002A5345543A57454140
:104CA000000000002A474554000000002A50494EE9
:104CB0004700000002A000F0C5F800BFCAE50000F0
:104CC0004552524F520D0A0010B504461CB104A0C3
:104CD00000F0B8F802E006A000F0B4F810BD000043
:104CE0002A4556543A414C41524D0D0A00000000ED
:104CF0002A4556543A414C41524D5F4F46460D0AA3
:104D00000000000030B593B00025002409E01448ED
:104D1000005D28B1C4F10701012088402843C5B2D5
:104D2000641C082CF3DB00240AE00E48005D2028F8
:104D300001D15F2001E00B48005D0DF80400641C08
:104D4000082CF2DB00208DF808002B466A4606A1ED
:104D500003A8FBF77DFB03A800F074F813B030BD87
:104D6000BF000020C70000202A4556543A4449534A
:104D70005020257320253032580D0A0030B591B0EF
:104D800004460D462B46224604A101A8FBF760FB12
:104D900001A800F057F811B030BD00002A45565464
:104DA0003A454449542025732025730D0A0000001C
:104DB00010B588B004460A2C09DA064850F82420B9
:104DC00005A16846FBF744FB684600F03BF808B0D5
:104DD00010BD0000000000202A4556543A4B4559AA
:104DE0002025730D0A00000000B589B0054802783F
:104DF00005A101A8FBF72CFB01A800F023F809B0DE
:104E000000BD0000D90000202A4556543A4C4544C4
:104E100020253032580D0A0010B588B004462246CD
:104E200004A16846FBF714FB684600F00BF808B0D5
:104E300010BD00002A4556543A4D4F444520257375
:104E40000D0A000010B504462046FDF7C1FA012006
:104E50000149087010BD0000F400002030B589B091
:104E6000BEA207CA06AB07C3BF48007870B90024CA
:104E700008E00020BD490855BD4908552020BD491E
:104E80000855641C082CF4DB09B030BDBA48007822
:104E900078B1BA480378BA480278BAA106A8FBF7F5
:104EA000D7FAB3480021016041600120B049487041
:104EB000C9E0B8480078A8B3B7480078002832DDC8
:104EC000B6490878002426E00119B34A12789142C5
:104ED00005DA0119B24A515C06AA11551AE0021905
:104EE000AD49097808318A4203DA202106AA115512
:104EF00010E00219A84B1B78D21A083AA64B1B786F
:104F000092FBF3F503FB1522D1B2A54A525C06AB26
:104F10001A5500BF641C082CD6DB954900220A6094
:104F20004A6090E0FFE79F480078002848D090480A
:104F30000021016041609B48007801280FD19A4808
:104F400000780090994803789948028899A106A8AA
:104F5000FBF77EFA01208649C870487173E09148DA
:104F6000007802280FD19748007800908348037892
:104F70008348027894A106A8FBF76AFA01207C49CD
:104F80004870C8705FE08748007803285BD192487A
:104F90000078401E9149085C00908F480078401EC0
:104FA0008F490B5C8C480078401E8E490A5C86A1B4
:104FB00006A8FBF74DFA01206D494870C87042E021
:104FC0006B480021016041608748007820B10128CA
:104FD00012D0022836D125E07A4800780090674840
:104FE00003786748027878A106A8FBF731FA012018
:104FF0005F494870C87025E06D480088642190FBC7
:10500000F1F201FB120568480078009067480378C8
:105010002A466DA106A8FBF71BFA012054494870E7
:10502000C8700FE0604800780090604803786048DE
:10503000028860A106A8FBF70BFA01204C49C87052
:10504000487100BF00BF69480078012822D10020C4
:1050500001900290002406E0C4F1070006A9085C54
:1050600003A90855641C082CF6DB002406E0C4F1F3
:1050700006003F49085C01A90855641C072CF6DBB3
:10508000DDE90301CDE90601394801990160029982
:10509000416000BF37480699016007994160414867
:1050A0000078002844D05248007888B33D48007802
:1050B00001281AD14F4A127812B90020042108E0C1
:1050C0004C4A1278012A02D10420022101E0062074
:1050D0000221044603E0202206AB1A55641C421844
:1050E000A24201DD082CF6DB22E02E4800780228DF
:1050F00003D02C48007803281AD13E4A12780AB906
:10510000002207E03B4A1278012A02D1022201E084
:105110000EE0042210460221044603E0202206ABE2
:105120001A55641C4218A24201DD082CF6DB00BFB0
:1051300000240FE006A9085DFCF7DAF90B490855D1
:105140000B48005D28B100BF0846005D40F08000BC
:105150000855641C082CEDDB00BF95E620202020BC
:105160002020202000000000B5000020B700002013
:10517000BF000020C7000020EE0000206D000020CE
:105180006C0000202530326425303264202020203D
:1051900000000000D3000020D5000020D400002033
:1051A0004D010020E8000020730000207200002064
:1051B000700000202530346425303264253032649C
:1051C000000000006E00002025303264253032647B
:1051D000253032642020000074000020A60000204A
:1051E0009F00002098000020B4000020D100002083
:1051F000EC000020E900002000B527480078401CA2
:1052000025490870084600783C2844DB00200870D7
:1052100022480078401C21490870084600783C2844
:1052200039DB002008701E480078401C1C490870BB
:105230000846007818282EDB0020087019480078EE
:10524000401C184908701848017818480088FEF773
:10525000BDFC14490978884212DA0120114908700E
:1052600011480078401C10490870084600780C2846
:1052700006DD012008700D480088401C0B4908809D
:105280000B480078401C0A49087008460078072837
:1052900001DD0120087000BD6E0000206D000020BF
:1052A0006C000020730000207200002070000020BD
:1052B0007400002010B500290AD00878002807D013
:1052C00005487844FBF784FC002801D0002010BD7D
:1052D0000248784410BD0000F2060000EA06000013
:1052E0004FF04070E1EE100A704700001F1C1F1EB7
:1052F0001F1E1F1F1E1F1E1FF458000044590000D0
:105300002459000010590000385900004859000085
:1053100034590000004000401000000000800540AB
:1053200010000000005000401100000000900540F7
:1053300011000000006000401200000000A00540C5
:1053400012000000007000401300000000B0054093
:1053500013000000004002401400000000C005409F
:1053600014000000005002402E00000000D0054054
:105370002E000000006002402F00000000E0054009
:105380002F000000007002403000000000F00540D7
:105390003000000000D0034046000000000006403E
:1053A00046000000001006404700000000200640B4
:1053B00048000000003006407F000000004006402A
:1053C000800000000050064084000000006006409D
:1053D0008C000000004000401000000000800540EC
:1053E0001000000000500040110000000090054037
:1053F00011000000006000401200000000A0054005
:1054000012000000007000401300000000B00540D2
:1054100013000000004002401400000000C00540DE
:1054200014000000005002402E00000000D0054093
:105430002E000000006002402F00000000E0054048
:105440002F000000007002403000000000F0054016
:105450003000000000D00340430000000000064080
:1054600043000000001006404400000000200640F9
:105470004500000000300640580000000040064093
:1054800059000000005006405C000000006006402B
:1054900064000000007006406C00000000800640C0
:1054A0006D000000009006407F00000000400040BA
:1054B0000080054000500040009005400060004022
:1054C00000A005400070004000B0054000400240D0
:1054D00000C005400050024000D00540006002407E
:1054E00000E005400070024000F0054000D003409D
:1054F0000000064000100640001006400020064054
:1055000000200640003006400030064000400640C3
:105510000040064000500640005006400060064033
:1055200000600640007006400070064000800640A3
:1055300000800640009006400090064000070000F2
:105540000006000000050000000400000003000049
:105550000002000000010000000000000000000048
:1055600018ED00E01CED00E020ED00E000E400E0BC
:1055700004E400E008E400E00CE400E010E400E0F3
:1055800014E400E018E400E01CE400E020E400E0A3
:1055900024E400E028E400E02CE400E030E400E053
:1055A00034E400E038E400E03CE400E040E400E003
:1055B00044E400E048E400E04CE400E050E400E0B3
:1055C00054E400E058E400E05CE400E060E400E063
:1055D00064E400E068E400E06CE400E070E400E013
:1055E00074E400E078E400E07CE400E080E400E0C3
:1055F00084E400E088E400E000E100E004E100E091
:1056000008E100E00CE100E010E100E080E100E0F2
:1056100084E100E088E100E08CE100E090E100E05E
:1056200000E200E004E200E008E200E00CE200E05A
:1056300010E200E080E200E084E200E088E200E0C6
:105640008CE200E090E200E000688909001C4E0E48
:1056500040420F0000201C0080841E0000802500B6
:10566000999E36000040380000093D0000803E0051
:1056700000004B00404B4C0000204E00808D5B0032
:1056800000C05D000080700000127A0000007D0004
:1056900080969800001BB7000080BB00C0E8CE00D9
:1056A000647ADA000024F4000000FA0080A81201F5
:1056B000002D310100366E0140787D014000000070
:1056C00000000000000100003E0008000000000093
:1056D00000010000A0000000020000000001000026
:1056E0003454010000000000000100002B7006008F
:1056F0000000000000010000280000000000000081
:10570000000100002700010000000000000100006F
:105710002000000000000000000100005000000018
:1057200002000000000100001AAC000000000000B0
:1057300000010000179409000000000000010000B3
:105740001698050000000000000100001400000091
:1057500000000000000100001380080000000000AD
:1057600000010000A000000008000000000100008F
:1057700010000000000000000001000028000000F0
:1057800002000000000100004000000004000000D2
:1057900000010000600000000000000000010000A7
:1057A0005D000C000000000000010000500000003F
:1057B00000000000000100004E0002000000000098
:1057C0000001000041AC01000000000000010000E9
:1057D0003C00000000000000000100003A800900C9
:1057E0000000000000010000300000000000000088
:1057F000000100002800000000000000000100007F
:1058000027000100000000000001000023600600E6
:1058100000000000000100002160080000000000FE
:10582000000100001E000000000000000001000058
:105830001DC0040000000000000100005000000036
:10584000020000000001000018000000000000003D
:105850000001000014000000000000000001000032
:105860006000000004000000000100000024F400BB
:1058700030003000005A62029100910000879303CB
:10588000D200D20000B4C4041301130100E1F505F5
:1058900054015401000E2707950195013031323330
:1058A0003435363738394142434445464030580054
:1058B0003031323334353637383961626364656686
:1058C00040307800040000080000000000000002E2
:1058D000000100001000000041542B535455444572
:1058E0004E54434F4445230041542B434C415353A2
:1058F000230000002D2D2D0055534552310000008E
:10590000555345523200000046554E4300000000FA
:105910004F56430041444400535045454400000065
:1059200057454400434C44005455450053415645A7
:1059300000000000464F47005241490046524900CE
:105940004D4F4E0053554E00534E4F004449535057
:1059500000000000464F524D415400005341540096
:1059600053484946540000004558540054485500D7
:10597000434C41535346313758585858580000004B
:10598000434F4445353137585858585858580000F7
:1059900000000000C45A0000000000200C010000BC
:1059A0003C020000D05B00000C01002094030000CA
:1059B000580200001001000043000000F8FFFFFF44
:1059C0000040404040404040404041414141414012
:1059D00040404040404040404040404040404040C7
:1059E0004005020202020202020202020202020256
:1059F000022020202020202020202002020202025B
:105A000002029090909090901010101010101010B2
:105A100010101010101010101010101002020202BE
:105A20000202888888888888080808080808080802
:105A300008080808080808080808080802020202FE
:105A40004000000000000000000000000000000016
:105A50000000000000000000000000000000000046
:105A60000000000000000000000000000000000036
:105A70000000000000000000000000000000000026
:105A80000000000000000000000000000000000016
:105A90000000000000000000000000000000000006
:105AA00000000000000000000000000000000000F6
:105AB00000000000000000000000000000000000E6
:105AC000000000001459000008590000605900004F
:105AD000185900002C590000545900004C5900007E
