:020000040000FA
:1000000008030020E5020000ED020000EF020000FE
:10001000F1020000F3020000F50200000000000001
:10002000000000000000000000000000F7020000D7
:10003000F902000000000000FB020000A115000012
:10004000FF0200000103000003030000050300009D
:1000500007030000911600000B0300000D030000D1
:100060000F0300001103000013030000150300003C
:1000700017030000190300001B0300001D0300000C
:100080001F030000210300002303000025030000DC
:1000900027030000290300002B0300002D030000AC
:1000A0002F0300003103000033030000350300007C
:1000B00037030000390300003B0300003D0300004C
:1000C0003F0300004103000043030000450300001C
:1000D00047030000490300004B0300004D030000EC
:1000E0004F030000510300005303000055030000BC
:1000F00057030000590300005B0300005D0300008C
:100100005F0300006103000063030000650300005B
:1001100067030000690300006B0300006D0300002B
:100120006F030000710300007303000075030000FB
:1001300077030000790300007B0300007D030000CB
:100140007F03000081030000830300009D03000083
:1001500000000000000000009F030000A103000059
:10016000A3030000A503000000000000A703000097
:10017000A9030000AB030000AD030000AF030000C3
:10018000B1030000B3030000B5030000B703000093
:10019000B9030000BB030000BD030000BF03000063
:1001A000C1030000C3030000C5030000C703000033
:1001B000C9030000CB030000CD030000CF03000003
:1001C000D1030000D3030000D5030000D7030000D3
:1001D000D9030000DB030000DD030000DF030000A3
:1001E000E1030000E3030000E5030000E703000073
:1001F000E9030000EB030000ED030000EF03000043
:1002000000F002F800F04AF80AA090E8000C8244DE
:100210008344AAF10107DA4501D100F03FF8AFF2BB
:10022000090EBAE80F0013F0010F18BFFB1A43F0D4
:10023000010318474021000060210000103A24BF4C
:1002400078C878C1FAD8520724BF30C830C144BF3B
:1002500004680C607047000000230024002500267D
:10026000103A28BF78C1FBD8520728BF30C148BF19
:100270000B607047642900F01F81002070471FB594
:1002800001F080FD00F0ECFA04000020002101F0F4
:1002900063FD401C60601FBD10B510BD00F086FB03
:1002A0001146FFF7ECFF01F021FB00F0A4FB03B4C3
:1002B000FFF7F2FF03BC00F0A7FB0000EFF3108094
:1002C00072B67047EFF310807047EFF3108062B69C
:1002D000704730BF704780F311887047EFF311808B
:1002E000704700004548804745480047FEE7FEE765
:1002F000FEE7FEE7FEE7FEE7FEE7FEE7FEE7FEE7D6
:10030000FEE7FEE7FEE7FEE7FEE7FEE7FEE7FEE7C5
:10031000FEE7FEE7FEE7FEE7FEE7FEE7FEE7FEE7B5
:10032000FEE7FEE7FEE7FEE7FEE7FEE7FEE7FEE7A5
:10033000FEE7FEE7FEE7FEE7FEE7FEE7FEE7FEE795
:10034000FEE7FEE7FEE7FEE7FEE7FEE7FEE7FEE785
:10035000FEE7FEE7FEE7FEE7FEE7FEE7FEE7FEE775
:10036000FEE7FEE7FEE7FEE7FEE7FEE7FEE7FEE765
:10037000FEE7FEE7FEE7FEE7FEE7FEE7FEE7FEE755
:10038000FEE7FEE7FEE7FEE7FEE7FEE7FEE7FEE745
:10039000FEE7FEE7FEE7FEE7FEE7FEE7FEE7FEE735
:1003A000FEE7FEE7FEE7FEE7FEE7FEE7FEE7FEE725
:1003B000FEE7FEE7FEE7FEE7FEE7FEE7FEE7FEE715
:1003C000FEE7FEE7FEE7FEE7FEE7FEE7FEE7FEE705
:1003D000FEE7FEE7FEE7FEE7FEE7FEE7FEE7FEE7F5
:1003E000FEE7FEE7FEE7FEE7FEE7FEE7FEE7FEE7E5
:1003F00004480549034A054B704700007116000088
:10040000010200000801002008030020080100206C
:1004100010B500F025FA001D10BD00BF3D19000009
:1004200010B50446FFF7F4FF0068005D000704D52F
:10043000DF2C02D0A4F1200010BD204610BD00002A
:100440000FB41CB5074B06AA7B446946009005987B
:1004500000F069FA0020694600F078FA1CBC5DF8EB
:1004600014FB00000105000070B5044685690068B2
:10047000C10601D5302600E02026C00707D070BD98
:10048000D4E9012130469047206A401C20626D1E4D
:10049000F6D570BD70B5044685690078C00707D1F0
:1004A00070BDD4E9012120209047206A401C2062C1
:1004B0006D1EF6D570BD00002DE9F0410646002402
:1004C00010687529314616A510D0AFF300800028BA
:1004D00002DA404213A507E031688A0701D512A568
:1004E00002E0490704D511A5012401E0AFF3008023
:1004F00000210A2206F1240709E0B0FBF2FCB0FB60
:10050000F2F302FB1C00303078541846491C0028D6
:10051000F3D123462A463046BDE8F04100F0A4B9A5
:10052000000000002D0000002B0000002000000053
:100530002DE9F05F894604464FF0000ADFF824B148
:10054000FB44C0F820A02046E168884700287DD001
:10055000252806D0D4E901219047206A401C20625A
:10056000F1E700255F462046E168884720280646D7
:1005700007DB312E05D2B81910F8200C08B105435D
:10058000F1E7A80701D525F00405C4F81CA0002751
:10059000C4F818A02A2E09D0304601F03BF938B330
:1005A00004EB8708303EC8F8186019E059F8041BBE
:1005B000204604EB87029161E1688847012F0646D7
:1005C00018D1E069002820DA25F020051DE0D8F8D0
:1005D000180000EB800006EB40003038C8F8180027
:1005E0002046E1688847064601F014F90028EED15C
:1005F000012F0AD02E2E08D12046E16888477F1CA3
:100600000646022F45F02005C4DBA069002803DA66
:10061000404245F00105A061E80701D025F0100532
:10062000A6B1A6F14100192802D8203645F400658C
:100630004A463146204625604D46FFF71BFE60B115
:10064000012807D0ED1D25F0070000E007E000F1CC
:10065000080978E705F1040975E730467AE7206A6A
:10066000BDE8F09FE01D000010B5431C02E010F84B
:10067000011B71B18107FAD14FF0013202C88C1A07
:100680008C4314EAC211F9D0C01A0A0603D0C01E66
:1006900010BDC01A10BD0A0401D0801E10BD090291
:1006A000FCD0401E10BD40EA010370B59B072ED15F
:1006B0004FF00136042A2AD308C810C99D1B9D4358
:1006C000121F15EAC61517D0D8B2E1B2401A50EA87
:1006D000056110D198B2A1B2401A50EA05410AD181
:1006E00023F07F4024F07F41401A50EA052102D1D7
:1006F000180EA0EB146070BDA342DBD018BA21BA6B
:10070000884201D9012070BD4FF0FF3070BD0AB999
:10071000002070BD10F8013B11F8014B63B1A342FA
:100720000AD1521E08D010F8013B11F8014B1BB141
:10073000A34201D1521EEDD1181B70BD4FF0000233
:100740000429C0F0128010F0030C00F00681CCF1F7
:10075000040CBCF1020F18BF00F8012BA8BF20F851
:10076000022BA1EB0C0100F0F8B85FEAC17C24BFBA
:1007700000F8012B00F8012B48BF00F8012B70474F
:1007800010B5044610F0030F08BF11F0030F40F03E
:1007900015804FF0013E121FC0F20E8051F8043B4D
:1007A000A3EB0E0C2CEA030C1CEACE1C08BF40F88D
:1007B000043BF0D0A1F1040102F10402521E08DB57
:1007C00011F8013B002B00F8013BF7D11146FFF770
:1007D000B5FF204610BD00004FF0013C50F8042B3F
:1007E00051F8043B9A4221D1A2EB0C03934313EA44
:1007F000CC1317D150F8042B51F8043B9A4215D171
:10080000A2EB0C03934313EACC130BD150F8042B47
:1008100051F8043B9A4209D1A2EB0C03934313EA2B
:10082000CC13DBD04FF00000704700BFD01A01BAE4
:10083000B1FA81F101F0180122FA01F0CB40C1F1C7
:100840002001DBB2C0B2C01A2CFA01F3D11A9143D5
:1008500011EAC311E6D17047704770477047000036
:1008600000487047C40000202DE9F0470D46994626
:100870009246044600F124080168880604D5E06920
:1008800021F01001216000E00120A84201DD471B9A
:1008900000E00027A1697A1902EB0900081AA0619B
:1008A0002078C00602D42046FFF7DEFD002608E0CF
:1008B000D4E901211AF806009047206A401C761CF2
:1008C00020624E45F4DB2078C0060AD52046FFF7AB
:1008D000CBFD06E0D4E9012130209047206A401C7E
:1008E0002062381EA7F10107F4DC07E0D4E90121FA
:1008F00018F805009047206A401C2062281EA5F1C8
:100900000105F3DC2046FFF7C5FD2078000602D57F
:100910000220BDE8F0870120FBE7000001694A1CC6
:1009200002610878704700B58FB0CDE90131002130
:10093000059105497944CDE9031011466846FFF752
:10094000F7FD0FB000BD0000E5FFFFFF0A6802F8E9
:10095000010B0A6070474FF0000200B51346944641
:100960009646203922BFA0E80C50A0E80C50B1F107
:100970002001BFF4F7AF090728BFA0E80C5048BF1B
:100980000CC05DF804EB890028BF40F8042B08BFB9
:10099000704748BF20F8022B11F0804F18BF00F8B5
:1009A000012B704700487047A40000207546FFF7F0
:1009B000F9FFAE4605006946534620F0070085461C
:1009C00018B020B5FFF714FDBDE820404FF0000639
:1009D0004FF000074FF000084FF0000B21F0070127
:1009E000AC46ACE8C009ACE8C009ACE8C009ACE86A
:1009F000C0098D46704710B50446AFF3008020460D
:100A0000BDE81040FFF753BC01491820ABBEFEE71C
:100A1000260002007047000010B500F0AEFDFF2276
:100A2000642120A000F0ACFB0022642120A000F093
:100A3000A7FBFF22962121A000F0A2FB0022322179
:100A40001BA000F09DFBFF2296211CA000F098FB4C
:100A50000022642116A000F093FBFF2296211AA029
:100A600000F08EFB0022322111A000F089FBFF2252
:100A7000962115A000F084FB002264210CA000F058
:100A80007FFB0022C82113A000F07AFB0022322154
:100A900007A000F075FB124800210160416000F0E2
:100AA00073FD10BD38383838383838380000000049
:100AB000202020202020202000000000323032366C
:100AC000303030310000000048555A48454E5945F5
:100AD0000000000056312E302020202000000000B1
:100AE0005800002010B50446302C06DB392C04DCFD
:100AF000A4F130003149085C10BD412C4ADB5A2C6E
:100B000048DCA4F141001A2842D2DFE800F00D0FC2
:100B100011131517191B1D1F21232527292B2D2FD5
:100B200031333537393B3D3F7720E5E77C20E3E73C
:100B30003920E1E75E20DFE77920DDE77120DBE7A0
:100B40003D20D9E77620D7E70620D5E70E20D3E76A
:100B50007620D1E73820CFE75520CDE75420CBE7EA
:100B60005C20C9E77320C7E76720C5E75020C3E7CB
:100B70006D20C1E77820BFE73E20BDE71C20BBE722
:100B80007E20B9E77620B7E76E20B5E75B20B3E7B4
:100B90000020B1E7612C07DB7A2C05DCA4F12001F1
:100BA000C8B2FFF79FFFA7E72E2C01D18020A3E753
:100BB0002D2C01D140209FE700209DE70000002060
:100BC000084A1268084BB2FBF3F242430323B2FB1C
:100BD000F3F102E000BF00BF00BF0A1EA1F1010156
:100BE000F8D170472000002040420F00D0F80034B8
:100BF00012F0010F14BF0B438B43C0F8003412F006
:100C0000020FD0F8202414BF114322EA0101C0F8DA
:100C1000201470472DE9F00301264FF0000C032546
:100C2000C2F3411706FA0CF40C4211D0D0F8C48F6D
:100C30004FEA4C0405FA04F928EA0908C0F8C48F01
:100C4000D0F8C48F07FA04F448EA0404C0F8C44F8B
:100C50000CF1010C0CF0FF0CBCF1080FE2D3D0F842
:100C600000C512F0010F14BF4CEA010C2CEA010C74
:100C7000C0F800C5D0F804C512F0020F14BF4CEA4A
:100C8000010C2CEA010CC0F804C5D0F808C512F01C
:100C9000040F14BF4CEA010C2CEA010CC0F808C583
:100CA000D0F818C512F0080F14BF4CEA010C2CEA5A
:100CB000010CC0F818C512F0100FD0F83C2514BF75
:100CC0000A438A43C0F83C25D0F80C2513F0010FE5
:100CD00014BF0A438A43C0F80C25D0F8102513F03E
:100CE000020F14BF0A438A43C0F81025D0F8142518
:100CF00013F0040F14BF0A438A43C0F81425D0F838
:100D00001C2513F0080F14BF0A438A43C0F81C25A2
:100D1000D0F8442513F4007F14BF0A438A43C0F877
:100D20004425D0F8402513F4407F14BF0A438A437A
:100D3000C0F84025D0F82825002B0CBF114322EA2B
:100D40000101C0F82815BDE8F00370470E4AC0F352
:100D50000741D26E01238B401A420C4A1ABF02EBA4
:100D6000C101496852F83110020AD1F82C354FF010
:100D70000F0C0CFA02FC00F00F0023EA0C03904069
:100D80001843C1F82C05704700E00F40341F0000E5
:100D900050F82100704730B50C4605460022FFF799
:100DA00025FF21462846BDE8304008230122FFF7F1
:100DB00031BF30B50C46054608230122FFF72AFF54
:100DC00021462846BDE830400122FFF70FBF30B56D
:100DD0000C4605460222FFF709FF21462846BDE8DA
:100DE000304009230122FFF715BF30B50C460546F8
:100DF0000222FFF7FBFE21462846BDE830400823CB
:100E00000122FFF707BF30B50C4605460222FFF767
:100E1000EDFE21462846BDE8304008230122FFF7B9
:100E2000F9BE40F8212070472DE9F04104460F46F5
:100E3000154600BF184800F031F80028FAD100220A
:100E40002146154800F070F83946134800F02EF896
:100E50000321114800F028F800BF0F4800F01EF8E9
:100E60000028FAD10C4800F028F8C6B229460A48F2
:100E700000F01CF80521084800F016F800BF0648ED
:100E800000F00CF80028FAD1034800F016F8C6B2BA
:100E90003046BDE8F081000000000240406810F0DC
:100EA000010018BF012070474160704781607047A2
:100EB000016A41F0100101627047406810F0010FB3
:100EC00005D110F0120F1CBF00F01C00704700206D
:100ED00070470000036A43F010030362002A14BF46
:100EE0000E4A0F4A02EB820301EB830302EB8202FC
:100EF00092005B1EB3FBF2F2521EC260D0F8C02F0C
:100F000012F0010F08BF7047064A1144521CB1FB92
:100F1000F2F1491E41F08001C1607047801A06005D
:100F2000A08601007F47370142EA41010160704716
:100F30001649042804BF086840F4803018D00528FA
:100F400004BF086840F4003012D0062812D00F28E1
:100F500015D0102838BF7047103800F01F0101224B
:100F600002FA01F142090A4850F822000160704774
:100F700008607047086840F48020086070474FF0B0
:100F8000E020016941F002010161704724ED00E0B9
:100F90008020000010B5FFF798F9002818BF012045
:100FA00010BD0000044951F82000044940F0FD70D4
:100FB00040F0806008607047C41F00000CED00E046
:100FC000FFF78CB9084A20F00303D2581368800752
:100FD000C00E4FF0FF0C0CFA00FC23EA0C0301FAE0
:100FE00000F0184310607047E41F000010B51B4864
:100FF00000F092FA00BF194800F0A2FA0028FAD0D7
:101000001648C01C00F088FA00BF1448C01C00F04D
:1010100097FA0028F9D01148C01D00F07DFA00BFF2
:101020000E48C01D00F08CFA0028F9D001210C48B0
:10103000FFF7BFFE01210B48FFF7BBFE0221094865
:10104000FFF7B7FE03210848FFF7A5FE0A23012298
:1010500003210548FFF7DEFD10BD0000050800F084
:10106000005002400040064000D0034010B51E482A
:1010700000F052FA1D4800F04FFA1D48FFF766FED7
:101080001C48FFF763FE04211B48FFF7AEFE082152
:101090001948FFF79CFE0122184801681848FFF71D
:1010A00019FF1748FFF704FFFF220C212220FFF74A
:1010B000BBFE044600220D212220FFF7B5FE0446A8
:1010C00000220E212220FFF7AFFE0446002203215A
:1010D0001820FFF7A9FE0446FF2201211820FFF780
:1010E000A3FE044610BD0000002000F0010800F03F
:1010F00002080100020C0100005000402000002006
:101100000000024010B5144800F006FA134800F041
:1011100003FA00BF114800F013FA0028FAD00120AA
:10112000FFF714FE40F20140FFF710FE03214FF0DD
:101130004020FFF768FE60234FF4E1320848016861
:10114000084800F0CCFA18220321064800F0FEFA05
:1011500005A000F051FB10BD001800F0000800F0E1
:101160002000002000C000400D0A436C6F636B201C
:1011700053797374656D2052656164790D0A0000BE
:101180002DE9FC4705460F469046002408E0285DFF
:1011900000B907E0285DFFF7A5FC0DF80400641C0A
:1011A000082CF4DB00BF03E000200DF80400641CF1
:1011B000082CF9DB002632E000242DE00022062175
:1011C0002220FFF731FE184908700A20FFF7F8FCCB
:1011D0001DF8042005212220FFF726FE1249087081
:1011E0000A20FFF7EDFC04F0FF09012000FA09F0E6
:1011F000C2B206212220FFF717FE0B4908706FEAE2
:101200000800C2B201211820FFF70EFE064908703F
:101210006420FFF7D5FC641C082CCFDB761CBE4293
:10122000CAD3BDE8FC8700001A0000202DE9F003B6
:10123000AF4D02462868AF4B1840A0F18053B3F57C
:10124000A02359D002F03809DFF8AC82C2F384142D
:10125000B9F1100F25D0B9F1300F04BF47F230506B
:101260004FF400130DD04FF03800904304BF4FF4FB
:101270000040C30105D012F0380F1CBF0020034608
:1012800013D09E4F12F4605F4FF0000618BF00228B
:101290002CD057F8324044457DD307EBC202526848
:1012A000E1E0002340461524EBE7A4F109001228F1
:1012B00022D29348D5F87CC04FF04C7350F82400EC
:1012C0002CF01C0C072CA8BF4CF0100CC5F87CC0EF
:1012D0002E6D4FF4002C16F4807FD2D1BCF1010C9E
:1012E0000AD02E6D16F4807FF8D0CAE712F0380FBE
:1012F00018BFB9F1100F04D0BDE8F0034FF00000A3
:101300007047C2F30268DFF8FCC14FF0000257F8E3
:101310003290E14503D307EBC202526803E0521C4E
:10132000062AF4D33246C5F8C020D5F8B020DFF83D
:10133000D8C102EA0C0242F00042C5F8B020DFF842
:10134000CCC1A4F109024C1E5CF828C0A444BCFB2B
:10135000F1FCD5F8B0101943C5F8B01008EBC8017E
:1013600001EB41046A4902EB420201EBC40101EBCB
:1013700082046468C5F86441D5F864416FF0FF08E1
:1013800008EB0C2C44EA0C0CC5F864C151F822108F
:10139000D5F8602100E061E002F400021143C5F8D5
:1013A0006011D5F86011D5F86021C1F38921C2F32D
:1013B0000904D5F86421C2F3042202F1010CD5F826
:1013C000642102F01F02521CB0FBF2F04A09C2F184
:1013D00000084443424301EB481104EB52124843D6
:1013E00002EB9020B0FBFCF041080846002257F8C1
:1013F00032C0844503D307EBC200466802E0521CAA
:10140000062AF4D3C5F8C060D5F8600110F4000FC7
:101410001DBFD5F8B00040F08040C5F8B000D5F849
:10142000600104BF40F40000C5F860014FF40040C3
:10143000D5F8682112F0010F02D1401E0028F7DC18
:10144000002808BF002148D0D5F8B000184340F06C
:10145000010040F01040C5F8B0003EE0521C062AE2
:10146000FFF417AF3246C5F8C020D5F8602122F44A
:101470000002C5F86021D5F8B020DFF898C002EA74
:101480000C0242F00042C5F8B020002908BF4FF01E
:10149000000C0AD0B0FBF1FCBCF1000F18BFACF19E
:1014A000010C0CF10101B0FBF1F10846002257F8E4
:1014B0003240844203D307EBC200466802E0521C6C
:1014C000062AF4D3C5F8C060D5F8B00043EA8C22F0
:1014D000104340F00040C5F8B000D5F8B00020F44B
:1014E0007000C5F8B000BDE8F00308467047000082
:1014F00000E00F400000FF700024F400F422000020
:10150000D820000040787D0100FC0FE0D0200000D2
:1015100044210000FF0300EFC0F307230749C0B2D6
:10152000194401F07043C1F3130143EA411141EA48
:10153000800040F0007001220260704700E60F401A
:10154000C0F307220849C0B2114401F07042C1F350
:10155000130142EA411141EA800040F00070006846
:10156000002818BF0120704700EA0F404FF0E0202C
:10157000016941F00501016170474FF0E020016908
:1015800021F00201016170474FF0E020016941F054
:101590000201016170474FF0E021401E4861704731
:1015A00010B5002206212220FFF73EFC0520FFF7A0
:1015B00007FB274827490978425C05212220FFF7CD
:1015C00033FC0520FFF7FCFA224804780120A040F4
:1015D000C2B206212220FFF727FC1E480078401CDB
:1015E0001C49087008460078082801DB00200870B4
:1015F0001948008828B118480088401E16490880FC
:1016000005E064201449088001201449087014483A
:10161000008828B112480088401E1149088005E062
:101620000A200F49088001200E49087001210E4848
:10163000FFF7AEFB28B9012211460C48FFF7F1FB7A
:1016400004E0002201210948FFF7EBFB10BD000078
:10165000580000206800002016000020190000201B
:10166000140000201800002000D003400040064075
:101670000448006840F470000249086002480349C9
:101680000860704788ED00E00024F4006C00002042
:1016900010B50121064800F062F8044621460448CE
:1016A00000F057F82146034800F05EF810BD000036
:1016B00000C0004070000020816911F0100F0CBFC5
:1016C00000684FF0FF307047826912F0200FFBD1A5
:1016D000016070478069012121EA10107047D0F83D
:1016E00018C01CF0080FFAD1D0F82CC02CF0100C48
:1016F000C0F82CC0D0F830C02CF0010C2CF4407C89
:10170000C0F830C0D0F830C0B1EB021F34BF4CF08D
:10171000200C2CF0200CC0F830C038BF5208C90093
:10172000B1FBF2F1491C49088A09426201F03F010C
:101730008162C36200218161C16A41F01001C1620E
:10174000016B40F201321143016370471143416361
:10175000704741647047826B114381637047002971
:1017600014BF006CC06B704770B504460D46102D59
:101770001FD10AE01D48FFF79FFF1D49096860540B
:101780001B480068401C1A4908601848FFF7A2FF70
:101790000028EFD116480068401E205C232808D19D
:1017A000002013490968605411490860012011495B
:1017B0000870402D18D10AE00C48FFF77DFF0C4956
:1017C000096860540A480068401C094908600748D5
:1017D000FFF780FF0028EFD10549096860540449EC
:1017E000086001200349087070BD000000C000407F
:1017F0002C0000203000002010B5044604E014F84E
:10180000011B0348FFF760FF20780028F7D110BDC7
:1018100000C0004030380A2801D201207047002063
:101820007047000030B505460C46022C05D128460D
:1018300000F00AF808B11D2030BD601E0149085CA7
:10184000FAE700008E1D000001460A46C81701EBAA
:1018500090708010A1EB800028B9642091FBF0F318
:1018600000FB131030B94FF4C87091FBF0F300FB8C
:10187000131008B9012070470020FCE770B5012162
:101880001548FFF785FAC4B2144805682CB9144806
:10189000007810B1134805601BE0D4B110480078FF
:1018A000B8B910480068281A142812D90D480068E1
:1018B000281AB0F57A7F0CD20B480078401C0A49F0
:1018C000087008460078022801DD0020087000F04A
:1018D00061F90348047070BD00D00340540000203B
:1018E0004F000020500000204C00002008B53E4969
:1018F0003E48FFF79BFC3E490860084600684FF4ED
:101900007A71B0FBF1F42046FFF745FEFFF72EFE9B
:10191000FFF73AFEFFF76AFBFFF7A8FBFFF7F2FBC2
:101920001520FFF705FB50213248FFF714FFFFF7A2
:1019300031FBFFF745FB304908600720FFF732FB1A
:1019400000211520FFF73EFBE0210F20FFF73AFBB7
:10195000FFF762F800F01EF944E02848007840B331
:10196000002026490870264800680A30244908608B
:10197000BDF80000401C80B200901E2817DB00203C
:1019800000902048007828B1012211461E48FFF738
:1019900048FA04E0002201211B48FFF742FA1948E7
:1019A000007808B9012000E0002016490870FFF710
:1019B00065FF1648007880B100201449087014486B
:1019C0000078401CC0B2124908700A2805DB0020CC
:1019D000087000F06FF900F0DDF80E48007808B1EB
:1019E00000F01AF8B9E70000002D3101500500F1B0
:1019F0002000002000C0004024000020180000202B
:101A0000540000201D00002000500240190000205A
:101A10004E0000203000002070B590B040224549B3
:101A20006846FEF7ADFE00208DF83F006C4600E0F2
:101A3000641C207840B1FEF7EBFC00682178405C24
:101A400000F001000028F3D12046FEF70DFE054608
:101A500003E00021681E21546D1E002D09DDFEF7F4
:101A6000D7FC0168681E205C085C00F001000028BB
:101A7000EFD1002604E0A05DFEF7D2FCA055761C55
:101A8000A05D0028F7D12CA12046FEF7A5FE38B9AD
:101A90002C480068FFF7B0FE2BA0FFF7ADFE40E03A
:101AA0002AA12046FEF798FE38B92C480068FFF7B7
:101AB000A3FE25A0FFF7A0FE33E0092228A12046BF
:101AC000FEF7F1FD00282CD104F1090600E0761C98
:101AD000307840B1FEF79CFC00683178405C00F043
:101AE00001000028F3D121A13046FEF775FE30B980
:101AF00001201F4908701FA0FFF77EFE0EE01FA106
:101B00003046FEF769FE30B900201949087019A067
:101B1000FFF772FE02E01AA0FFF76EFE00F03AF83F
:101B200000BF32210348FEF709FE00201849087063
:101B300010B070BD7000002041542B434C415353F2
:101B4000230000003C0000200D0A000041542B53EC
:101B5000545544454E54434F444523004000002013
:101B60002A5345543A444953500000004F4E000058
:101B70004D0000204F4B0D0A000000004F4646006C
:101B80004552524F5220504152414D0D0A00000023
:101B9000300000207FB50020019002900390334870
:101BA000007850B9002405E000203149085531493A
:101BB0000855641C082CF7DB7FBD2E48002101600E
:101BC00041602D48007820B1012812D0022835D17B
:101BD00025E02A48007800902948037829480278AF
:101BE00029A101A8FEF72CFC012022494870C870E9
:101BF00024E029480088642190FBF1F201FB1205E2
:101C0000264800780090264803782A461EA101A89D
:101C1000FEF716FC012017494870C8700EE01F48F7
:101C2000007800901E4803781B4802881DA101A877
:101C3000FEF706FC01200F49C87000BF00BF00245A
:101C40000FE001A9085DFEF74DFF09490855094855
:101C5000005D28B100BF0846005D40F080000855D7
:101C6000641C082CEDDB00BFA6E700004D0000203F
:101C700058000020600000204C000020460000209A
:101C800045000020440000202530326425303264B5
:101C90002530326420200000480000204B00002046
:101CA0004A00002025303464253032642530326407
:101CB0000000000000B522480078401C2049087050
:101CC000084600783C2839DB002008701D48007861
:101CD000401C1C490870084600783C282EDB002078
:101CE000087019480078401C1749087008460078A9
:101CF000182823DB0020087014480078401C134982
:101D000008701348017813480088FFF78BFD0F49CE
:101D10000978884212DA01200C4908700C480078D2
:101D2000401C0B490870084600780C2806DD01208D
:101D3000087008480088401C0649088000BD000063
:101D40004600002045000020440000204B000020F9
:101D50004A0000204800002010B500290AD0087869
:101D6000002807D005487844FEF736FD002801D04A
:101D7000002010BD0248784410BD00002E0600006F
:101D8000260600004FF04070E1EE100A70471F1C5D
:101D90001F1E1F1E1F1F1E1F1E1F00000040004091
:101DA00010000000008005401000000000500040BE
:101DB000110000000090054011000000006000408C
:101DC0001200000000A0054012000000007000405A
:101DD0001300000000B00540130000000040024066
:101DE0001400000000C00540140000000050024034
:101DF0002E00000000D005402E00000000600240D0
:101E00002F00000000E005402F000000007002409D
:101E10003000000000F005403000000000D003401A
:101E2000460000000000064046000000001006408A
:101E30004700000000200640480000000030064037
:101E40007F00000000400640800000000050064077
:101E500084000000006006408C000000004000404C
:101E600010000000008005401000000000500040FD
:101E700011000000009005401100000000600040CB
:101E80001200000000A00540120000000070004099
:101E90001300000000B005401300000000400240A5
:101EA0001400000000C00540140000000050024073
:101EB0002E00000000D005402E000000006002400F
:101EC0002F00000000E005402F00000000700240DD
:101ED0003000000000F005403000000000D003405A
:101EE00043000000000006404300000000100640D0
:101EF000440000000020064045000000003006407D
:101F00005800000000400640590000000050064004
:101F10005C000000006006406400000000700640A5
:101F20006C000000008006406D000000009006403C
:101F30007F0000000040004000800540005000404D
:101F4000009005400060004000A005400070004087
:101F500000B005400040024000C005400050024073
:101F600000D005400060024000E0054000700240E3
:101F700000F0054000D0034000000640001006407D
:101F800000100640002006400020064000300640B9
:101F90000030064000400640004006400050064029
:101FA0000050064000600640006006400070064099
:101FB0000070064000800640008006400090064009
:101FC0000090064000070000000600000005000029
:101FD00000040000000300000002000000010000F7
:101FE000000000000000000018ED00E01CED00E023
:101FF00020ED00E000E400E004E400E008E400E09C
:102000000CE400E010E400E014E400E018E400E078
:102010001CE400E020E400E024E400E028E400E028
:102020002CE400E030E400E034E400E038E400E0D8
:102030003CE400E040E400E044E400E048E400E088
:102040004CE400E050E400E054E400E058E400E038
:102050005CE400E060E400E064E400E068E400E0E8
:102060006CE400E070E400E074E400E078E400E098
:102070007CE400E080E400E084E400E088E400E048
:1020800000E100E004E100E008E100E00CE100E034
:1020900010E100E080E100E084E100E088E100E0A0
:1020A0008CE100E090E100E000E200E004E200E00A
:1020B00008E200E00CE200E010E200E080E200E074
:1020C00084E200E088E200E08CE200E090E200E0E0
:1020D00000688909001C4E0E40420F0000201C00C1
:1020E00080841E0000802500999E36000040380044
:1020F00000093D0000803E0000004B00404B4C00BA
:1021000000204E00808D5B0000C05D0000807000EC
:1021100000127A0000007D0080969800001BB70036
:102120000080BB00C0E8CE00647ADA000024F4002E
:102130000000FA0080A81201002D310100366E0166
:1021400040787D0140000000000000000001000018
:102150003E0008000000000000010000A000000098
:1021600002000000000100003454010000000000E3
:10217000000100002B7006000000000000010000BC
:1021800028000000000000000001000027000100FE
:10219000000000000001000020000000000000001E
:1021A00000010000500000000200000000010000DB
:1021B0001AAC0000000000000001000017940900A4
:1021C000000000000001000016980500000000005B
:1021D00000010000140000000000000000010000E9
:1021E000138008000000000000010000A0000000B3
:1021F00008000000000100001000000000000000C6
:1022000000010000280000000200000000010000A2
:102210004000000004000000000100006000000019
:1022200000000000000100005D000C000000000044
:10223000000100005000000000000000000100004C
:102240004E000200000000000001000041AC01004F
:1022500000000000000100003C0000000000000041
:10226000000100003A8009000000000000010000A9
:102270003000000000000000000100002800000005
:102280000000000000010000270001000000000025
:1022900000010000236006000000000000010000B3
:1022A0002160080000000000000100001E00000086
:1022B00000000000000100001DC00400000000003C
:1022C00000010000500000000200000000010000BA
:1022D00018000000000000000001000014000000D1
:1022E0000000000000010000600000000400000089
:1022F000000100000024F40030003000005A6202A7
:102300009100910000879303D200D20000B4C4046E
:102310001301130100E1F50554015401000E2707D4
:102320009501950104000008000000000000000273
:10233000000100001000000041542B535455444547
:102340004E54434F4445230041542B434C41535377
:1023500023000000434C41535346313758585858D6
:1023600058000000434F44453531375858585858A5
:1023700058580000A4240000000000207000000055
:102380003C020000142500007000002098020000AC
:10239000580200001001000043000000F8FFFFFF9A
:1023A0000040404040404040404041414141414068
:1023B000404040404040404040404040404040401D
:1023C00040050202020202020202020202020202AC
:1023D00002202020202020202020200202020202B1
:1023E0000202909090909090101010101010101009
:1023F0001010101010101010101010100202020215
:102400000202888888888888080808080808080858
:102410000808080808080808080808080202020254
:10242000400000000000000000000000000000006C
:10243000000000000000000000000000000000009C
:10244000000000000000000000000000000000008C
:10245000000000000000000000000000000000007C
:10246000000000000000000000000000000000006C
:10247000000000000000000000000000000000005C
:10248000000000000000000000000000000000004C
:10249000000000000000000000000000000000003C
:1024A000000000003F065B4F666D7D077F6F777C05
:1024B000585E79715C0040000000000000000000E0
:1024C000000001000000000000000000000000000B
:1024D0000000000000000000482300003823000036
:1024E00054230000642300000C223800EA07060889
:1024F000000100FF000000000000000000000000DC
:1025000000000000000000000000000000000000CB
:042510000024F400AF
:0400000500000201F4
:00000001FF
