:020000040000FA
:1000000060040020F5020000FD020000FF02000075
:1000100001030000030300000503000000000000CE
:1000200000000000000000000000000007030000C6
:1000300009030000000000000B0300000520000081
:100040000F0300001103000013030000150300005C
:1000500017030000E12100001B0300001D03000046
:100060001F030000210300002303000025030000FC
:1000700027030000290300002B0300002D030000CC
:100080002F0300003103000033030000F5200000BF
:1000900037030000390300003B0300003D0300006C
:1000A0003F0300004103000043030000450300003C
:1000B00047030000490300004B0300004D0300000C
:1000C0004F030000510300005303000055030000DC
:1000D00057030000590300005B0300005D030000AC
:1000E0005F0300006103000063030000650300007C
:1000F00067030000690300006B0300006D0300004C
:100100006F0300007103000073030000750300001B
:1001100077030000790300007B0300007D030000EB
:100120007F030000810300008303000085030000BB
:1001300087030000890300008B0300008D0300008B
:100140008F0300009103000093030000AD03000043
:100150000000000000000000AF030000B103000039
:10016000B3030000B503000000000000B703000067
:10017000B9030000BB030000BD030000BF03000083
:10018000C1030000C3030000C5030000C703000053
:10019000C9030000CB030000CD030000CF03000023
:1001A000D1030000D3030000D5030000D7030000F3
:1001B000D9030000DB030000DD030000DF030000C3
:1001C000E1030000E3030000E5030000E703000093
:1001D000E9030000EB030000ED030000EF03000063
:1001E000F1030000F3030000F5030000F703000033
:1001F000F9030000FB030000FD030000FF03000003
:1002000000F002F800F053F80AA090E8000C8244D5
:100210008344AAF10107DA4501D100F048F8AFF2B2
:10022000090EBAE80F0013F0010F18BFFB1A43F0D4
:10023000010318474850000068500000103A24BFDE
:1002400078C878C1FAD8520724BF30C830C144BF3B
:1002500004680C607047000000230024002500267D
:10026000103A28BF78C1FBD8520728BF30C148BF19
:100270000B607047642900F06981752900F0668180
:10028000782900F09F81732900F04985002070478C
:100290001FB504F0C3FC00F0A9FC040000200021FD
:1002A00004F0A6FC401C60601FBD10B510BD01F03D
:1002B00028F81146FFF7ECFF03F07EFD01F046F849
:1002C00003B4FFF7F2FF03BC01F04AF8EFF310802C
:1002D00072B67047EFF310807047EFF3108062B68C
:1002E000704730BF704780F311887047EFF311807B
:1002F000704700004548804745480047FEE7FEE755
:10030000FEE7FEE7FEE7FEE7FEE7FEE7FEE7FEE7C5
:10031000FEE7FEE7FEE7FEE7FEE7FEE7FEE7FEE7B5
:10032000FEE7FEE7FEE7FEE7FEE7FEE7FEE7FEE7A5
:10033000FEE7FEE7FEE7FEE7FEE7FEE7FEE7FEE795
:10034000FEE7FEE7FEE7FEE7FEE7FEE7FEE7FEE785
:10035000FEE7FEE7FEE7FEE7FEE7FEE7FEE7FEE775
:10036000FEE7FEE7FEE7FEE7FEE7FEE7FEE7FEE765
:10037000FEE7FEE7FEE7FEE7FEE7FEE7FEE7FEE755
:10038000FEE7FEE7FEE7FEE7FEE7FEE7FEE7FEE745
:10039000FEE7FEE7FEE7FEE7FEE7FEE7FEE7FEE735
:1003A000FEE7FEE7FEE7FEE7FEE7FEE7FEE7FEE725
:1003B000FEE7FEE7FEE7FEE7FEE7FEE7FEE7FEE715
:1003C000FEE7FEE7FEE7FEE7FEE7FEE7FEE7FEE705
:1003D000FEE7FEE7FEE7FEE7FEE7FEE7FEE7FEE7F5
:1003E000FEE7FEE7FEE7FEE7FEE7FEE7FEE7FEE7E5
:1003F000FEE7FEE7FEE7FEE7FEE7FEE7FEE7FEE7D5
:1004000004480549034A054B70470000D520000009
:100410000102000060020020600400206002002051
:1004200010B500F0E3FB001D10BD00BFC547000084
:1004300010B50446FFF7F4FF0068005D000704D51F
:10044000DF2C02D0A4F1200010BD204610BD00001A
:100450000FB41CB5074B06AA7B446946009005986B
:1004600000F02BFC0020694600F03AFC1CBC5DF853
:1004700014FB0000850800000FB41CB50C0007AA8F
:10048000009001D02044401E074B7B4469460190F8
:10049000069800F012FC002C03D06946002000F002
:1004A0001FFC1CBC5DF814FB5D08000070B5044621
:1004B00085690068C10601D5302600E02026C00706
:1004C00007D070BDD4E9012130469047206A401C16
:1004D00020626D1EF6D570BD70B504468569007842
:1004E000C00707D170BDD4E9012120209047206AC0
:1004F000401C20626D1EF6D570BD70B50C460546D9
:10050000012A05D02878800600D5EA69002302E098
:10051000012305E05B1C934202D2E05C0028F9D184
:10052000A869E618C01AA861286A184428622846F3
:10053000FFF7BCFF04E0D5E9012114F8010B904757
:10054000B442F8D32846FFF7C7FF70BD2DE9F0414C
:100550000646002410687529314616A510D0AFF361
:100560000080002802DA404213A507E031688A07BC
:1005700001D512A502E0490704D511A5012401E027
:10058000AFF3008000210A2206F1240709E0B0FB46
:10059000F2FCB0FBF2F302FB1C003030785418463A
:1005A000491C0028F3D123462A463046BDE8F041D5
:1005B00000F024BB000000002D0000002B00000014
:1005C0002000000070B504460D4621461068AFF3C8
:1005D00000802188090502D50F4A7A4402E00E4ABC
:1005E0007A440E32002104F1240305E000F00F06E6
:1005F0000009965D5E54491C0028F7D1207800233D
:10060000000704D5702D02D009B102231132204613
:10061000BDE8704000F0F2BADE4B00002DE9F05F5B
:10062000894604464FF0000ADFF874B1FB44C0F875
:1006300020A02046E1688847002874D0252806D0ED
:10064000D4E901219047206A401C2062F1E700268E
:100650005F462046E16888472028054607DB312DA4
:1006600005D2781910F8200C08B10643F1E7B0075D
:1006700001D526F00406C4F81CA00027C4F818A071
:100680002A2D09D0284601F093FE38B304EB8708E1
:10069000303DC8F8185019E059F8041B204604EB07
:1006A00087029161E1688847012F054618D1E0690A
:1006B000002820DA26F020061DE0D8F8180000EB0C
:1006C000800005EB40003038C8F818002046E1688B
:1006D0008847054601F06CFE0028EED1012F0AD0B4
:1006E0002E2D08D12046E16888477F1C0546022F41
:1006F00046F02006C4DBA069002803DA404246F039
:100700000106A061F00701D026F010066C2D0BD079
:10071000682D09D04C2D39D06A2D35D0742D35D0A7
:100720007A2D33D016E038E0E1682F46204688471E
:10073000B842054609D16C2F26D04FF48060E1689D
:10074000064320468847054604E06C2F1AD04FF434
:10075000807006430DB3A5F14100192802D8203559
:1007600046F400664A462946204626604E46FFF774
:1007700081FD80B101280BD0F61D26F0070000F1A5
:10078000080956E74020E4E78020D8E70020D6E7B4
:1007900006F104094DE7284652E7206ABDE8F09FBC
:1007A000B44B00000FB400B58DB010A909900091B2
:1007B0000B904FF0FF300A9000200C9006487844D0
:1007C0000690064878446A4607900F9909A800F0F9
:1007D000BFFA0DB05DF814FBAF050000C7050000BF
:1007E0002DE9FF5F1D464FF0FF3B91464FF000089B
:1007F0005F46D5E90146A96901987F1C8847296AA7
:10080000824688470028F6D1BAF1FF3F0CD0002E6F
:1008100024F4C06419DD600614D5BAF12B0F09D099
:10082000BAF12D0F0ED103E0584604B0BDE8F09F99
:1008300044F48064A96901987F1C8847761E82462B
:10084000002E02DDBAF1300F03D0B9F1000F26D02F
:1008500032E0A969761E01987F1C44F40074884731
:10086000002E824605DDBAF1780F06D0BAF1580F96
:1008700003D0B9F1000F10D01EE0B9F1000F02D083
:10088000B9F1100F18D1A969761E01987F1C24F4C4
:10089000007488478246102002E0082000E00A2009
:1008A000814609E0A96908FB0908761E01987F1CAA
:1008B00044F4007488478246002E05DD49465046C0
:1008C00000F031FA0028EDDAE96901988847A005BF
:1008D00002D46FF00100A8E7E00725D1600613D528
:1008E000600502D5C8F1000000E0404629680A1DF5
:1008F0002A600968220501D5087015E0220701D594
:10090000088011E008600FE02868011D2960006878
:10091000210502D580F8008006E0210702D5A0F865
:10092000008001E0C0F8008038467EE770B50646DA
:1009300000F060F90468054630460A22002100F004
:1009400037FA2C6070BD401ECAB210F8011F8A42EF
:1009500002D00029F9D10020704710B5431C02E0F5
:1009600010F8011B71B18107FAD14FF0013202C8B2
:100970008C1A8C4314EAC211F9D0C01A0A0603D0AB
:10098000C01E10BDC01A10BD0A0401D0801E10BDCB
:100990000902FCD0401E10BD40EA010370B59B0760
:1009A0002ED14FF00136042A2AD308C810C99D1B46
:1009B0009D43121F15EAC61517D0D8B2E1B2401AEE
:1009C00050EA056110D198B2A1B2401A50EA05412F
:1009D0000AD123F07F4024F07F41401A50EA0521DC
:1009E00002D1180EA0EB146070BDA342DBD018BA80
:1009F00021BA884201D9012070BD4FF0FF3070BD8F
:100A00000AB9002070BD10F8013B11F8014B63B129
:100A1000A3420AD1521E08D010F8013B11F8014B35
:100A20001BB1A34201D1521EEDD1181B70BD032A88
:100A300040F2308010F0030C00F0158011F8013BFB
:100A4000BCF1020F624498BF11F801CB00F8013BE2
:100A500038BF11F8013BA2F1040298BF00F801CBA6
:100A600038BF00F8013B11F0030300F0D981083AC8
:100A7000C0F0088051F8043B083A51F804CBA0E8D4
:100A80000810F5E7121D5CBF51F8043B40F8043B29
:100A9000AFF30080D20724BF11F8013B11F801CB5E
:100AA00048BF11F8012B24BF00F8013B00F801CB2F
:100AB00048BF00F8012B704702F0FF0343EA03220E
:100AC00042EA024200F002B84FF000020429C0F0EE
:100AD000128010F0030C00F0D781CCF1040CBCF1B3
:100AE000020F18BF00F8012BA8BF20F8022BA1EBC2
:100AF0000C0100F0C9B95FEAC17C24BF00F8012BEA
:100B000000F8012B48BF00F8012B704710B50446D0
:100B100010F0030F08BF11F0030F40F015804FF0E5
:100B2000013E121FC0F20E8051F8043BA3EB0E0CE5
:100B30002CEA030C1CEACE1C08BF40F8043BF0D0A2
:100B4000A1F1040102F10402521E08DB11F8013B7D
:100B5000002B00F8013BF7D11146FFF7B5FF204607
:100B600010BD00004FF0013C50F8042B51F8043B3D
:100B70009A4221D1A2EB0C03934313EACC1317D171
:100B800050F8042B51F8043B9A4215D1A2EB0C0308
:100B9000934313EACC130BD150F8042B51F8043BC8
:100BA0009A4209D1A2EB0C03934313EACC13DBD096
:100BB0004FF00000704700BFD01A01BAB1FA81F1BE
:100BC00001F0180122FA01F0CB40C1F12001DBB2A3
:100BD000C0B2C01A2CFA01F3D11A914311EAC31121
:100BE000E6D1704770477047704700000048704773
:100BF0002002002000487047000200202DE9F04745
:100C00000D4699469246044600F12408016888067C
:100C100004D5E06921F01001216000E00120A84224
:100C200001DD471B00E00027A1697A1902EB0900EA
:100C3000081AA0612078C00602D42046FFF736FCCF
:100C4000002608E0D4E901211AF806009047206A3E
:100C5000401C761C20624E45F4DB2078C0060AD585
:100C60002046FFF723FC06E0D4E90121302090471D
:100C7000206A401C2062381EA7F10107F4DC07E05F
:100C8000D4E9012118F805009047206A401C206231
:100C9000281EA5F10105F3DC2046FFF71DFC207896
:100CA000000602D50220BDE8F0870120FBE7000026
:100CB00001694A1C02610878704700B58FB0CDE920
:100CC00001310021059105497944CDE90310114610
:100CD0006846FFF7A3FC0FB000BD0000E5FFFFFF73
:100CE0000A6802F8010B0A607047D1E900239A42B2
:100CF00002D2531C0B601070704710B5436913B1DA
:100D0000AFF3008001E0FFF7F8FB012010BD12787F
:100D100000F124010A7000224A700122EDE71168F7
:100D20004FF0FF32E9E73A2800D2303820F02002B5
:100D3000412A01D3A2F13700884201D34FF0FF309E
:100D4000704700000268114413780160184670472C
:100D5000D160054979445161044979441162002107
:100D60001161114600F0C4B8EDFFFFFF7F010000E4
:100D7000426842B1016811F8013B23B1521EC0E93B
:100D80000012184670470121C160881E70474268F2
:100D90005AB1C368016843B983688B4205D0491EC4
:100DA000521CC0E90012002070474FF0FF3070471E
:100DB0002DE9F04791460F4680460446002614F878
:100DC000015B2DB1FFF72CFB0068405DC007F6D139
:100DD0002B2D02D02D2D18D0641E4A4639462046B0
:100DE00000F040FA27B13968A14201D1C7F800806C
:100DF0004FF0020471050BD54042002803DDFFF7D8
:100E0000F9FE0460A007BDE8F08746F48066E4E7D9
:100E10000028F8DAFFF7EEFE04606FF00040F2E71A
:100E200010B5203AC0F00B80B1E81850203AA0E885
:100E30001850B1E81850A0E81850BFF4F5AF5FEAB9
:100E4000027C24BFB1E81850A0E8185044BF18C96C
:100E500018C0BDE810405FEA827C24BF51F8043B13
:100E600040F8043B08BF7047D20728BF31F8023B67
:100E700048BF11F8012B28BF20F8023B48BF00F8FB
:100E8000012B70474FF0000200B51346944696467A
:100E9000203922BFA0E80C50A0E80C50B1F120018D
:100EA000BFF4F7AF090728BFA0E80C5048BF0CC03B
:100EB0005DF804EB890028BF40F8042B08BF704799
:100EC00048BF20F8022B11F0804F18BF00F8012B0B
:100ED00070470000004870470002002010B504462B
:100EE000FFF79EFA0068005D00F0010010BD0000F1
:100EF0002DE9F34F4FF0000A0C4656468DB0012005
:100F00000C9001F10C000B9062690B980121904745
:100F1000051E2DD0252D2CD0216A8847C0B16269CD
:100F20000B9801219047216A88470028F7D1626910
:100F3000411E0B98904700E0761CA1690D988847E8
:100F4000216A88470028F7D1E1690D988847DBE7D7
:100F5000A1690D988847A842074601D1761CD3E7BE
:100F6000E1690D9888477F1C02D1BAF1000F6FD05C
:100F70006BE162690B9800273D46394690472A2865
:100F800004D162690B98012190470125DFF8D082D6
:100F900062690B9801219047A0F130010A290AD219
:100FA0004745E5DC07EB870100EB4107303FDFD425
:100FB00045F01005ECE7E90601D46FF000476C2816
:100FC0000AD04C2814D0682815D06A280DD074286F
:100FD0001CD07A281AD01DE062690B980121904735
:100FE0006C2802D045F0040514E045F002050DE040
:100FF00045F020050AE062690B98012190476828B6
:1010000002D045F0080505E045F4006562690B98DB
:1010100001219047C4E9015765283DD019DC5828C3
:101020007AD00CDC452837D004DC252826D041288E
:101030009ED131E046282FD0472899D12CE05B285B
:1010400077D0612828D063287CD0642823D15AE047
:10105000F6E06F2848D008DC66281DD067281BD032
:10106000692821D06E2816D127E0702845D0732832
:1010700068D0752847D078280DD14DE0A1690D982A
:101080008847252805463FF469AFE1690D988847F0
:101090006D1C3FF46AAFD8E00D9923466A466FF0A5
:1010A0000100AFF30080C5E045F0400023464FF05B
:1010B00000026060A80736D43EE0E8077FF447AF3F
:1010C0002068011D21600068290501D506701BE715
:1010D000290701D5068017E7A90703D5F117C0E94D
:1010E000006111E706600FE745F0400023464FF02E
:1010F00008026060A80716D41EE040F60E0125EA3B
:101100000100606016E045F0400023464FF00A02FF
:101110006060A80707D40FE045F040006060A807B2
:1011200008D5234610220D996FF00100AFF300801F
:1011300080E007E0102223460D996FF00100FFF7D1
:101140004FFB77E04FF0000963284F46C8464B46F7
:10115000CB4602D05B2806D038E0E80601D4012057
:10116000A060012732E06269D4F80CB00B9801212D
:1011700090475E2807D14FF0010949466269D4F8CB
:101180000CB00B989047216939B900210A4603AB8E
:1011900043F82120491C0829FADBD8B3216949B357
:1011A00008F1010862690B98012190475D28F4D18C
:1011B000B9F1000F09D0002003A951F82020D24333
:1011C00041F82020401C0828F7DB03AB20690028E9
:1011D00020794FEA40701ED05B462246CDF8008051
:1011E000CDE901970D9900286FF0010020DAAFF3E7
:1011F00000801FE0C11703AA00EBD1614B1121F061
:101200001F0102EB8302411A136801208840034347
:101210001360C7E719E00D99224600286FF001001E
:10122000009702DAAFF3008004E0AFF3008001E042
:10123000AFF3008000280ADA401C06D10C9820B1D8
:101240004FF0FF300FB0BDE8F08F5046FAE7E907E6
:1012500001D10AF1010A064400200C9054E6000076
:10126000CCCCCC0C2DE9F05F824615468B4600278E
:101270000AF10104B9460078302801D09DB113E08D
:1012800014F8010B0127782803D0582801D045B164
:101290000AE00DB1102D07D1002714F8010B10251D
:1012A00002E0082500E00A250026B0460EE005FB16
:1012B000080005FB06F101271FFA80F801EB104634
:1012C000B6F5803F00D3B94614F8010B2946FFF765
:1012D0002AFD0028EBDABBF1000F05D00FB1641E28
:1012E00000E05446CBF80040B9F1000F06D0FFF7FC
:1012F00081FC02210160C81EBDE8F09F48EA06405B
:10130000FAE77546FFF7E6FDAE4605006946534627
:1013100020F00700854618B020B5FFF771F8BDE84A
:1013200020404FF000064FF000074FF000084FF04C
:10133000000B21F00701AC46ACE8C009ACE8C009DD
:10134000ACE8C009ACE8C0098D46704710B504464A
:10135000AFF300802046BDE81040FEF7B1BF0000AB
:1013600001491820ABBEFEE72600020070470000CE
:1013700010B5124800F002FE00BF104800F012FE47
:101380000028FAD022210E4800F0DCFE0D4800684B
:101390004FF47A61B0FBF1F42246FF21084800F0D7
:1013A00016FF0121064800F00EFFC021232000F0A7
:1013B00037FB232000F0EAFA10BD0000000400F023
:1013C000000003404800002010B500F008FEFF2296
:1013D000642124A000F006FC0022642124A000F077
:1013E00001FCFF22962125A000F0FCFB0022322107
:1013F0001FA000F0F7FBFF22962120A000F0F2FBD7
:10140000002264211AA000F0EDFBFF2296211EA00D
:1014100000F0E8FB0022322115A000F0E3FBFF22E0
:10142000962119A000F0DEFB0022642110A000F03C
:10143000D9FB0022C82117A000F0D4FB00223221E2
:101440000BA000F0CFFB1648002101604160154859
:1014500001604160202208211348FFF72DFB00F0B6
:10146000C5FD10BD3838383838383838000000002D
:1014700020202020202020200000000032303236A2
:10148000303030310000000048555A48454E59452B
:101490000000000056312E302020202000000000E7
:1014A00081000020890000209100002010B5044632
:1014B000302C06DB392C04DCA4F130003149085C07
:1014C00010BD412C4ADB5A2C48DCA4F141001A28FB
:1014D00042D2DFE800F00D0F11131517191B1D1F65
:1014E00021232527292B2D2F31333537393B3D3FFC
:1014F0007720E5E77C20E3E73920E1E75E20DFE7BE
:101500007920DDE77120DBE73D20D9E77620D7E7BA
:101510000620D5E70E20D3E77620D1E73820CFE7A5
:101520005520CDE75420CBE75C20C9E77320C7E7FF
:101530006720C5E75020C3E76D20C1E77820BFE7EB
:101540003E20BDE71C20BBE77E20B9E77620B7E749
:101550006E20B5E75B20B3E70020B1E7612C07DB25
:101560007A2C05DCA4F12001C8B2FFF79FFFA7E7A2
:101570002E2C01D18020A3E72D2C01D140209FE704
:1015800000209DE728000020002100E0491C814246
:10159000FCD37047084A1268084BB2FBF3F242438F
:1015A0000323B2FBF3F102E000BF00BF00BF0A1E3D
:1015B000A1F10101F8D170474800002040420F001E
:1015C000D0F8003412F0010F14BF0B438B43C0F866
:1015D000003412F0020FD0F8202414BF114322EA85
:1015E0000101C0F8201470472DE9F00301264FF0E7
:1015F000000C0325C2F3411706FA0CF40C4211D07B
:10160000D0F8C48F4FEA4C0405FA04F928EA090817
:10161000C0F8C48FD0F8C48F07FA04F448EA040471
:10162000C0F8C44F0CF1010C0CF0FF0CBCF1080F1A
:10163000E2D3D0F800C512F0010F14BF4CEA010C40
:101640002CEA010CC0F800C5D0F804C512F0020F56
:1016500014BF4CEA010C2CEA010CC0F804C5D0F808
:1016600008C512F0040F14BF4CEA010C2CEA010C5F
:10167000C0F808C5D0F818C512F0080F14BF4CEA1E
:10168000010C2CEA010CC0F818C512F0100FD0F8AC
:101690003C2514BF0A438A43C0F83C25D0F80C25EA
:1016A00013F0010F14BF0A438A43C0F80C25D0F889
:1016B000102513F0020F14BF0A438A43C0F8102507
:1016C000D0F8142513F0040F14BF0A438A43C0F85E
:1016D0001425D0F81C2513F0080F14BF0A438A43C1
:1016E000C0F81C25D0F8442513F4007F14BF0A432A
:1016F0008A43C0F84425D0F8402513F4407F14BF36
:101700000A438A43C0F84025D0F82825002B0CBF97
:10171000114322EA0101C0F82815BDE8F003704723
:101720000E4AC0F30741D26E01238B401A420C4A85
:101730001ABF02EBC101496852F83110020AD1F810
:101740002C354FF00F0C0CFA02FC00F00F0023EACE
:101750000C0390401843C1F82C05704700E00F407F
:10176000CC4D000050F82100704730B50C460546BE
:101770000022FFF725FF21462846BDE83040082318
:101780000122FFF731BF30B50C4605460823012280
:10179000FFF72AFF21462846BDE830400122FFF727
:1017A0000FBF30B50C4605460222FFF709FF214660
:1017B0002846BDE8304009230122FFF715BF30B5A8
:1017C0000C4605460222FFF7FBFE21462846BDE8EF
:1017D000304008230122FFF707BF30B50C4605460D
:1017E0000222FFF7EDFE21462846BDE830400823DF
:1017F0000122FFF7F9BE40F82120704770B504467A
:101800000E4600BF1A4800F075F80028FAD10022F1
:101810002146174800F0B6F83146154800F074F834
:101820000721134800F06CF800BF114800F05CF885
:101830000028FAD10E4800F06EF80A20FFF7AAFE41
:10184000012221460A4800F09DF80721084800F0CF
:1018500057F800BF064800F047F80028FAD10448BE
:1018600000F050F8C5B20A20FFF794FE284670BD7C
:10187000000002402DE9F04104460F46154600BF26
:10188000184800F037F80028FAD100222146154800
:1018900000F078F83946134800F036F80321114873
:1018A00000F02EF800BF0F4800F024F80028FAD10D
:1018B0000C4800F030F8C6B229460A4800F024F877
:1018C0000521084800F01CF800BF064800F012F897
:1018D0000028FAD1034800F01EF8C6B23046BDE831
:1018E000F081000000000240406810F0400018BF86
:1018F00001207047406810F0010018BF01207047B8
:10190000416070478068704781607047016A41F0AC
:10191000100101627047406810F0010F05D110F00E
:10192000120F1CBF00F01C00704700207047000021
:10193000036A43F010030362002A14BF0E4A0F4AE1
:1019400002EB820301EB830302EB820292005B1E37
:10195000B3FBF2F2521EC260D0F8C02F12F0010F9A
:1019600008BF7047064A1144521CB1FBF2F1491EF0
:1019700041F08001C1607047801A0600A086010016
:101980007F47370142EA4101016070471649042848
:1019900004BF086840F4803018D0052804BF0868E8
:1019A00040F4003012D0062812D00F2815D010288D
:1019B00038BF7047103800F01F01012202FA01F110
:1019C00042090A4850F822000160704708607047D9
:1019D000086840F48020086070474FF0E0200169FB
:1019E00041F002010161704724ED00E0184F000052
:1019F00010B5FEF772FC002818BF012010BD0000D2
:101A0000044951F82000044940F0FD7040F0806026
:101A1000086070475C4E00000CED00E0FEF766BC0D
:101A2000084A20F00303D25813688007C00E4FF015
:101A3000FF0C0CFA00FC23EA0C0301FA00F0184337
:101A4000106070477C4E000010B5204800F096FAF8
:101A500000BF1E4800F0A6FA0028FAD01B48C01CA0
:101A600000F08CFA00BF1948C01C00F09BFA002857
:101A7000F9D01648C01D00F081FA00BF1348C01D00
:101A800000F090FA0028F9D001211148FFF77BFE01
:101A900001211048FFF777FE02210E48FFF773FE81
:101AA0000823662203210B48FFF79EFD0022022136
:101AB0000848FFF7A0FE03210748FFF756FE0A2358
:101AC000012203210448FFF78FFD10BD050800F037
:101AD000005002400040064000D0034010B51B48B3
:101AE00000F04CFA1A4800F049FA1A48FFF718FEBD
:101AF0001948FFF715FE04211848FFF760FE08217A
:101B00001648FFF74EFE0122154801681548FFF7F9
:101B10000FFF1448FFF7FAFEFF220C212220FFF7E7
:101B2000A9FE00220D212220FFF7A4FE00220E2193
:101B30002220FFF79FFE002203211820FFF79AFEC4
:101B4000FF2201211820FFF795FE10BD002000F0B4
:101B5000010800F002080100020C010000500040E2
:101B6000480000200000024010B5144800F006FABA
:101B7000134800F003FA00BF114800F013FA0028E0
:101B8000FAD00120FFF7CCFD40F20140FFF7C8FD7D
:101B900003214FF04020FFF720FE60234FF4E13295
:101BA00008480168084800F0B0FB182203210648E5
:101BB00000F0E2FB05A000F0EDFB10BD001800F006
:101BC000000800F04800002000C000400D0A436CEF
:101BD0006F636B2053797374656D2052656164790E
:101BE0000D0A00002DE9FC4705460F4690460024EB
:101BF00008E0285D00B907E0285DFFF757FC0DF805
:101C00000400641C082CF4DB00BF03E000200DF886
:101C10000400641C082CF9DB002632E000242DE0CF
:101C2000002206212220FFF725FE184908700A200D
:101C3000FFF7B0FC1DF8042005212220FFF71AFE53
:101C4000124908700A20FFF7A5FC04F0FF090120E3
:101C500000FA09F0C2B206212220FFF70BFE0B4961
:101C600008706FEA0800C2B201211820FFF702FED7
:101C7000064908706420FFF78DFC641C082CCFDB3C
:101C8000761CBE42CAD3BDE8FC870000420000209B
:101C90002DE9F003AF4D02462868AF4B1840A0F184
:101CA0008053B3F5A02359D002F03809DFF8AC8295
:101CB000C2F38414B9F1100F25D0B9F1300F04BF6D
:101CC00047F230504FF400130DD04FF038009043DE
:101CD00004BF4FF40040C30105D012F0380F1CBF01
:101CE0000020034613D09E4F12F4605F4FF00006B1
:101CF00018BF00222CD057F8324044457DD307EB63
:101D0000C2025268E1E0002340461524EBE7A4F14B
:101D10000900122822D29348D5F87CC04FF04C73AA
:101D200050F824002CF01C0C072CA8BF4CF0100C11
:101D3000C5F87CC02E6D4FF4002C16F4807FD2D1F4
:101D4000BCF1010C0AD02E6D16F4807FF8D0CAE7E2
:101D500012F0380F18BFB9F1100F04D0BDE8F0032E
:101D60004FF000007047C2F30268DFF8FCC14FF08B
:101D7000000257F83290E14503D307EBC2025268E4
:101D800003E0521C062AF4D33246C5F8C020D5F829
:101D9000B020DFF8D8C102EA0C0242F00042C5F8D8
:101DA000B020DFF8CCC1A4F109024C1E5CF828C0B9
:101DB000A444BCFBF1FCD5F8B0101943C5F8B01031
:101DC00008EBC80101EB41046A4902EB420201EB56
:101DD000C40101EB82046468C5F86441D5F864412C
:101DE0006FF0FF0808EB0C2C44EA0C0CC5F864C13A
:101DF00051F82210D5F8602100E061E002F4000201
:101E00001143C5F86011D5F86011D5F86021C1F310
:101E10008921C2F30904D5F86421C2F3042202F136
:101E2000010CD5F8642102F01F02521CB0FBF2F045
:101E30004A09C2F100084443424301EB481104EB54
:101E40005212484302EB9020B0FBFCF041080846D8
:101E5000002257F832C0844503D307EBC20046681E
:101E600002E0521C062AF4D3C5F8C060D5F8600120
:101E700010F4000F1DBFD5F8B00040F08040C5F849
:101E8000B000D5F8600104BF40F40000C5F860015F
:101E90004FF40040D5F8682112F0010F02D1401E26
:101EA0000028F7DC002808BF002148D0D5F8B00092
:101EB000184340F0010040F01040C5F8B0003EE08B
:101EC000521C062AFFF417AF3246C5F8C020D5F8D9
:101ED000602122F40002C5F86021D5F8B020DFF8B7
:101EE00098C002EA0C0242F00042C5F8B020002976
:101EF00008BF4FF0000C0AD0B0FBF1FCBCF1000FA2
:101F000018BFACF1010C0CF10101B0FBF1F1084676
:101F1000002257F83240844203D307EBC2004668E0
:101F200002E0521C062AF4D3C5F8C060D5F8B00010
:101F300043EA8C22104340F00040C5F8B000D5F8C9
:101F4000B00020F47000C5F8B000BDE8F00308460A
:101F50007047000000E00F400000FF700024F40014
:101F60008C510000704F000040787D0100FC0FE0B4
:101F7000684F0000DC4F0000FF0300EFC0F30723B1
:101F80000749C0B2194401F07043C1F3130143EA99
:101F9000411141EA800040F0007001220260704768
:101FA00000E60F40C0F307220849C0B2114401F017
:101FB0007042C1F3130142EA411141EA800040F04E
:101FC00000700068002818BF0120704700EA0F4029
:101FD0004FF0E020016941F00501016170474FF0C9
:101FE000E020016921F00201016170474FF0E0201B
:101FF000016941F00201016170474FF0E021401E8C
:102000004861704710B5002206212220FFF732FCFC
:102010000520FFF7BFFA274827490978425C0521C8
:102020002220FFF727FC0520FFF7B4FA22480478A6
:102030000120A040C2B206212220FFF71BFC1E484F
:102040000078401C1C49087008460078082801DB0D
:10205000002008701948008828B118480088401EE0
:102060001649088005E064201449088001201449BD
:1020700008701448008828B112480088401E114991
:10208000088005E00A200F49088001200E490870E9
:1020900001210E48FFF766FB28B9012211460C48C2
:1020A000FFF7A9FB04E0002201210948FFF7A3FB89
:1020B00010BD0000810000209A0000203E0000209A
:1020C000410000203C0000204000002000D00340E0
:1020D000004006400448006840F47000024908606F
:1020E000024803490860704788ED00E00024F400CE
:1020F000C800002010B501210E4800F062F80E481B
:102100000078A8B10D48007808B9012000E000204F
:102110000A4908700846007828B10222114608488A
:10212000FFF769FB04E0002202210548FFF763FB8B
:1021300010BD000000000340B7000020C5000020D3
:102140000040064010B4C26822F0010222F48072FE
:10215000C2600A0E0260114A1268114B02EA030CB7
:10216000ACF18054CBB2C1F30722B4F5202407D0E0
:1021700043F40071416042F40071816010BC70470B
:102180004FF4704C0CEA1114234343F40073436082
:102190000CEA1121114341F40071EEE700E00F4019
:1021A0000000FF70C26840F20113194022EA0101E9
:1021B000C1607047C26840F2011319401143C16009
:1021C000704741627047826911438161704711F025
:1021D000FF0F18BF826211F47F4F18BFC2627047B1
:1021E00070B50121334800F0D0F805462946314842
:1021F00000F0C5F803203049087034E02D4800F0A5
:1022000071F8C4B20D2C00D12DE00A2C1AD12B4844
:10221000007860B1002029490870294908604121EF
:102220002848FEF751FC28A000F0B4F870BD00204B
:102230002449234A1268885421490860012028490A
:102240000870F3E71E480068402808DA1C48016857
:102250000068401C1A4A10601A48445402E00120E9
:102260001649087000BF134800F04AF80028C5D18D
:10227000402D1DD11148007860B100200F49087031
:102280000F49086041210F48FEF71EFC0EA000F028
:1022900081F8CBE70A480068002809DD00200949D9
:1022A000074A126888540649086001200C490870E2
:1022B00000BFBBE700C00040A7000020590000207D
:1022C00054000020CC0000204552524F52204C496F
:1022D0004E4520544F4F204C4F4E470D0A000000F2
:1022E00058000020816911F0100F0CBF00684FF0FA
:1022F000FF307047826912F0200FFBD101607047F8
:102300008069012121EA10107047D0F818C01CF034
:10231000080FFAD1D0F82CC02CF0100CC0F82CC04B
:10232000D0F830C02CF0010C2CF4407CC0F830C048
:10233000D0F830C0B1EB021F34BF4CF0200C2CF0B1
:10234000200CC0F830C038BF5208C900B1FBF2F110
:10235000491C49088A09426201F03F018162C36257
:1023600000218161C16A41F01001C162016B40F23C
:102370000132114301637047114341637047416467
:102380007047826B114381637047002914BF006C52
:10239000C06B704710B5044604E014F8011B0348F5
:1023A000FFF7A8FF20780028F7D110BD00C000403B
:1023B00030380A2801D20120704700207047000001
:1023C00010B53F48007810B13E48007800B110BD0C
:1023D0003D480078F0B93D4800783D490978884289
:1023E00018D13C4800783C490978884212D13B48D2
:1023F00000783B49097888420CD1012032490870A5
:1024000000203849087038490870384908700120A0
:1024100002F00EF92C48007800284ED0324800789F
:10242000401C3149087031480078401C2F49087021
:1024300008460078642802DB00F05AF8C7E729480C
:10244000007830B1012811D002281CD0032833D1E4
:1024500026E000F065F824480078022805DB01201A
:102460002049087000202049087025E000F06CF831
:102470001D480078022805DB02201A490870002058
:102480001949087018E000F04BF817480078022846
:1024900005DB0320134908700020134908700BE086
:1024A00000F052F810480078022804DB00200D49A3
:1024B00008700D49087000BF00BF00BF87E700002B
:1024C000770000207C000020780000206C000020B5
:1024D000740000206D000020750000206E000020B8
:1024E00076000020790000207A0000207B00002088
:1024F00010B50020064908700649087006490870A2
:102500000649087000F00CF8002002F091F810BDA8
:1025100078000020790000207A0000207B00002055
:1025200010B5002005490870FF210548FFF73AFE65
:10253000002202210348FFF75EF910BDB70000201A
:10254000000003400040064010B50648007800B186
:1025500010BD012004490870FF210448FFF72AFE3E
:1025600000BFF5E7AE000020B700002000000340E8
:1025700030B597B00546202229460FA8FEF7C6FAC7
:1025800000208DF85B000FAC00E0641C2078202850
:10259000FBD020780928F8D004E02078FDF748FF28
:1025A0002070641C20780028F7D10FAC00E0641C78
:1025B00020782028FBD020780928F8D0207820B176
:1025C00042A1204601F09EFD78B14248007800907B
:1025D000414803784148027841A103A8FDF738FF3C
:1025E00003A802F0E3F817B030BD42A1204601F085
:1025F00089FD70B141480078009041480378414816
:10260000028841A103A8FDF723FF03A802F0CEF83A
:10261000E9E742A1204601F075FD70B1414800781C
:1026200008B141A000E042A0024643A103A8FDF783
:102630000FFF03A802F0BAF8D5E741A1204601F048
:1026400061FDA8B14048007808B140A000E040A07A
:1026500040490978CDE900103F4803783F480278A7
:102660003FA103A8FDF7F4FE03A802F09FF8BAE724
:1026700041A1204601F046FD70B14148007808B103
:1026800032A000E032A002462BA103A8FDF7E0FE35
:1026900003A802F08BF8A6E73AA1204601F032FD2C
:1026A00070B13A48007808B139A000E03AA002467B
:1026B00021A103A8FDF7CCFE03A802F077F892E76A
:1026C00036A002F073F800BF8DE7000054494D4575
:1026D000000000006E0000206D0000206C00002053
:1026E0004F4B202530326420253032642025303293
:1026F000640D0A00444154450000000073000020AE
:1027000072000020700000204F4B202530346420E0
:102710002530326420253032640D0A00464F524D78
:10272000415400009B0000205249474854000000DB
:102730004C454654000000004F4B2025730D0A0005
:10274000414C41524D000000770000204F4E0000E8
:102750004F464600760000207500002074000020DF
:102760004F4B202530326420253032642025303212
:10277000642025730D0A00004449535000000000F6
:102780007F0000204D4F444500000000AE000020B7
:102790004E49474854000000444159004552524FA9
:1027A000522053594E5441580D0A000000B589B0CB
:1027B0000548026805A101A8FDF74AFE01A801F03D
:1027C000F5FF09B000BD0000B00000202A504F4EB8
:1027D0004720256C750D0A002DE9F04798B0054695
:1027E0004022294608A8FEF791F900208DF85F00E5
:1027F00008AC04E02078FDF71BFE2070641C2078F4
:102800000028F7D1012601274FF001089DF820008C
:10281000002858D0002080460746064608AC4EE007
:1028200000E0641C20782028FBD020780928F8D00C
:10283000207800B946E0A14600E0641C207828B169
:102840002078202802D020780928F6D194F800A01A
:102850000020207038A1484601F054FC08B101273F
:1028600027E037A1484601F04DFC08B1012720E0E0
:1028700035A1484601F046FC08B1012719E034A112
:10288000484601F03FFC08B1012612E032A148465B
:1028900001F038FC10B14FF0010809E030A16846A2
:1028A000FDF7D6FD684601F081FF18B0BDE8F0875E
:1028B00000BFBAF1000F00D104E0641C00BF207813
:1028C0000028ADD100BF4FB140F2EA70284908801E
:1028D00006202849087008202749087036B10020D2
:1028E000264908702649087026490870B8F1000F7B
:1028F00007D0062024490870002024490870244984
:102900000870002023490870012023490870002026
:10291000224908702249087022490870224908702B
:102920002249087000F052FE01F04CFF20A001F097
:102930003DFF00BFB9E700004441544500000000DE
:1029400059454152000000004D4F4E5448000000D0
:1029500054494D4500000000414C41524D000000DB
:102960004552524F5220504152414D0D0A00000035
:102970007000002072000020730000206C00002016
:102980006D0000206E000020740000207500002003
:10299000760000209B0000207F0000209D0000208A
:1029A000A1000020A2000020A40000207E00002042
:1029B0004F4B0D0A000000002DE9F04F91B0824608
:1029C0004022514601A8FEF7A1F800208DF84300EF
:1029D00001AC83469AE000E0641C20782028FBD0FC
:1029E00020780928F8D0207800B993E0A14600E0CB
:1029F000641C207828B12078202802D0207809286B
:102A0000F6D12778002020704E4604E03078FDF79C
:102A10000FFD3070761C30780028F7D145A148466C
:102A200001F070FB60B10020434908704349087011
:102A3000FFF776FD42A001F0B9FE11B0BDE8F08FBE
:102A40004FF00008B7B1641C00E0641C2078202817
:102A5000FBD020780928F8D0A04600E0641C20783C
:102A600028B12078202802D020780928F6D12778AC
:102A700000202070B8F1000F02D098F8000018B9BB
:102A800031A001F093FED8E74046FDF74FFF054621
:102A900031A1484601F036FB60B1002D01DB172D56
:102AA00003DD2FA001F082FEC7E731490D704FF022
:102AB000010B27E02FA1484601F024FB60B1002D57
:102AC00001DB3B2D03DD26A001F070FEB5E72B49AD
:102AD0000D704FF0010B15E029A1484601F012FBE3
:102AE00060B1002D01DB3B2D03DD1DA001F05EFE7A
:102AF000A3E725490D704FF0010B03E012A001F090
:102B000055FE9AE707B905E0277000BF2078002836
:102B10007FF461AF00BFBBF1000F06D00120064972
:102B2000087007A001F042FE02E007A001F03EFE9F
:102B300000BF82E74F464600770000207800002063
:102B40004F4B0D0A000000004552524F522053597E
:102B50004E5441580D0A0000484F555200000000E5
:102B60004552524F522052414E47450D0A00000037
:102B7000740000204D494E757465000075000020FA
:102B80005345436F6E6400007600002070B5064622
:102B9000344600E0641C20782028FBD020780928E7
:102BA000F8D0207818B913A001F000FE70BD2046BF
:102BB000FDF7BCFE05460A2D03DB41F28830854255
:102BC00003DD10A001F0F2FDF0E7FFF7BDFC05F119
:102BD0003200642190FBF1F00E490870084600783D
:102BE000012801DA012008700BA001F0DFFD00BF11
:102BF000DCE700004552524F5220504152414D0DEA
:102C00000A0000004552524F522052414E47450D96
:102C10000A000000B60000204F4B0D0A0000000023
:102C20002DE9F04F91B082464022514601A8FDF7B0
:102C30006DFF00208DF8430001AC83468CE000E07E
:102C4000641C20782028FBD020780928F8D0207830
:102C500000B985E0A14600E0641C207828B1207806
:102C6000202802D020780928F6D12778002020706B
:102C70008046B7B1641C00E0641C20782028FBD09B
:102C800020780928F8D0A04600E0641C207828B1FC
:102C90002078202802D020780928F6D12778002033
:102CA0002070B8F1000F02D098F8000028B93DA0BC
:102CB00001F07CFD11B0BDE8F08F4046FDF736FE17
:102CC00005464E4604E03078FDF7B2FB3070761CC6
:102CD00030780028F7D137A1484601F013FA78B1CF
:102CE000B5F5FD6F03DD40F63300854203DD33A00B
:102CF00001F05CFDDEE735490D804FF0010B27E068
:102D000033A1484601F0FEF960B1012D01DB0C2D25
:102D100003DD2AA001F04AFDCCE72F490D704FF0EA
:102D2000010B15E02DA1484601F0ECF960B1012D31
:102D300001DB1F2D03DD21A001F038FDBAE7294991
:102D40000D704FF0010B03E016A001F02FFDB1E76D
:102D500007B905E0277000BF207800287FF46FAF27
:102D600000BF1D4801781948008800F0F3FC1D4998
:102D70000978884207DA184801781448008800F07A
:102D8000E9FC18490870BBF1000F05D001F01AFDED
:102D900015A001F00BFD02E002A001F007FD00BF4D
:102DA00088E700004552524F522053594E54415823
:102DB0000D0A000059454152000000004552524F93
:102DC000522052414E47450D0A000000700000207D
:102DD0004D4F4E54480000007200002044415445BD
:102DE00000000000730000204F4B0D0A000000009F
:102DF0007FB50546102229466846FDF787FE00206C
:102E00008DF80F006C4600E0641C20782028FBD071
:102E100020780928F8D004E02078FDF709FB20701D
:102E2000641C20780028F7D16C4600E0641C2078F0
:102E30002028FBD020780928F8D011A12046FDF7E2
:102E400091FE58B901200F49087000200E49087002
:102E500001F0B8FC0DA001F0A9FC10E00DA1204686
:102E6000FDF780FE40B900200649087001F0AAFC79
:102E700006A001F09BFC02E007A001F097FC7FBDDB
:102E80004F4E00007F0000209D0000204F4B0D0A98
:102E9000000000004F4646004552524F522050411C
:102EA00052414D0D0A0000007FB50546102229460B
:102EB0006846FDF72BFE00208DF80F006C4600E001
:102EC000641C20782028FBD020780928F8D004E062
:102ED0002078FDF7ADFA2070641C20780028F7D127
:102EE0006C4600E0641C20782028FBD0207809285C
:102EF000F8D012A12046FDF735FE50B90020114947
:102F000008701149087001F05DFC10A001F04EFC42
:102F100013E010A12046FDF725FE58B9012009490C
:102F2000087000200849087001F04CFC07A001F06F
:102F30003DFC02E009A001F039FC7FBD4C45465440
:102F4000000000009B0000209E0000204F4B0D0A57
:102F50000000000052494748540000004552524FBB
:102F60005220504152414D0D0A0000007FB50646E7
:102F7000102231466846FDF7C9FD00208DF80F008C
:102F80006C4600E0641C20782028FBD020780928BB
:102F9000F8D004E02078FDF74BFA2070641C20780C
:102FA0000028F7D16C4600E0641C20782028FBD074
:102FB00020780928F8D04FF0FF352DA12046FDF7E5
:102FC000D1FD08B901253DE02BA12046FDF7CAFD42
:102FD00008B9022536E02AA12046FDF7C3FD08B94D
:102FE00000252FE027A12046FDF7BCFD08B90425E8
:102FF00028E026A12046FDF7B5FD08B9062521E009
:1030000024A12046FDF7AEFD08B903251AE023A14F
:103010002046FDF7A7FD08B9052513E021A12046AC
:10302000FDF7A0FD08B907250CE01FA12046FDF71C
:1030300099FD08B9082505E01DA12046FDF792FD80
:1030400000B90925002D03DA1BA001F0AFFB7FBDFD
:1030500001201D490870E8B2002100F0A7FB002004
:103060001949087019A001F0A1FB00BFEFE70000AB
:1030700046554E43000000005348494654000000A6
:103080004144440053415645000000004449535018
:10309000000000005350454544000000464F524D8B
:1030A000415400004558540055534552310000002A
:1030B00055534552320000004552524F5220504164
:1030C00052414D0D0A000000B50000204F4B0D0A83
:1030D000000000007CB50646344600E0641C207801
:1030E0002028FBD020780928F8D0207818B926A00D
:1030F00001F05CFB7CBD00200190207808B12078B5
:1031000000E030208DF80400607808B1607800E0BD
:1031100030208DF805006A461FA101A8FDF742FB8B
:1031200001280AD06A461DA12046FDF73BFB012875
:1031300003D015A001F03AFBDCE70098C5B235B921
:1031400000201749087001201649087004E001208A
:103150001349087013480570FEF741FF00BF12487D
:10316000FEF7C8FB0028FAD10E480078C043C2B26F
:1031700001211820FEF77EFBFEF738FF0BA001F0BF
:1031800015FB00BFB6E700004552524F5220504198
:1031900052414D0D0A0000002532780025780000CC
:1031A000A4000020A3000020000002404F4B0D0AA5
:1031B000000000007FB50546102229466846FDF74D
:1031C000A5FC00208DF80F006C4600E0641C207800
:1031D0002028FBD020780928F8D004E02078FDF7DB
:1031E00027F92070641C20780028F7D16C4600E095
:1031F000641C20782028FBD020780928F8D017A15B
:103200002046FDF7AFFC68B9002015490870154944
:10321000087001F0D7FA11A001F0B2FA12A001F083
:10322000C5FA1AE012A12046FDF79CFC20B112A1BC
:103230002046FDF797FC68B9012009490870094943
:10324000087001F0BFFA0AA001F09AFA06A001F096
:10325000ADFA02E009A001F0A9FA7FBD444159008E
:10326000AE0000207C0000204F4B0D0A0000000043
:103270004E494748540000004E4947004552524FBE
:103280005220504152414D0D0A00000070B50646D3
:10329000344600E0641C20782028FBD020780928E0
:1032A000F8D02046FDF759FBC5B2202D00DD2025C2
:1032B00085B921211748FDF707FC00201649087041
:1032C000164908701649087001F07CFA15A001F043
:1032D0006DFA70BD21210F48FDF7F6FB2A46214605
:1032E0000C48FDF7A4FB0D48057000200C49087040
:1032F00001200949087000200C4908700C49087029
:103300000C49087001F05EFA06A001F04FFA00BF08
:10331000DFE700000D0100209D0000209F0000203D
:103320009E0000204F4B0D0A00000000A00000206E
:10333000A1000020A20000202DE9F04F91B08246AC
:103340004022514601A8FDF7E1FB00208DF8430023
:1033500001AC83469AE000E0641C20782028FBD072
:1033600020780928F8D0207800B993E0A14600E041
:10337000641C207828B12078202802D020780928E1
:10338000F6D12778002020704E4604E03078FDF713
:103390004FF83070761C30780028F7D18046B7B1EE
:1033A000641C00E0641C20782028FBD020780928C9
:1033B000F8D0A04600E0641C207828B120782028AE
:1033C00002D020780928F6D127780020207039A172
:1033D000484600F097FE50B100203749087001F0D0
:1033E000F1F936A001F0E2F911B0BDE8F08FB8F1C3
:1033F000000F02D098F8000018B932A001F0D6F9F9
:10340000F2E74046FDF792FA054632A1484600F041
:1034100079FE60B1002D01DB172D03DD2FA001F037
:10342000C5F9E1E731490D704FF0010B2AE030A1F9
:10343000484600F067FE78B1002D01DB3B2D03DD2F
:1034400026A001F0B3F9CFE72B490D7000202B49DE
:1034500008704FF0010B15E029A1484600F052FE1C
:1034600060B1002D01DB3B2D03DD1CA001F09EF9B6
:10347000BAE722490D704FF0010B03E011A001F0F3
:1034800095F9B1E707B905E0277000BF207800285B
:103490007FF461AF00BFBBF1000F05D001F092F9DE
:1034A00006A001F083F902E006A001F07FF900BF59
:1034B0009AE700004F4646007F0000204F4B0D0A60
:1034C000000000004552524F522053594E5441586B
:1034D0000D0A0000484F5552000000004552524F5F
:1034E000522052414E47450D0A0000006C0000205A
:1034F0004D494E75746500006D0000206E0000207F
:103500005345436F6E64000010B5044618480078B8
:103510001849087018480078184908701848007849
:103520001849087018480088184908801848007819
:103530001849087018480078184908701848007829
:103540001849087018480078184908701848007819
:103550001849087018480470002018490870184964
:103560000880184908701849087001F02BF910BD3F
:103570006C000020B80000206D000020B900002081
:103580006E000020BA00002070000020BC00002067
:1035900072000020BE00002073000020BF00002049
:1035A00074000020C000002075000020C100002031
:1035B00076000020C2000020A8000020A900002002
:1035C000AA000020AC000020AD00002010B586B09D
:1035D0000446002C3FD03A48007800283BD03848B9
:1035E000007801280FD137480078009036480378DA
:1035F0003648028836A102A8FCF72AFF02A938A0A3
:1036000001F070F826E02E48007802280FD13648E5
:1036100000780090354803783548027835A102A833
:10362000FCF716FF02A937A001F05CF812E024486D
:10363000007803280ED1354800780090344803788C
:10364000344802782BA102A8FCF702FF02A932A09D
:1036500001F048F826E01A48007818B3304800789E
:10366000234908702F480078204908702E480078B8
:103670001D4908702D480088144908802C4800789E
:10368000114908702B4800780E4908702A480078C4
:1036900020490870294800781D490870284800789A
:1036A0001A49087000200649087026490870264902
:1036B00008802649087001F085F806B010BD0000AA
:1036C000A80000207300002072000020700000207D
:1036D000253034642E253032642E253032640000CB
:1036E00044415445000000006E0000206D000020A1
:1036F0006C000020253032642E253032642E2530B7
:103700003264000054494D4500000000760000205E
:103710007500002074000020414C41524D00000013
:10372000B8000020B9000020BA000020BC00002032
:10373000BE000020BF000020C0000020C10000200B
:10374000C2000020A9000020AA000020AC00002038
:103750007047000030B505460C46022C05D12846BE
:1037600000F00AF808B11D2030BD601E0149085C58
:10377000FAE70000264C000001460A46C81701EB94
:1037800090708010A1EB800028B9642091FBF0F3C9
:1037900000FB131030B94FF4C87091FBF0F300FB3D
:1037A000131008B9012070470020FCE770B50446EB
:1037B0000D46BE48007810B9204600F0ADFF0A2C37
:1037C0007ED2DFE804F005B4DDF5FEF2F1F0EFEEB5
:1037D000B7480078002874D00020B6490880B44863
:1037E0000078012839D1B448007878B9B348008806
:1037F000401CB24908800846008840F633018842E0
:1038000003DD40F2E970AD4908808DE0AA480078F8
:1038100001280BD1AA480078401CA9490870084625
:1038200000780C28F1DD012008707DE0A2480078C6
:10383000022879D1A3480078401CA2490870A0480A
:1038400001789E480088FFF785FF9E4909788842E5
:103850006ADA01209B49087066E0954800780228E2
:1038600030D19548007858B997480078401C96495F
:10387000087008460078172856DD0020087053E0CD
:103880008D48007801280BD190480078401C8F4962
:103890000870084600783B2846DD0020087043E0A9
:1038A0008548007802283FD189480078401C884923
:1038B0000870084600783B2836DD0020087033E0A9
:1038C000F2E033E07A48007803282DD17A48007876
:1038D00058B980480078401C7E4908700846007836
:1038E000172821DD002008701EE0734800780128A9
:1038F0000BD179480078401C774908700846007859
:103900003B2811DD002008700EE06B48007802288B
:103910000AD172480078401C704908700846007847
:103920003B2801DD0020087000F04CFFBCE06C4833
:10393000007810B1FEF7DCFDB6E035B15C480078E8
:10394000E8B10120FFF742FE19E05948007818B9A4
:103950000120FFF7D9FD12E055480078012803D176
:103960000220FFF7D1FD0AE051480078022803D178
:103970000320FFF7C9FD02E00120FFF7C5FD93E03A
:103980004B48007860B100204A4908804A480078D6
:10399000401C032190FBF1F201FB12004649087024
:1039A00082E07DE078E02FE01DE00EE009E0FFE737
:1039B0004C48007808B9012000E00020494908700F
:1039C00072E00120FFF702FE6EE04748007808B978
:1039D000012000E00020444908700020434908709D
:1039E00000F0F0FE60E042480078401C404908705A
:1039F00008460078022801DD0020087000203D49BB
:103A0000087000F0DFFE4FE03B48007808B9012065
:103A100000E00020384908700846007818B137A047
:103A200000F0C4FE07E000202D490870FEF778FD85
:103A300037A000F0BBFE3C480678007840F0040058
:103A400039490870FEF7CBFA00BF3848FDF752FF3E
:103A50000028FAD134480078C043C2B201211820AE
:103A6000FDF708FFFEF7C2FA3148FDF78DFD2E483D
:103A70000670FEF7B4FA00BF2C48FDF73BFF0028A4
:103A8000FAD129480078C043C2B201211820FDF7BD
:103A9000F1FEFEF7ABFA07E026A000F087FE03E098
:103AA00029A000F083FE00BF00BF70BDB50000205C
:103AB000A8000020AA000020A9000020700000201B
:103AC00072000020730000206C0000206D000020B8
:103AD0006E00002074000020750000207600002099
:103AE000780000209C0000209B0000209E00002009
:103AF0007E0000209D000020770000202A455654BB
:103B00003A414C41524D3A534554204F4E0D0A0014
:103B10002A4556543A414C41524D3A534554204F50
:103B200046460D0A00000000A300002000000240ED
:103B3000A08601002A4556543A4B45592055534515
:103B400052310D0A000000002A4556543A4B45599F
:103B50002055534552320D0A000000002DE9F04176
:103B6000FEF73DFA00BF4448FDF7C4FE0028FAD135
:103B700000212220FDF742FE0646FEF737FA032118
:103B80003E48FDF7EFFDC7B2F043C5B207F00100B4
:103B900000B9EDB207F0020000B9EDB23848007884
:103BA00098B1012020EA5608B8F1000F09D0354835
:103BB000007830B9FEF79CFC012032490870BDE85E
:103BC000F081304880F80080F9E7002450E045FAA1
:103BD00004F000F00108B8F1000F1FD02A4830F8B7
:103BE0001400032806DA284830F81400401C26493F
:103BF00021F81400244830F81400022824D1234866
:103C0000005D08BB0120214908550020204921F80A
:103C10001400E0B20021FFF7C9FD15E01A4830F8A2
:103C20001400002806DD184830F81400401E16491C
:103C300021F81400144830F8140028B91348005D26
:103C400010B10020114908551048005D78B11048A6
:103C500030F81400401C0E4921F81400084630F8D2
:103C60001400642803D1E0B20121FFF79FFD641C1A
:103C70000A2CACDB00BFA2E70000024000D00340EA
:103C800078000020C30000202E01002056010020F3
:103C90004201002010B53D48007890B1FEF79FF931
:103CA00000BF3B48FDF726FE0028FAD139480078CE
:103CB000C043C2B201211820FDF7DCFDFEF796F9E2
:103CC00010BD344804783448007805280ADB002009
:103CD0003149087004F0010010B124F0010401E042
:103CE00044F001042D480078002807DD2B480078B7
:103CF000401E2A49087044F0080401E024F008043A
:103D000027480078002807DD25480078401E244910
:103D1000087044F0100401E024F0100421480078F9
:103D200010B104F001041BE01F48007840B11F48A7
:103D3000007810B144F002040AE024F0020407E025
:103D40001B48007810B144F0020401E024F00204A2
:103D50001848007810B144F0040401E024F0040491
:103D60000C480470FEF73BF900BF0948FDF7C2FD9F
:103D70000028FAD107480078C043C2B201211820B8
:103D8000FDF778FDFEF732F900BF99E7A4000020A7
:103D900000000240A3000020A5000020A600002093
:103DA000A7000020AE000020780000207D00002049
:103DB00077000020A800002008B5B149B148FDF700
:103DC00067FFB1490860084600684FF47A71B0FB9C
:103DD000F1F42046FEF711F9FEF7FAF8FEF706F9BE
:103DE000FDF732FEFDF77AFEFDF7BEFEFDF7C0FAE5
:103DF0001520FDF7CBFD5021A448FEF7C2FAFDF7D0
:103E0000F7FDFDF70BFEA24908600720FDF7F8FD5E
:103E100000211520FDF704FEE0210F20FDF700FE34
:103E2000FDF7D2FA00F0CEFC01209A490870FEF7A7
:103E3000D6F898480078C043C2B201211820FDF797
:103E400019FDFEF7D3F8002000909349087016E1A1
:103E50009248007870B3002090490870BDF80000C7
:103E6000401C80B200901E2817DB002000908C4878
:103E7000007828B1012211468A48FDF7BCFC04E015
:103E8000002201218748FDF7B6FC8548007808B973
:103E9000012000E0002082490870FFF75FFEFFF775
:103EA00057FC8148007828B1032080490870002021
:103EB0007D4908707E48007800287DD000207C492C
:103EC00008707C480078401C7A4908707A4800786D
:103ED00090B17A480078401C78490870084600780C
:103EE000022809DB002008707548007808B9012015
:103EF00000E0002072490870FFF7CCFE714800789E
:103F0000A0B171480078401C6F49087008460078DD
:103F100003280BDB002008706C48007808B90120EA
:103F200000E000206949087000F04CFC6848007807
:103F3000002872D067480078082818DC66480078A6
:103F4000401C6549087008460078192865DB002088
:103F50005F4908705F4908705F4908705F490870E1
:103F600021215F48FCF7B0FD00F02CFC55E04A48E9
:103F70000078401C484908705A48007808B102206F
:103F800000E00520044644480078A04244DB0020BD
:103F90004149087054480078B0B950480078401C36
:103FA0004E490870084601784A4800780830814236
:103FB0001DDB0020494900E05CE008704B480078B8
:103FC000401C4A49087012E04448007850B9414802
:103FD0000078C01D4149087044480078401C43499E
:103FE000087004E03D480078401E3C4908703F4896
:103FF000007801280EDB002035490870354908702B
:104000003A4908703549087023490870212134481D
:10401000FCF75AFD00F0D6FB00BF35480078401C85
:10402000C0B2334908700A280EDB0020087000F087
:104030008DFD00F0C7FB2F480068401C2D4908602B
:1040400000F014FB00F084FBFEF7BAF92A48007870
:1040500080B12A480078002804DD28480078401EF6
:10406000264908702548007820B9FEF759FA002043
:10407000214908702248007808B100F07BF8E7E693
:10408000002D3101500500F14800002000C0004023
:104090004C000020A3000020A000002040000020D1
:1040A0004500002000500240B4000020A60000207F
:1040B00041000020A500002078000020C40000205E
:1040C0007D000020A8000020AD000020AC000020F2
:1040D0009D0000209F000020A20000209E000020E4
:1040E0000D0100209C0000209B000020A10000206A
:1040F00080000020B0000020B7000020B6000020A3
:10410000580000202DE9F04707460D463846FCF7D9
:1041100024FC064600240CE0385DFCF789F9814652
:10412000285DFCF785F9814502D00020BDE8F087C5
:10413000641CB44202DA285D0028EDD1B44201DAF1
:104140000020F3E74FF0000800240AE0FCF768F9CC
:104150000068295D405C00F0100008B104F101081E
:10416000641C285D0028F1D1464501DB0120DDE714
:104170000020DBE72DE9FC5F0020F44908704022B5
:10418000F349F448FCF7C2FC0020F24981F83F00F3
:104190004121EF48FCF798FCEE4C00E0641C2078CD
:1041A0002028FBD020780928F8D020780D28F5D0D9
:1041B00020780A28F2D02046FCF7CFFB074603E020
:1041C0000021781E07462154002F0FDD781E205C49
:1041D0002028F5D0781E205C0928F1D0781E205CBC
:1041E0000D28EDD0781E205C0A28E9D0207808B987
:1041F000BDE8FC9F0322D8A12046FCF7CDFB18BBED
:10420000002604E0A05DFCF713F9A055761CA05D24
:104210000028F7D1D1A12046FCF7A4FC38B9D24838
:10422000006800F0C3FAD1A000F0C0FA0BE0D0A102
:104230002046FCF797FC30B9D148006800F0B6FA88
:10424000CAA000F0B3FAD3E7A04600E0641C2078CF
:1042500028B12078202802D020780928F6D12078AB
:10426000019000202070019808B9204600E0601CF1
:10427000054600E06D1C28782028FBD02878092806
:10428000F8D0002606E018F80600FCF7D1F808F888
:104290000600761C18F806000028F4D198F80000F3
:1042A0002A2838D13A214046FCF74DFB90BB2878AC
:1042B0003A2830D105F1010A01E00AF1010A9AF821
:1042C00000002028F9D09AF800000928F5D05646B9
:1042D00000E0761C307828B13078202802D0307881
:1042E0000928F6D196F800B0002030704346A5A208
:1042F0002021A648CDF800A0FCF7BEF886F800B053
:10430000354600E06D1C28782028FBD02878092845
:10431000F8D008E0FFE7202241469C48FCF7F6FB76
:1043200000209A49C877402229469948FCF7EEFBBD
:104330000020974981F83F00DFF850924846FCF78B
:104340000CFB04280DDB4846FCF707FB064632460B
:1043500090A14846FCF720FB18B92846FEF73CFA26
:10436000F1E04846FCF7F9FA08280DDB4846FCF76F
:10437000F4FA0646324689A14846FCF70DFB18B907
:104380002846FEF74DFCDEE04846FCF7E6FA082832
:104390000DDB4846FCF7E1FA0646324682A1484664
:1043A000FCF7FAFA18B92846FEF7C6FFCBE04846F4
:1043B000FCF7D3FA09280DDB4846FCF7CEFA06468F
:1043C00032467CA14846FCF7E7FA18B92846FEF7C2
:1043D0000FFDB8E04846FCF7C0FA09280DDB484657
:1043E000FCF7BBFA0646324676A14846FCF7D4FAFB
:1043F00018B92846FEF758FDA5E04846FCF7ADFA87
:1044000007280DDB4846FCF7A8FA0646324670A19D
:104410004846FCF7C1FA18B95D48FEF737FF92E04D
:104420004846FCF79AFA08280DDB4846FCF795FA4F
:104430000646324669A14846FCF7AEFA18B9284646
:10444000FEF7A4FB7FE04846FCF787FA07280DDB60
:104450004846FCF782FA0646324663A14846FCF716
:104460009BFA18B92846FEF735FE6CE04846FCF783
:1044700074FA07280DDB4846FCF76FFA0646324609
:104480005CA14846FCF788FA18B92846FEF76EFD8D
:1044900059E04846FCF761FA08280DDB4846FCF76E
:1044A0005CFA0646324656A14846FCF775FA18B93A
:1044B0002846FEF77FFE46E04846FCF74EFA0928FC
:1044C0000DDB4846FCF749FA064632464FA14846FE
:1044D000FCF762FA18B92846FEF76EFA33E00422B8
:1044E0004DA14846FCF758FAC0B94846FCF735FAE2
:1044F0000C2813DC2E4699F804003A2805D199F8C7
:10450000050010B109F1050604E099F8040008B1AE
:1045100009F104063046FEF72BF814E04846FCF794
:104520001CFA05280CDB4846FCF717FA064632460B
:104530003BA14846FCF730FA10B9FEF737F902E024
:1045400039A000F033F900BF52E600005800002007
:10455000CC0000206001002041542B0041542B432B
:104560004C41535323000000640000200D0A00005A
:1045700041542B53545544454E54434F4445230016
:104580006800002025733A2573000000A001002078
:10459000C00100202A525354000000002A53455401
:1045A0003A444154450000002A5345543A54494D79
:1045B000450000002A5345543A444953504C415950
:1045C000000000002A5345543A464F524D415400D2
:1045D0002A5345543A4D5347000000002A5345548E
:1045E0003A424545500000002A5345543A4C454450
:1045F000000000002A5345543A4B45590000000082
:104600002A5345543A4D4F44450000002A5345541F
:104610003A414C41524D00002A47455400000000E9
:104620002A50494E470000004552524F520D0A0091
:1046300010B504461CB104A000F0B8F802E006A0D2
:1046400000F0B4F810BD00002A4556543A414C41E0
:10465000524D0D0A000000002A4556543A414C4183
:10466000524D5F4F46460D0A0000000030B593B032
:104670000025002409E01448005D28B1C4F10701B9
:10468000012088402843C5B2641C082CF3DB0024B9
:104690000AE00E48005D202801D15F2001E00B48B0
:1046A000005D0DF80400641C082CF2DB00208DF87E
:1046B00008002B466A4606A103A8FBF7C9FE03A81B
:1046C00000F074F813B030BD890000209100002084
:1046D0002A4556543A4449535020257320253032F8
:1046E000580D0A0030B591B004460D462B462246BF
:1046F00004A101A8FBF7ACFE01A800F057F811B027
:1047000030BD00002A4556543A454449542025738B
:104710002025730D0A00000010B588B004460A2C4D
:1047200009DA064850F8242005A16846FBF790FEF8
:10473000684600F03BF808B010BD00000000002003
:104740002A4556543A4B45592025730D0A0000005E
:1047500000B589B00548027805A101A8FBF778FEED
:1047600001A800F023F809B000BD0000A30000205C
:104770002A4556543A4C454420253032580D0A00FB
:1047800010B588B00446224604A16846FBF760FED7
:10479000684600F00BF808B010BD00002A455654DA
:1047A0003A4D4F44452025730D0A000010B50446CC
:1047B0002046FDF7EFFD01200149087010BD000003
:1047C000B400002030B589B0BAA207CA06AB07C34F
:1047D000BB48007870B9002408E00020B9490855AA
:1047E000B94908552020B9490855641C082CF4DB48
:1047F00009B030BDB648007878B1B6480378B648FD
:104800000278B6A106A8FBF723FEAF48002101609D
:1048100041600120AC494870C0E0B4480078A8B3BA
:10482000B3480078002832DDB2490878002426E039
:104830000119AF4A1278914205DA0119AE4A515C6A
:1048400006AA11551AE00219A949097808318A42C5
:1048500003DA202106AA115510E00219A44B1B7897
:10486000D21A083AA24B1B7892FBF3F503FB1522F0
:10487000D1B2A14A525C06AB1A5500BF641C082C89
:10488000D6DB914900220A604A6087E0FFE79B4837
:10489000007800283FD08C48002101604160974893
:1048A000007801280FD19648007800909548037849
:1048B0009548028895A106A8FBF7CAFD0120824908
:1048C000C87048716AE08D48007802280FD193487B
:1048D000007800907F4803787F48027890A106A86E
:1048E000FBF7B6FD012078494870C87056E0834850
:1048F0000078032852D18E48007800908D480378C4
:104900008D48027886A106A8FBF7A2FD01206E491A
:104910004870C87042E06C480021016041608748DF
:10492000007820B1012812D0022836D125E07B483A
:1049300000780090674803786748027878A106A855
:10494000FBF786FD012060494870C87025E06E487D
:104950000088642190FBF1F201FB120568480078A1
:104960000090684803782A466DA106A8FBF770FD01
:10497000012055494870C8700FE0614800780090E8
:10498000604803786048028860A106A8FBF760FDD4
:1049900001204D49C870487100BF00BF68480078C9
:1049A000012822D1002001900290002406E0C4F1E9
:1049B000070006A9085C03A90855641C082CF6DB4F
:1049C000002406E0C4F106003F49085C01A908552F
:1049D000641C072CF6DBDDE90301CDE906013A484A
:1049E000019901600299416000BF38480699016051
:1049F0000799416041480078002844D05148007828
:104A000088B33E48007801281AD14F4A127812B96B
:104A10000020042108E04C4A1278012A02D1042027
:104A2000022101E006200221044603E0202206AB19
:104A30001A55641C4218A24201DD082CF6DB22E064
:104A40002E480078022803D02C48007803281AD179
:104A50003D4A12780AB9002207E03B4A1278012A3F
:104A600002D1022201E00EE0042210460221044697
:104A700003E0202206AB1A55641C4218A24201DD55
:104A8000082CF6DB00BF00240FE006A9085DFCF748
:104A90000DFD0C4908550C48005D28B100BF0846C3
:104AA000005D40F080000855641C082CEDDB00BF61
:104AB0009EE6000020202020202020200000000072
:104AC0007F0000208100002089000020910000204C
:104AD000AE0000206D0000206C0000202530326404
:104AE0002530326420202020000000009D0000209E
:104AF0009F0000209E0000200D010020A800002043
:104B00007300002072000020700000202530346403
:104B10002530326425303264000000006E00002031
:104B20002530326425303264253032642020000084
:104B30007600002075000020740000207E00002018
:104B40009B000020AC000020A900002000B52248F6
:104B50000078401C20490870084600783C2839DB62
:104B6000002008701D480078401C1C490870084649
:104B700000783C282EDB0020087019480078401C83
:104B80001749087008460078182823DB00200870B1
:104B900014480078401C13490870134801781348E2
:104BA0000088FEF7D7FD0F490978884212DA012004
:104BB0000C4908700C480078401C0B4908700846E6
:104BC00000780C2806DD0120087008480088401C89
:104BD0000649088000BD00006E0000206D00002026
:104BE0006C00002073000020720000207000002084
:104BF00010B500290AD00878002807D00548784465
:104C0000FBF7B0FF002801D0002010BD0248784417
:104C100010BD00009E060000960600004FF0407098
:104C2000E1EE100A70471F1C1F1E1F1E1F1F1E1FB4
:104C30001E1F0000004000401000000000800540E2
:104C400010000000005000401100000000900540DE
:104C500011000000006000401200000000A00540AC
:104C600012000000007000401300000000B005407A
:104C700013000000004002401400000000C0054086
:104C800014000000005002402E00000000D005403B
:104C90002E000000006002402F00000000E00540F0
:104CA0002F000000007002403000000000F00540BE
:104CB0003000000000D00340460000000000064025
:104CC000460000000010064047000000002006409B
:104CD00048000000003006407F0000000040064011
:104CE0008000000000500640840000000060064084
:104CF0008C000000004000401000000000800540D3
:104D0000100000000050004011000000009005401D
:104D100011000000006000401200000000A00540EB
:104D200012000000007000401300000000B00540B9
:104D300013000000004002401400000000C00540C5
:104D400014000000005002402E00000000D005407A
:104D50002E000000006002402F00000000E005402F
:104D60002F000000007002403000000000F00540FD
:104D70003000000000D00340430000000000064067
:104D800043000000001006404400000000200640E0
:104D9000450000000030064058000000004006407A
:104DA00059000000005006405C0000000060064012
:104DB00064000000007006406C00000000800640A7
:104DC0006D000000009006407F00000000400040A1
:104DD0000080054000500040009005400060004009
:104DE00000A005400070004000B0054000400240B7
:104DF00000C005400050024000D005400060024065
:104E000000E005400070024000F0054000D0034083
:104E1000000006400010064000100640002006403A
:104E200000200640003006400030064000400640AA
:104E3000004006400050064000500640006006401A
:104E4000006006400070064000700640008006408A
:104E500000800640009006400090064000070000D9
:104E60000006000000050000000400000003000030
:104E7000000200000001000000000000000000002F
:104E800018ED00E01CED00E020ED00E000E400E0A3
:104E900004E400E008E400E00CE400E010E400E0DA
:104EA00014E400E018E400E01CE400E020E400E08A
:104EB00024E400E028E400E02CE400E030E400E03A
:104EC00034E400E038E400E03CE400E040E400E0EA
:104ED00044E400E048E400E04CE400E050E400E09A
:104EE00054E400E058E400E05CE400E060E400E04A
:104EF00064E400E068E400E06CE400E070E400E0FA
:104F000074E400E078E400E07CE400E080E400E0A9
:104F100084E400E088E400E000E100E004E100E077
:104F200008E100E00CE100E010E100E080E100E0D9
:104F300084E100E088E100E08CE100E090E100E045
:104F400000E200E004E200E008E200E00CE200E041
:104F500010E200E080E200E084E200E088E200E0AD
:104F60008CE200E090E200E000688909001C4E0E2F
:104F700040420F0000201C0080841E00008025009D
:104F8000999E36000040380000093D0000803E0038
:104F900000004B00404B4C0000204E00808D5B0019
:104FA00000C05D000080700000127A0000007D00EB
:104FB00080969800001BB7000080BB00C0E8CE00C0
:104FC000647ADA000024F4000000FA0080A81201DC
:104FD000002D310100366E0140787D014000000057
:104FE00000000000000100003E000800000000007A
:104FF00000010000A000000002000000000100000D
:105000003454010000000000000100002B70060075
:105010000000000000010000280000000000000067
:105020000001000027000100000000000001000056
:1050300020000000000000000001000050000000FF
:1050400002000000000100001AAC00000000000097
:10505000000100001794090000000000000100009A
:105060001698050000000000000100001400000078
:105070000000000000010000138008000000000094
:1050800000010000A0000000080000000001000076
:1050900010000000000000000001000028000000D7
:1050A00002000000000100004000000004000000B9
:1050B000000100006000000000000000000100008E
:1050C0005D000C0000000000000100005000000026
:1050D00000000000000100004E000200000000007F
:1050E0000001000041AC01000000000000010000D0
:1050F0003C00000000000000000100003A800900B0
:10510000000000000001000030000000000000006E
:105110000001000028000000000000000001000065
:1051200027000100000000000001000023600600CD
:1051300000000000000100002160080000000000E5
:10514000000100001E00000000000000000100003F
:105150001DC004000000000000010000500000001D
:105160000200000000010000180000000000000024
:105170000001000014000000000000000001000019
:105180006000000004000000000100000024F400A2
:1051900030003000005A62029100910000879303B2
:1051A000D200D20000B4C4041301130100E1F505DC
:1051B00054015401000E2707950195013031323317
:1051C000343536373839414243444546403058003B
:1051D000303132333435363738396162636465666D
:1051E00040307800040000080000000000000002C9
:1051F000000100001000000041542B535455444559
:105200004E54434F4445230041542B434C41535388
:1052100023000000555345523100000055534552BC
:105220003200000046554E43000000004144440057
:1052300053504545440000005341564500000000CE
:105240004449535000000000464F524D4154000065
:10525000534849465400000045585400434C4153BC
:10526000534631375858585858000000434F44456A
:10527000353137585858585858580000AC5300002A
:1052800000000020CC0000003C0200007854000028
:10529000CC00002094030000580200001001000020
:1052A00043000000F8FFFFFF004040404040404006
:1052B00040404141414141404040404040404040E9
:1052C000404040404040404040050202020202028D
:1052D00002020202020202020220202020202020DC
:1052E00020202002020202020202909090909090F0
:1052F00010101010101010101010101010101010AE
:105300001010101002020202020288888888888821
:10531000080808080808080808080808080808080D
:105320000808080802020202400000000000000015
:10533000000000000000000000000000000000006D
:10534000000000000000000000000000000000005D
:10535000000000000000000000000000000000004D
:10536000000000000000000000000000000000003D
:10537000000000000000000000000000000000002D
:10538000000000000000000000000000000000001D
:10539000000000000000000000000000000000000D
:1053A0000000000000000000000000002C5200007F
:1053B00024520000505200003052000038520000C9
:1053C00048520000405200005852000014520000A1
:1053D0001C5200003F065B4F666D7D077F6F777C38
:1053E000585E79715C004000000000000000000081
:1053F00000000100000000000000000000000000AC
:10540000000000000000000008520000F8510000F9
:105410005C5200006C5200000C223800EA070608BB
:105420000600000100000000000000010000000074
:10543000000000000000000000000000002020200C
:1054400020202020200000000000000000000000BC
:10545000000000000000000000000000000000004C
:10546000000000000000000000000000000000003C
:08547000000000000024F4001C
:0400000500000201F4
:00000001FF
